:020000040800F2
:100000001006002005010008212800081D26000810
:100010001D280008F10B00089D3B000800000000AF
:100020000000000000000000000000001137000880
:10003000170C000800000000A93500085937000817
:100040001F0100081F0100081F0100081F01000810
:100050001F0100081F0100081F0100081F01000800
:100060001F0100081F0100081F0100081F010008F0
:100070001F0100081F0100081F0100081F010008E0
:100080001F0100081F0100081F0100081F010008D0
:100090001F0100081F0100081F010008250C0008AF
:1000A0001F0100081F0100081F0100081F010008B0
:1000B0001F0100081F0100081F0100081F010008A0
:1000C0001F0100081F0100081F0100081F01000890
:1000D0001F0100088D3B00081F0100081F010008D8
:1000E0001F0100081F0100081F010008DFF810D0E1
:1000F00000F0B6FA00480047F1440008AFF3008072
:10010000100600200648804706480047FEE7FEE745
:10011000FEE7FEE7FEE7FEE7FEE7FEE7FEE7FEE7B7
:10012000C5370008ED000008202A04DB203A21FA38
:1001300002F00021704721FA02F3D040C2F1200200
:100140009140084319467047D2B201E000F8012BF4
:10015000491EFBD270470022F6E710B513460A4647
:1001600004461946FFF7F0FF204610BD2DE9FE4F6B
:1001700081EA030404F0004421F0004100944FF0B0
:10018000000B23F0004350EA01045ED052EA03045E
:100190005BD0C3F30A54C1F30A552C44A4F2F334E0
:1001A0000194A0FB0254C1F3130141F48011C3F385
:1001B000130343F4801301FB024400FB034E840A43
:1001C000970A44EA815447EA8357A4FB07680295DB
:1001D0008D0A05FB07854FEA932C04FB0C54270579
:1001E000029D4FEA065847EA1637B5EB08056EEB55
:1001F000070C870E920E47EA811742EA8312A7FB8B
:100200000201B6EB0B0164EB00042B0D43EA0C3347
:100210005E1844EB1C50DA465146E7FB0201C5F379
:1002200013044FEA0B3343EA14534FEA0432019CA0
:1002300043EA0603A4F10C040294009CCDE900B447
:1002400000F000F903B0BDE8F08F00200146F9E7A7
:100250002DE9F04D81EA030404F0004B21F0004544
:1002600014464FF0000A23F0004150EA050220D066
:1002700054EA01021DD0C5F30A570246C5F3130321
:10028000C1F31300C1F30A5640F4801543F4801300
:10029000A7EB0608101BD64608F2FD3873EB0500E5
:1002A00002D308F1010801E092185B41B8F1000F98
:1002B00003DA00200146BDE8F08D00204FF48011E4
:1002C000064684460EE0171B73EB050705D3121B89
:1002D00063EB050306434CEA010C49084FEA300082
:1002E00092185B4150EA0107EDD152EA030012D0A7
:1002F00082EA040083EA0501084305D0101BAB41E4
:1003000006D20122002306E000224FF0004302E063
:100310006FF0010253101AEB06004CEB085110EB82
:100320000A0041EB0B01BDE8F04D00F07CB800F095
:10033000004230F000400AD0C10D01F56071C0F3F9
:10034000160042EA0151C2084007114370470020DD
:100350000146704730B5041E71F1000404DB4FF014
:100360000044404264EB0101141E73F1000405DBFC
:100370001C464FF00043524263EB0403994208BF0E
:10038000904230BD002801DBC0F10040002901DBB4
:10039000C1F100418142704730B50B460146002053
:1003A0002022012409E021FA02F59D4205D303FA37
:1003B00002F5491B04FA02F52844151EA2F10102B8
:1003C000F1DC30BD2DE9F05F0546002092469B46EA
:1003D00088460646814640241BE02846414647465B
:1003E0002246FFF7A1FE53465A46C01A914110D348
:1003F00011461846224600F045F92D1A67EB010810
:100400004F4622460120002100F03CF917EB00097D
:100410004E41201EA4F10104DFDC484631462A4645
:100420004346BDE8F09F10B5141E73F1000408DACE
:10043000401C41F1000192185B411A4301D120F0A8
:10044000010010BD2DE9F04D92469B4611B1B1FA65
:1004500081F202E0B0FA80F22032904600F012F908
:1004600004460F4640EA0A0041EA0B0153465A4649
:10047000084313D0114653EA010019D0C8F14002D5
:100480005046FFF751FE05460E4650465946424635
:1004900000F0F8F8084305D0012004E02046394672
:1004A000BDE8F08D0020054346EAE0762C43374353
:1004B0000A986305E40AA0EB08000022FD0A44EA5A
:1004C00047540A3002D500200146E9E7010510191A
:1004D0006941DDE9084500196941BDE8F04DA2E731
:1004E0002DE9FE4F804681EA0300C00F0C460090C4
:1004F00021F0004123F00045B8EB0200A94105D2EC
:100500004046214690461C460B46024623F00040DA
:10051000104347D0270DC7F30A00C3F30A510290D6
:10052000401A019040286BDAC3F3130040F4801B9B
:100530000098924620B10023D2EB030A63EB0B0B29
:1005400001985946C0F14002504600F09BF806461B
:100550000D4650465946019A00F0A3F810EB0800EA
:100560006141002487EA115284EAE7731A4340D0BC
:10057000009A62B3019A012A4FEA075215DC001B68
:1005800061EB02014FF0004202EA0752CDE900425E
:10059000001C41F5801132462B46FFF753FF03B094
:1005A000BDE8F08F40462146F9E7001B61EB0201F0
:1005B000001C41F5801300185B412018A2F50017BC
:1005C00047EB030140EAD570B6196D4111E06D08A3
:1005D0004FEA360645EAC0754FEA0752001B61EB49
:1005E0000201001C41F5801149084FEA3000001952
:1005F000514132462B4603B0BDE8F04FFFF713BF21
:100600000098012240000023D0EB020263EBE0736C
:10061000009821464FEAE074B8EB000061EB04015A
:10062000E9E783F000435BE781F0004158E7C1F35D
:100630000A52C1F3130140F2FF3341F480119A4290
:1006400002DA00200146704740F233439A42A2F298
:10065000334202DC5242FFF767BD00F013B80000DE
:10066000064C074D06E0E06840F0010394E80700FF
:1006700098471034AC42F6D3FFF73CFDD47F000816
:10068000F47F0008202A04DB203A00FA02F100205F
:1006900070479140C2F1200320FA03F319439040C0
:1006A0007047202A06DBCB17203A41FA02F043EAD2
:1006B000E07306E041FA02F3D040C2F1200291401B
:1006C00008431946704700002DE9F04104460D46E5
:1006D00000260027284600F023F8012203211046B7
:1006E00000F00AF9064626F4600604F0070046EA20
:1006F000405700224FF48051084800F0EFFD0023DE
:1007000003223946012000F0B3F900F0D9F90122A3
:100710001103024800F0E2FDBDE8F081000C014049
:1007200070B504460025002601220321022000F0B6
:10073000E3F8054625F47F45E0B245EA00260123AB
:1007400003223146022000F093F970BD70B50024F9
:100750000026002501220321022000F0CDF80446E6
:1007600025461048054045F0500601230322314636
:10077000022000F07DF901221146002000F0BCF8B3
:10078000054605F0200018B907A003F009FA02E0B9
:100790000CA003F005FA012303222146022000F0F9
:1007A00067F970BDAFFF7FFF4144373139352052C3
:1007B000656620566F6C74616765204F4B2E0D0A7D
:1007C000000000004552524F523A2041443731391F
:1007D00035204E4F2052656620566F6C74616765F8
:1007E000210D0A0070B500240025074C01230322C7
:1007F0002146022000F03CF9044D01230322294642
:10080000184600F035F970BD4702800060044800CA
:1008100070B512A003F0C4F901221146002000F0C7
:100820006BF80446214616A003F0BAF90122032111
:10083000104600F061F80546294618A003F0B0F90B
:1008400001220321022000F057F8064631461AA083
:1008500003F0A6F91FA003F0A3F970BD0D0A2D2D1A
:100860002D204144373139352052656769737465ED
:10087000722044756D70202D2D2D0D0A0000000092
:100880005354415420526567202830783030293A3B
:100890002030782530326C580D0A00004D4F444509
:1008A00020526567202830783031293A2030782569
:1008B00030366C580D0A0000434F4E462052656793
:1008C000202830783032293A2030782530366C585C
:1008D0000D0A00002D2D2D2D2D2D2D2D2D2D2D2DE5
:1008E0002D2D2D2D2D2D2D2D2D2D2D2D2D2D2D2D38
:1008F0000D0A0D0A000000002DE9FC4107460C46D8
:10090000154611A103C9CDE900014FF000080026EA
:1009100007F00700402141EAC0008DF80000611C8B
:10092000CAB2E8B2694600F017F9012605E01DF8E1
:10093000060000EB0828701CC6B2601C8642F6DB7D
:100940004046BDE8FC810000FFFFFFFFFF00000004
:1009500010B5002401221102194800F0BFFC052047
:1009600000F0EAFA00F0EEF80A2000F0E5FA00F0F4
:100970006DF8052000F0E0FA012211460420FFF78F
:10098000BBFFC4B221460FA003F00AF9A62C04D085
:1009900013A003F005F9002010BDFFF723FF0A2084
:1009A00000F0CAFAFFF7D2FE15A003F0F9F8022111
:1009B0000420FFF789FE1EA003F0F2F80120EBE708
:1009C00000080140414437313935204944205265FF
:1009D00061643A203078253032580D0A000000005A
:1009E0004552524F523A2041443731393520496EF1
:1009F0006974204661696C6564210D0A000000007D
:100A000041443731393520457865637574696E67BF
:100A100020496E7465726E616C205A65726F204356
:100A2000616C6962726174696F6E2E2E2E0D0A0000
:100A30004144373139352043616C696272617469B0
:100A40006F6E20446F6E65210D0A00001CB506A173
:100A500003C9CDE9000107226946012000F0A0F892
:100A6000022000F069FA1CBDFFFFFFFFFFFFFF003F
:100A70002DE9FF4182B0074614461D460020009034
:100A800001900DF10C08264607F00700002141EA0D
:100A9000C0008DF8000007E098F800000DF806008F
:100AA00008F10108701EC6B2002EF5DC611CCAB246
:100AB000E8B2694600F074F806B0BDE8F0810000C5
:100AC00010B5094C00BF4FF48041084800F0FEFB10
:100AD000012803D1201EA4F10104F4D114B904A00B
:100AE00003F05EF810BD0000FFFF1F00000C014086
:100AF00041443731393520576169742052445920B7
:100B000054696D656F7574210D0A0000002004E0C2
:100B10000021084A42F82010401C1428F8DB00216C
:100B2000054A1160516000200449087004490870AA
:100B30007047000024010020400000203800002001
:100B40004800002010B501221103024800F0C6FB46
:100B500010BD0000000C0140F8B504460F461546D4
:100B6000012C04D1002201030B4800F0B7FB6420E4
:100B70002B463A4639460090084801F068F9064687
:100B8000012C04D101221103034800F0A7FB0EB190
:100B90000020F8BD2846FCE7000C0140840000203E
:100BA0002DE9F04104460F461646012C04D10022DF
:100BB00001030B4800F092FB642332463946094892
:100BC00001F066F80546012C04D101221103044806
:100BD00000F084FB15B10020BDE8F0813046FBE752
:100BE000000C01408400002000B5FFF78FFF00BD1E
:100BF00000BFFEE770B504460D46152002F0C2FCAA
:100C000004F11C01C8B202F0B7FC05F11C01C8B226
:100C100002F0B2FC70BD704710B50446204600F0EB
:100C20008BF910BD10B5402000F0B2F910BD72B6BE
:100C300000BFFEE770B504460CB9012070BD94F802
:100C4000200010B9204600F0AFF82068006840F09E
:100C500001002168086000F047FB05460DE000F048
:100C600043FB401B0A2808D9606A40F400306062E8
:100C7000052084F820000120E0E72068406800F0AB
:100C800001000028EBD02068006820F002002168F5
:100C9000086000F029FB05460DE000F025FB401B35
:100CA0000A2808D9606A40F400306062052084F8A0
:100CB00020000120C2E72068406800F00200002800
:100CC000EBD1207E012806D12068006840F080002A
:100CD0002168086005E02068006820F08000216835
:100CE0000860607E012806D12068006840F040005E
:100CF0002168086005E02068006820F04000216855
:100D00000860A07E012806D12068006840F020001D
:100D10002168086005E02068006820F02000216854
:100D20000860E07E012806D12068006820F01000ED
:100D30002168086005E02068006840F01000216824
:100D40000860207F012806D12068006840F0080074
:100D50002168086005E02068006820F0080021682C
:100D60000860607F012806D12068006840F0040018
:100D70002168086005E02068006820F00400216810
:100D80000860D4E902010843216908436169084306
:100D90006168491E08432168C86100206062012023
:100DA00084F82000002049E710B586B004460020F2
:100DB00002900390049005901A49206888422ED131
:100DC00000BF1948C06940F000701749C861084663
:100DD000C06900F00070019000BF00BF00BF08466E
:100DE000806940F0040088610846806900F00400D2
:100DF000019000BF00BFC81402900020039004902F
:100E000002A90A4800F0D2F84FF480500290022064
:100E100003900320059002A9044800F0C7F806B02B
:100E200010BD0000006400400010024000080140B6
:100E30000146002291F82100022808D0042088638E
:100E400000BF002081F8200000BF01207047086823
:100E5000006820F00E000B6818600868006820F039
:100E600001000B68186091F8403001209840CB6B6E
:100E70005860012081F8210000BF002081F8200087
:100E800000BF1046E2E7000070B50446002594F864
:100E90002100022803D00420A063012548E0206837
:100EA000006820F00E00216808602068006820F0CB
:100EB0000100216808601F492068884201D1012093
:100EC00026E01C4914312068884201D110201FE01F
:100ED000184928312068884201D1801518E0154949
:100EE0003C312068884201D1801411E01149503111
:100EF0002068884202D14FF4803009E00D49643106
:100F00002068884202D14FF4801001E04FF08070D9
:100F1000084908394860012084F8210000BF0020FA
:100F200084F8200000BF606B10B12046616B8847D9
:100F3000284670BD0800024070B5044600F0D4F9A0
:100F400006462546681C10B104480078054400BFD9
:100F500000F0CAF9801BA842FAD370BD0800002037
:100F600070B50446402C0DD100F0BEF90546064888
:100F70000068281A142802D9012004490870024880
:100F8000056000BF70BD000054000020500000202C
:100F900010B5044604480068204020B102480460AF
:100FA0002046FFF7DDFF10BD140401402DE9F8478E
:100FB0000346002294466EE14FF0010808FA02F45D
:100FC000D1F8008008EA0400A0427DD1DFF8DCA25D
:100FD000D1F80480A8EB0A09D0453AD014DCB8F166
:100FE000030F50D009DCB8F1000F31D0B8F1010F78
:100FF0001CD0B8F1020F49D120E0B8F1110F18D080
:10100000B8F1120F42D11EE0B9F5881F25D006DCD9
:10101000B9F5803F20D0B9F5801F37D11AE0B9F576
:10102000001F18D0B9F5041F30D117E0D1F80CC05B
:101030002DE0D1F80C8008F1040C28E0D1F80C80E8
:1010400008F1080C23E0D1F80C8008F10C0C1EE02C
:1010500000BF00BF00BF00BF00BF00BFD1F80880C5
:10106000B8F1000F02D14FF0040C0BE0D1F808806A
:10107000B8F1010F03D14FF0080C1C6102E04FF0F2
:10108000080C5C6103E04FF0000C00E000BF00BF03
:10109000FF2801D8984601E003F104084646FF28DE
:1010A00002D84FEA820803E0A2F108084FEA880854
:1010B0004746D6F800804FF00F0909FA07F928EAE9
:1010C00009080CFA07F900E088E048EA0908C6F8C0
:1010D0000080D1F8048008F08058B8F1805F7DD19D
:1010E00000BFDFF8CC81D8F8188048F00108DFF89D
:1010F000C091C9F81880C846D8F8188008F00108CF
:10110000CDF8008000BF00BF4FEAB9384FEA92091E
:1011100058F829504FEA82784FEA18794FF00F08B3
:1011200008FA09F825EA0805DFF88881434502D165
:101130004FF0000816E0DFF88081434502D14FF000
:1011400001080FE0DFF87481434502D14FF0020837
:1011500008E0DFF86C81434502D14FF0030801E05D
:101160004FF004084FEA82794FEA197908FA09F832
:1011700048EA0505DFF84C814FEA920948F8295002
:10118000D1F8048008F48018B8F5801F0AD1DFF880
:101190003881D8F8008048EA0008DFF82C91C9F8B7
:1011A000008009E0DFF82081D8F8008028EA0008F4
:1011B000DFF81491C9F80080D1F8048008F4001811
:1011C000B8F5001F10D1DFF8008108F10408D8F845
:1011D000008048EA0008DFF8F09000E05AE009F1EA
:1011E0000409C9F800800DE0DFF8DC8008F104088C
:1011F000D8F8008028EA0008DFF8CC9009F104094B
:10120000C9F80080D1F8048008F40038B8F5003F30
:101210000ED1DFF8B480A8F10408D8F8008048EABD
:101220000008DFF8A490A9F10409C9F800800DE0D6
:10123000DFF89480A8F10408D8F8008028EA0008B4
:10124000DFF88490A9F10409C9F80080D1F804807E
:1012500008F48038B8F5803F0ED1DFF86C80A8F133
:101260000808D8F8008048EA0008DFF85C90A9F187
:101270000809C9F800800DE0DFF84C80A8F10808E3
:10128000D8F8008028EA0008DFF83C90A9F10809A6
:10129000C9F80080521CD1F8008028FA02F8B8F191
:1012A000000F7FF489AEBDE8F88700000000111040
:1012B0000010024000080140000C014000100140F5
:1012C00000140140080001400804014002469368F0
:1012D0000B400BB1012000E0002070470AB1016112
:1012E00001E00B040361704701480068704700008B
:1012F00000000020034800680349097808440149B8
:1013000008607047000000200800002010B5084861
:10131000006840F0100006490860032000F0A8F8BB
:101320000F2000F007F800F02BF8002010BD00009F
:101330000020024070B504460E4800784FF47A71E0
:10134000B1FBF0F00C490968B1FBF0F5284600F05C
:10135000A2FE08B1012070BD102C07D20022214648
:10136000501E00F047F80548046001E00120F2E754
:101370000020F0E7080000200C00002004000020FE
:1013800008B500BF1148806940F001000F4988612D
:101390000846806900F00100009000BF00BF00BF58
:1013A0000846C06940F08050C8610846C06900F036
:1013B0008050009000BF00BF00BF0549486820F082
:1013C000E06040F00070486000BF08BD00100240BF
:1013D0000000014001460846002809DB00F01F0319
:1013E00001229A4043099B0003F1E023C3F8002146
:1013F00000BF70472DE9F05F80460D461646002776
:1014000002F0F2FB074639462A46334601F0070050
:10141000C0F1070ABAF1040F02D94FF0040A01E043
:10142000C0F1070AD14600F1040ABAF1070F02D24F
:101430004FF0000A01E0A0F1030AD4464FF0010A80
:101440000AFA09FAAAF1010A0AEA020A0AFA0CFAE5
:101450004FF0010B0BFA0CFBABF1010B0BEA030B8A
:101460004AEA0B042146404602F0C6FBBDE8F09F65
:1014700000BF00F00702064B19684FF6FF03194042
:10148000044B0B4343EA0221014B196000BF704734
:101490000CED00E00000FA0570B504460D460CB9ED
:1014A000012070BD5A48006800F00700A8420ED223
:1014B0005748006820F0070028435549086008464F
:1014C000006800F00700A84201D00120E9E7207879
:1014D00000F0020002281DD1207800F0040004284A
:1014E00005D14C48406840F4E0604A4948602078A3
:1014F00000F00800082805D14648406840F46050D4
:10150000444948604348406820F0F000A16808431F
:1015100040494860207800F0010078B360680128F5
:1015200006D13C48006800F4003090B90120B8E7CB
:101530006068022806D13748006800F0007040B9A2
:101540000120AEE73348006800F0020008B901202E
:10155000A7E73048406820F00300616808432D4940
:101560004860FFF7C1FE064609E0FFF7BDFE801B9D
:1015700041F28831884202D9032092E707E02548EA
:10158000406800F00C006168B0EB810FEDD120489D
:10159000006800F00700A8420ED91D48006820F03E
:1015A000070028431A4908600846006800F0070051
:1015B000A84201D0012074E7207800F0040004283C
:1015C00007D11448406820F4E060E16808431149FD
:1015D0004860207800F00800082808D10D484068CD
:1015E00020F46050216940EAC1000A49486000F0D7
:1015F0003FF808494968C1F30311074A515CC840E4
:101600000649086006480068FFF794FE002048E796
:101610000020024000100240E24500080C000020BB
:101620000400002001480068704700000C00002002
:1016300000B5FFF7F7FF04494968C1F30221034AE7
:10164000515CC84000BD000000100240F245000897
:1016500000B5FFF7E7FF04494968C1F3C221034A17
:10166000515CC84000BD000000100240F245000877
:1016700070B500210022002400230020134D69686A
:1016800001F00C05F5B1042D02D0082D19D101E0AF
:101690000F4819E00F4DC1F38346AB5D01F480356F
:1016A00055B10A4D6D68C5F340450B4E725D084D4E
:1016B0005D43B5FBF2F402E0084D03FB05F4204660
:1016C00002E000BF064800BF00BF70BD001002402E
:1016D000001BB700D0450008E045000800093D00A8
:1016E00000127A00F8B504460CB90120F8BD207844
:1016F00000F00100002878D0F848406800F00C00A5
:1017000004280CD0F548406800F00C00082811D1DE
:10171000F248406800F48030B0F5803F0AD1EF48CD
:10172000006800F4003000285FD0606800285CD1B9
:101730000120DBE700BF6068B0F5803F06D1E748D5
:10174000006840F48030E549086028E0606858B9D6
:10175000E248006820F48030E049086008460068EC
:1017600020F4802008601AE06068B0F5A02F0BD14B
:10177000DA48006840F48020D849086008460068CC
:1017800040F4803008600AE0D448006820F48030DB
:10179000D24908600846006820F48020086000BF35
:1017A000606888B1FFF7A0FD054606E0FFF79CFDE5
:1017B000401B642801D9032098E7C848006800F45A
:1017C00000300028F2D010E0FFF78EFD054606E05D
:1017D000FFF78AFD401B642801D9032086E7BF4834
:1017E000006800F400300028F2D1207800F00200F8
:1017F000022857D1B948406800F00C0050B1B748F2
:10180000406800F00C00082818D1B448406800F483
:10181000803098B9B148006800F0020020B120691A
:10182000012801D0012061E7AC48006820F0F800F1
:10183000616940EAC100A949086033E02069E8B164
:101840000120A7490860FFF74FFD054606E0FFF7B6
:101850004BFD401B022801D9032047E79F48006841
:1018600000F002000028F2D09C48006820F0F80048
:10187000616940EAC1009949086013E00020984975
:101880000860FFF731FD054606E0FFF72DFD401B20
:10189000022801D9032029E79048006800F00200DF
:1018A0000028F2D1207800F0080008282DD1A06986
:1018B000B8B101208B490860FFF716FD054606E028
:1018C000FFF712FD401B022801D903200EE78348D1
:1018D000406A00F002000028F2D0012001F066FE0C
:1018E00013E000207F490860FFF7FEFC054606E094
:1018F000FFF7FAFC401B022801D90320F6E67748DF
:10190000406A00F002000028F2D1207800F00400C4
:10191000042873D100277148C06900F0805070B965
:1019200000BF6E48C06940F080506C49C8610846ED
:10193000C06900F08050009000BF00BF01276A48D6
:10194000006800F48070B0B96748006840F48070A7
:1019500065490860FFF7C8FC054606E0FFF7C4FCD0
:10196000401B642801D90320C0E65F48006800F4EA
:1019700080700028F2D000BFE068012806D15748E7
:10198000006A40F001005549086227E0E06858B954
:101990005248006A20F00100504908620846006A77
:1019A00020F00400086219E0E06805280BD14B48DC
:1019B000006A40F00400494908620846006A40F0A5
:1019C000010008620AE04548006A20F0010043492E
:1019D00008620846006A20F00400086200BFE06860
:1019E000A0B1FFF781FC054609E0FFF77DFC401B35
:1019F00041F28831884202D9032077E622E0374855
:101A0000006A00F002000028EFD012E0FFF76CFC43
:101A1000054608E0FFF768FC401B41F28831884228
:101A200001D9032062E62D48006A00F00200002878
:101A3000F0D1012F05D12948C06920F080502749F5
:101A4000C86100BFE069C8B32448406800F00C00DA
:101A5000082860D0E069022848D1002020490866A3
:101A6000FFF742FC054606E0FFF73EFC401B02285C
:101A700001D903203AE61948006800F000700028F8
:101A8000F2D1206AB0F5803F07D11448406820F4B5
:101A90000030A168084311494860D4E908010843AF
:101AA0000E49496821F4741108430C49486001202B
:101AB0000B490866FFF718FC054607E03DE0FFF715
:101AC00013FC401B022801D903200FE603480068DD
:101AD00000F000700028F2D02FE00000001002405B
:101AE000000042428004424200700040002014493D
:101AF0000866FFF7F9FB054606E0FFF7F5FB401B1C
:101B0000022801D90320F1E50E48006800F00070BA
:101B10000028F2D111E0E069012800D1E6E509488A
:101B2000466806F48031206A814204D106F47011BF
:101B3000606A814201D00120D8E50020D6E500008E
:101B4000000042420010024010B504460CB90120CA
:101B500010BD606A38B96068B0F5827F00D105E0D9
:101B60000021E16102E00021216161610021A162A7
:101B700094F8510028B9002084F85000204600F065
:101B800043F8022084F851002068006820F04000EB
:101B900021680860A08800F48270218901F4044162
:101BA0000843A18901F400610843217C01F002018E
:101BB0000843217D01F001010843218B01F40071EC
:101BC0000843217F01F0380108432021095D01F01D
:101BD00080010843218D01F4005108432168086009
:101BE0000421A06901EA1040216848602068C069AA
:101BF00020F400602168C86100206065012084F83D
:101C000051000020A4E7000010B586B00446002073
:101C100002900390049005901A49206888422FD1C1
:101C200000BF1948C06940F480401749C8610846A0
:101C3000C06900F48040019000BF00BF00BF0846AB
:101C4000806940F0080088610846806900F008005B
:101C5000019000BF00BF4FF420400290022003908B
:101C60000320059002A90948FFF7A0F94FF480402E
:101C7000029000200390049002A90448FFF796F90F
:101C800006B010BD0038004000100240000C0140BA
:101C90002DE9F84304460F4616461D46FFF724FB80
:101CA0008046B14694F85100012802D00220BDE8D8
:101CB000F88307B10EB90120F9E700BF94F850008E
:101CC000012801D10220F2E7012084F8500000BF72
:101CD000032084F85100002060652763A686E6860D
:101CE000A063A087E08760642064A068B0F5004F1F
:101CF0000BD12068006820F040002168086020684F
:101D0000006840F48040216808602068006800F0A6
:101D10004000402805D02068006840F0400021685D
:101D20000860E068B0F5006F37D1606810B1B9F1B4
:101D3000010F09D1206B00882168C860206B801CCE
:101D40002063E08E401EE08623E02068806800F07B
:101D5000020002280AD1206B00882168C860206B2D
:101D6000801C2063E08E401EE08612E0FFF7BCFA84
:101D7000A0EB0800A84201D3681C00B94DB90120AE
:101D800084F8510000BF002084F8500000BF0320F9
:101D90008DE7E08E0028D8D136E0606810B1B9F147
:101DA000010F09D1206B007821680873206B401C5B
:101DB0002063E08E401EE08623E02068806800F00B
:101DC000020002280AD1206B007821680873206B7A
:101DD000401C2063E08E401EE08612E0FFF784FA8C
:101DE000A0EB0800A84201D3681C00B94DB901203E
:101DF00084F8510000BF002084F8500000BF032089
:101E000055E7E08E0028D8D142462946204601F009
:101E1000F1FB08B120206065A06850B900BF002028
:101E200000902068C068009020688068009000BF23
:101E300000BF012084F8510000BF002084F850004A
:101E400000BF606D08B1012031E700202FE72DE9C8
:101E5000FE4F04460F4690461D460C9E0120019001
:101E6000FFF742FA814694F851B060680290AA46A2
:101E7000BBF1010F0BD00298B0F5827F04D1A068AE
:101E800010B9BBF1040F02D00220BDE8FE8F1FB1D4
:101E9000B8F1000F00D00DB90120F6E700BF94F8AB
:101EA0005000012801D10220EFE7012084F8500002
:101EB00000BF94F85100042802D0052084F8510096
:101EC00000206065C4F83880E587A5872763E5862C
:101ED000A586206460642068006800F04000402807
:101EE00005D02068006840F0400021680860E06884
:101EF000B0F5006F52D1606810B1BAF1010F09D18D
:101F0000206B00882168C860206B801C2063E08EF5
:101F1000401EE0863BE02068806800F00200022856
:101F200010D1E08E70B1019801280BD1206B008890
:101F30002168C860206B801C2063E08E401EE08614
:101F4000002001902068806800F0010068B1E08FF7
:101F500058B12068C068A16B0880A06B801CA0638A
:101F6000E08F401EE08701200190FFF7BDF9A0EB54
:101F70000900B0420BD3701C48B1012084F8510015
:101F800000BF002084F8500000BF03207DE7E08EF2
:101F90000028C0D1E08F0028BDD152E0606810B1A8
:101FA000BAF1010F09D1206B007821680873206B0A
:101FB000401C2063E08E401EE0863CE02068806884
:101FC00000F00200022810D1E08E70B101980128C3
:101FD0000BD1206B007821680873206B401C2063B4
:101FE000E08E401EE086002001902068806800F0AE
:101FF000010068B1E08F58B12068C068A16B08701B
:10200000A06B401CA063E08F401EE0870120019080
:10201000FFF76AF9A0EB0900B04201D3701C00B9C8
:102020004EB9012084F8510000BF002084F8500010
:1020300000BF032029E7E08E0028BFD1E08F0028F1
:10204000BCD14A463146204601F0D4FA40B12020A6
:10205000606500BF002084F8500000BF012014E735
:10206000A06850B900BF002000902068C0680090B0
:1020700020688068009000BF00BF012084F85100F4
:1020800000BF002084F8500000BF606D08B101203F
:10209000FBE60020F9E670B504462546681EB0F15F
:1020A000807F01D301200FE0681E4FF0E0214861DE
:1020B0000F214FF0FF3001F09FFD00204FF0E02195
:1020C000886107200861002070BD704770470000DC
:1020D0002DE9F84F0446206805682068C668206826
:1020E00047694FF00009CA4605F00F09B9F1000F22
:1020F0000AD105F0200038B106F0200020B12046BA
:1021000001F0B1FBBDE8F88FB9F1000F7BD007F00B
:10211000010018B906F49070002874D005F0010091
:1021200030B106F4807018B1606C40F0010060645A
:1021300005F0040030B107F0010018B1606C40F008
:102140000200606405F0020030B107F0010018B130
:10215000606C40F00400606405F0080048B106F0CF
:10216000200010B907F0010018B1606C40F00800C1
:102170006064606C002845D005F0200028B106F0AE
:10218000200010B1204601F06EFB20684069C0F3CA
:10219000801A606C00F0080010B9BAF1000F2CD062
:1021A000204601F01AFB2068406900F0400000B3AF
:1021B00000BF00BF2168143151E8001F21F040002A
:1021C0002168143141E80002002AF3D100BFE06B1E
:1021D00050B17748E16B4863E06BFEF755FE88B17C
:1021E000E06B416B88470DE02046FFF76FFF09E089
:1021F00009E02046FFF76AFF04E02046FFF766FF8C
:10220000002060647EE7206B012877D105F0100084
:10221000002873D006F010000028FAD000BF00207C
:10222000009020680068009020684068009000BF1F
:1022300000BF2068406900F0400000285FD0E06BDC
:10224000006840681FFA80F8B8F1000F55D0A08DE3
:10225000404552DDA4F82E80E06B8069202843D0F1
:1022600000BF00BF21680C3151E8001F21F48070CD
:1022700021680C3141E80002002AF3D100BF00BF01
:1022800000BF2168143151E8001F21F001002168CE
:10229000143141E80002002AF3D100BF00BF00BFA3
:1022A0002168143151E8001F21F0400021681431E9
:1022B00041E80002002AF3D100BF202084F8420048
:1022C0000020206300BF00BF21680C3151E8001FCF
:1022D00021F0100021680C3141E80002002AF3D1FE
:1022E00000BFE06BFEF7A4FD02206063A08DE28DCD
:1022F000801A81B22046FFF7E8FE03E742E0A08D96
:10230000E18D401A1FFA80F8E08DD0B3B8F1000FCC
:1023100037D000BF00BF21680C3151E8001F21F405
:10232000907021680C3141E80002002AF3D100BF0F
:1023300000BF00BF2168143151E8001F21F00100E7
:102340002168143141E80002002AF3D100BF2020A7
:1023500084F842000020206300BF00BF21680C31D8
:1023600051E8001F21F0100021680C3141E8000203
:10237000002AF3D100BF0220606341462046FFF7E8
:10238000A4FEBFE605F0800030B106F0800018B171
:10239000204601F085FBB5E605F0400030B106F0BF
:1023A000400018B1204601F04EFAABE600BFA9E6A6
:1023B000C737000810B504460CB9012010BDA0694C
:1023C00000B100E000BF94F8410028B9002084F873
:1023D0004000204600F02AF8242084F841002068BC
:1023E000C06820F400502168C860204601F0BAFAA5
:1023F0002068006920F490402168086120684069E5
:1024000020F02A00216848612068C06840F400502C
:102410002168C86000206064202084F8410084F8AE
:1024200042000020606300BFC8E7000010B586B01E
:102430000446002002900390049005901E492068F5
:10244000884236D100BF1D48806940F480401B4956
:1024500088610846806900F48040019000BF00BF99
:1024600000BF0846806940F0040088610846806922
:1024700000F00400019000BF00BF48150290022048
:1024800003900320059002A90D48FEF78FFD4FF43D
:102490008060029000200390049002A90848FEF793
:1024A00085FD002211462520FEF7A4FF2520FEF71A
:1024B00091FF06B010BD000000380140001002403E
:1024C0000008014070B504460D46164694F84200D7
:1024D00020280BD105B10EB9012070BD002020636A
:1024E00032462946204601F0BBFAF6E70220F4E71F
:1024F00010B5044613492068884222D1124800884A
:102500007F2809DA114801780F4802880088401CAA
:102510000D4B18800E4881540C4800780A2803D0CF
:102520000A4800780D2807D100200949064A128878
:102530008854012007490870012204490648FFF722
:10254000C1FF10BD003801404C0000204A000020AF
:10255000900100204E000020DC0000202DE9F84F03
:1025600004460E46174699464FF0000A94F841007B
:10257000202850D106B117B90120BDE8F88F0020FE
:102580006064212084F84100FEF7AEFE8246A784F5
:10259000E784A068B0F5805F04D1206910B90025F8
:1025A000B04602E035464FF000081EE053460022D8
:1025B00080212046CDF8009001F0A2FA20B1202021
:1025C00084F841000320D8E745B9B8F80000C0F30B
:1025D00008002168486008F1020803E028782168B3
:1025E00048606D1CE08C401EE084E08C0028DDD14A
:1025F0005346002240212046CDF8009001F080FA99
:1026000020B1202084F841000320B6E7202084F880
:1026100041000020B1E70220AFE7704700BFFEE7AE
:1026200010B50120034908700022C1030248FEF7DB
:1026300055FE10BD4F0000200008014010B50B48AA
:102640000B49086010204860002109488160C16082
:1026500001614161017641768176C17601774177EA
:10266000FEF7E8FA08B1FEF7E2FA10BD0064004098
:102670005C00002000B585B000200190029003901E
:10268000049000BF4148806940F020003F498861C4
:102690000846806900F02000009000BF00BF00BF26
:1026A0000846806940F0040088610846806900F0AF
:1026B0000400009000BF00BF00BF0846806940F0E2
:1026C000080088610846806900F00800009000BF9B
:1026D00000BF012248F280012D48FEF7FFFD0122D4
:1026E00041F603412B48FEF7F9FD00220421294859
:1026F000FEF7F4FD00224FF480712548FEF7EEFD51
:1027000040200190244802900120039001A9204814
:10271000FEF74CFC802001900120029000200390E5
:102720000320049001A91A48FEF740FC41F603403B
:10273000019001200290002003900320049001A941
:102740001448FEF733FC0420019001200290002081
:1027500003900220049001A90E48FEF727FC4FF4D5
:10276000014001900120029000200390022004907B
:1027700001A90748FEF71AFC002211461720FEF7B0
:1027800039FE1720FEF726FE05B000BD00100240FE
:1027900000080140000C01400000211010B50F4856
:1027A0000F4908604FF48270486000210C48816036
:1027B000C160022101610121416149028161182149
:1027C000C16100210162416281620A21C162FFF799
:1027D000BBF908B1FEF72BFA10BD0000003800402D
:1027E0008400002010B50B480B4908604FF4E1301D
:1027F0004860002108488160C16001610C2141618D
:1028000000218161C161FFF7D5FD08B1FEF70FFA24
:1028100010BD000000380140DC00002000BFFEE7D2
:1028200000BFFEE72DE9F04704460E4615461F4659
:10283000DDF820A02046E11704EB9171C1F38F046D
:102840002846E91705EB9171C1F38F056A1ED1B2D5
:10285000E0B2FEF7CFF9781EC1B2304600F0BAFE02
:1028600004F0FF0811E0B14609E0504600F084FE94
:10287000504600F081FE09F1010000F0FF09B94562
:10288000F3DB08F1010000F0FF08A845EBDBBDE831
:10289000F087000008B5002280214248FEF71EFDA7
:1028A0000A20FEF7B9F9012280213E48FEF716FD05
:1028B000FD2000F067FE122000F05EFEAE2000F06A
:1028C00061FEB32000F05EFE912000F055FECA20AC
:1028D00000F058FE3F2000F04FFEA22000F052FE14
:1028E000002000F049FEA12000F04CFE002000F086
:1028F00043FEA02000F046FE062000F03DFEB5207D
:1029000000F040FE002000F037FEAB2000F03AFE61
:10291000012000F031FEB42000F034FEA02000F0D1
:102920002BFEFD2000F028FEC12000F02BFEFF2032
:1029300000F022FEC72000F025FE0F2000F01CFE54
:10294000B92000F01FFEB12000F01CFEE22000F0D4
:1029500013FED12000F016FE822000F00DFE202094
:1029600000F00AFEBB2000F00DFE1F2000F004FE68
:10297000B62000F007FE082000F0FEFDBE2000F0AB
:1029800001FE072000F0F8FDA62000F0FBFD00206E
:1029900040239A0001460090FFF744FFAF2000F06B
:1029A000F1FD08BD000801402DE9FF4F87B0064644
:1029B00089461C46042005904FF0000A2046E21785
:1029C00004EB127212112146E31704EB13731B116F
:1029D000A4EB03130BB1012300E000231A4462436C
:1029E000D2B204920998203800F0FF08B346F217DB
:1029F00006EB92729210E31704EB537302EBE302BF
:102A0000521ED1B2F21706EB9272C2F38700CDE9E3
:102A10000164FEF7EFF809EB0400401EC1B248461E
:102A200000F0D8FD002565E0102C05D1344800EBFE
:102A30000810405D03901AE0182C07D108EB4800FD
:102A4000304901EB0010405D039010E0202C05D1CF
:102A50002D4800EB8810405D039008E00C2C06D157
:102A600008EB4800294901EB8000405D0390E11725
:102A700004EB11710911A4EB011191B12046E1178A
:102A800004EB11710911491CC9B20691069995FB15
:102A9000F1F001FB105010B10220059001E004207C
:102AA0000590002721E0002000EB4701012088402D
:102AB0000399084008B14FF0F00A012000EB4701EC
:102AC00088400399084008B14AF00F0A149828B1C9
:102AD0006FEA0A01C8B200F04FFD02E0504600F074
:102AE0004BFD4FF0000A781CC7B205988742DADB2D
:102AF000681CC5B20498854296DB0BB0BDE8F08F28
:102B00006E4A00085E5000082E620008FA45000870
:102B10002DE9F8430746884616461C46089D2CE0DA
:102B2000102C07D12346324641463846009500F026
:102B3000DFF81FE00C2C07D12346324641463846C9
:102B4000009500F01FF815E0182C07D123463246F7
:102B500041463846009500F067F90BE0202C07D17C
:102B60002346324641463846009500F001FA01E01E
:102B7000BDE8F883B61C3819C7B230780028CFD129
:102B800000BFF5E72DE9FF4F83B005468B46994618
:102B9000002716200290AA46EA1705EB92729210BF
:102BA0004FEAE97309EB937302EBA302521ED1B211
:102BB000EA1705EB9272C2F38700CDE90059FEF7E0
:102BC00019F80BEB0900401EC1B2584600F002FD97
:102BD000B84682E008EB880000EBC800434911F8D2
:102BE000101005980078814273D108EB880000EB43
:102BF000C8003E4901EB4000417805984078814289
:102C000067D1002661E008EB880000EBC800374977
:102C100001EB4000801C10F81600019000241FE01A
:102C20000027002000EB4401012088400199084062
:102C300008B147F0F007012000EB440188400199FA
:102C4000084008B147F00F07109820B1F943C8B207
:102C500000F092FC02E0384600F08EFC601CC4B22A
:102C6000042CDDDB08EB880000EBC8001F4901EBFA
:102C70004000801C012101EB460110F801A0002456
:102C80001FE00027002000EB44010120884000EAFB
:102C90000A0008B147F0F007012000EB440188402A
:102CA00000EA0A0008B147F00F07109820B1F94375
:102CB000C8B200F061FC02E0384600F05DFC601C28
:102CC000C4B2022CDDDB701CC6B20C2E9BDB08E00C
:102CD000FFE708F1010000F0FF0802988045FFF6C9
:102CE00079AF00BF07B0BDE8F08F0000EE790008B3
:102CF0002DE9F04F85B00546894692461C460020D6
:102D000004902046E21704EB5272D2102146E317DA
:102D100004EB5373DB10A4EBC3030BB1012300E0FE
:102D200000231A44624392B2029202200390AB46FF
:102D3000EA1705EB92729210E31704EB937302EB20
:102D4000A302521ED1B2EA1705EB9272C2F38700BA
:102D5000CDE90054FDF74EFF09EB0400401EC1B25F
:102D6000484600F037FC002655E006EB06102D49DA
:102D700011F810009AF80010884249D106EB0610AD
:102D8000284901EB400040789AF8011088423FD171
:102D90004FF0000839E0002731E006EB061021492A
:102DA00001EB4000801C10F80800002101EB4702F5
:102DB00001219140084008B1F020049006EB061074
:102DC000184901EB4000801C10F80800012101EBBC
:102DD00047029140084018B1049840F00F00049059
:102DE0000E9828B10499C943C8B200F0C5FB02E0AF
:102DF000049800F0C1FB00200490781CC7B2042F97
:102E0000CBDB08F1010000F0FF0802988045C2DB2F
:102E100000BF701CC6B203988642A6DB05B0BDE8B1
:102E2000F08F00002A7C00082DE9F04F85B00546A0
:102E3000894692461C46002004902046E21704EB87
:102E40005272D2102146E31704EB5373DB10A4EB4C
:102E5000C3030BB1012300E000231A44624392B282
:102E6000029201200390AB46EA1705EB9272921092
:102E7000E31704EB937302EBA302521ED1B2EA17DD
:102E800005EB9272C2F38700CDE90054FDF7B2FE64
:102E900009EB0400401EC1B2484600F09BFB00262F
:102EA0005DE006EB860000EB4610304911F810009B
:102EB0009AF8001088424FD106EB860000EB4610CE
:102EC0002A4901EB400040789AF80110884243D12A
:102ED0004FF000083DE0002735E006EB860000EBF0
:102EE0004610224901EB4000801C10F80800002128
:102EF00001EB470201219140084008B1F020049005
:102F000006EB860000EB4610184901EB4000801CE0
:102F100010F80800012101EB47029140084018B168
:102F2000049840F00F0004900E9828B10499C9430A
:102F3000C8B200F021FB02E0049800F01DFB002065
:102F40000490781CC7B2042FC7DB08F1010000F021
:102F5000FF0802988045BEDB00BF701CC6B2039814
:102F600086429EDB05B0BDE8F08F00006E7C000855
:102F70002DE9F04F85B00546894692461C46002053
:102F800004902046E21704EB5272D2102146E31758
:102F900004EB5373DB10A4EBC3030BB1012300E07C
:102FA00000231A44624392B2029206200390AB4679
:102FB000EA1705EB92729210E31704EB937302EB9E
:102FC000A302521ED1B2EA1705EB9272C2F3870038
:102FD000CDE90054FDF70EFE09EB0400401EC1B21E
:102FE000484600F0F7FA002655E006EB86102D491A
:102FF00011F810009AF80010884249D106EB8610AB
:10300000284901EB400040789AF8011088423FD1EE
:103010004FF0000839E0002731E006EB8610214927
:1030200001EB4000801C10F80800002101EB470272
:1030300001219140084008B1F020049006EB861071
:10304000184901EB4000801C10F80800012101EB39
:1030500047029140084018B1049840F00F000490D6
:103060000E9828B10499C943C8B200F085FA02E06D
:10307000049800F081FA00200490781CC7B2042F55
:10308000CBDB08F1010000F0FF0802988045C2DBAD
:1030900000BF701CC6B203988642A6DB05B0BDE82F
:1030A000F08F0000B87C00082DE9F84306460F4673
:1030B00014461D46DDF820800EE0CDF80080227811
:1030C0002B4639463046FFF76FFC641C284605EB5B
:1030D000D07106EB6101CEB220780028EDD1BDE8B9
:1030E000F88300002DE9F04F8FB0C948807C032899
:1030F00002DCC748807C00E000208246C54850F8CA
:103100002A50C348C07C032802DCC148C07C00E0D0
:1031100000208346BF4850F82B90BD49C868BE497F
:10312000FDF730F901D2032410E0B949C868BB4962
:10313000FDF728F901D2022408E0B549C868B8496A
:10314000FDF720F901D2012400E00024B048007A04
:1031500008B12A2600E07E26032C0BD1AC49086872
:10316000FDF7E5F832468DE82300AEA107A800F090
:1031700027FD26E0022C0BD1A5490868FDF7D7F8FA
:1031800032468DE82300ABA107A800F019FD18E036
:10319000012C0BD19E490868FDF7C9F832468DE82D
:1031A0002300A8A107A800F00BFD0AE098490868D1
:1031B000FDF7BDF832468DE82300A6A107A800F070
:1031C000FFFC0020182307AA01460090FFF76CFFC0
:1031D000032C0CD18E494868FDF7A9F807463A46FA
:1031E0000B46A0A107A8009500F0EAFC29E0022CFC
:1031F0000CD187494868FDF79AF807463A460B46CE
:103200009CA107A8009500F0DBFC1AE0012C0CD172
:103210007F494868FDF78BF807463A460B4699A167
:1032200007A8009500F0CCFC0BE079494868FDF751
:103230007EF807463A460B4696A107A8009500F08F
:10324000BFFC0020182307AA194600901846FFF774
:103250002BFF6F48007D40B101200C2391A2182163
:1032600000900020FFF754FC06E000200C238FA202
:1032700018210090FFF718FF00200C238DA23221A7
:103280000090FFF745FC624842894B468BA107A896
:1032900000F096FC0020102307AA3021009018208F
:1032A000FFF702FF00200C2386A2322100904C2061
:1032B000FFF72EFC032C0BD15549C868FDF737F8F2
:1032C00007463A460B4681A107A800F079FC26E0A4
:1032D000022C0BD14E49C868FDF729F807463A463B
:1032E0000B467CA107A800F06BFC18E0012C0BD169
:1032F0004749C868FDF71BF807463A460B4677A1D1
:1033000007A800F05DFC0AE04149C868FDF70FF826
:1033100007463A460B4673A107A800F051FC00206F
:10332000102307AA302100907020FFF7BDFE002077
:103330000C236EA232210090A020FFF7E9FB344855
:10334000407A40B100200C236AA232210090B820BC
:10335000FFF7DEFB07E001200C2367A2322100907B
:10336000B820FFF7D5FB002010237C2201460090F7
:10337000C820FFF719FB002010237C22194600907B
:10338000C820FFF711FB002010237C222021009091
:10339000C820FFF709FB002010237C223021009079
:1033A000C820FFF701FB00200C2354A20421009049
:1033B000D820FFF7ADFB1648027C52A103A800F00D
:1033C000FFFB0020102303AA12210090D820FFF752
:1033D0006BFE00200C234DA224210090D820FFF783
:1033E00097FB0B48407C40B100200C2341A23221C6
:1033F0000090E020FFF78CFB07E001200C233EA2A9
:1034000032210090E020FFF783FB0FB0BDE8F08F82
:103410002000002010000020BC74133CEC51B83D8B
:103420006666663F256320422F473A25372E33666E
:1034300020257300256320422F473A25372E326618
:1034400020257300256320422F473A25372E316609
:1034500020257300256320422F473A25372E3066FA
:10346000202573004E65743A25372E336620257368
:10347000000000004E65743A25372E326620257311
:10348000000000004E65743A25372E316620257302
:10349000000000004E65743A25372E3066202573F3
:1034A00000000000B1A8BEAF0000000020202020D6
:1034B00000000000C1BFB3CC000000003A25642525
:1034C00073200000B7D6B6C8D6B500003A252E3313
:1034D000662000003A252E32662000003A252E3163
:1034E000662000003A252E3066200000C1E3B5E3D7
:1034F00000000000A1CC0000A1C10000C9E8B1B8E3
:10350000BAC500002530336400000000CDA8D0C546
:103510000000000070B50446002201211548FDF7A7
:10352000DDFE00251DE000224FF480611148FDF70B
:10353000D5FE04F0800028B10122D1020D48FDF72C
:10354000CDFE05E000224FF400610A48FDF7C6FEFB
:10355000012291020748FDF7C1FE6006040E681CB7
:10356000C5B2082DDFDB012211460248FDF7B6FE89
:1035700070BD0000000C014010B504462046FFF766
:10358000C9FF10BD10B50446002202210548FDF711
:10359000A5FE2046FFF7BEFF012202210148FDF7EC
:1035A0009DFE10BD000C01407047000008B50849A1
:1035B0000968C9084FF47A72B1FBF2F141430091F6
:1035C00000BF00BF00994A1E00920029F9D108BD32
:1035D0000C00002070B505460C467520FFF7D2FFA1
:1035E0002846FFF7C9FF2046FFF7C6FF5C20FFF71C
:1035F000C9FF70BDF8B504460E4615463346012294
:1036000002212046009500F017F828B1606D40F0C7
:10361000200060650320F8BD33460022802120464B
:10362000009500F009F828B1606D40F02000606559
:103630000320F0E70020EEE72DE9F84F04460D46A1
:1036400090461E46DDF82890FDF74EFEA0EB0900DF
:10365000371AFDF749FE82462C480068C0F3CB308C
:103660007843009045E0701C002842D0FDF73CFEF6
:10367000A0EB0A00B84200D2A7BB2068406820F047
:10368000E000216848606068B0F5827F0DD1A068D5
:10369000B0F5004F03D0A068B0F5806F05D1206869
:1036A000006820F0400021680860A06AB0F5005F63
:1036B0000DD100BF2068006820F400502168086028
:1036C0002068006840F400502168086000BF0120B5
:1036D00084F8510000BF002084F8500000BF032090
:1036E000BDE8F88FFFE7009800B900270098401E5A
:1036F0000090206880682840A84201D1012000E0A5
:1037000000204045AFD10020EAE700000C00002077
:10371000704700004FF40000064908600648486002
:1037200000210648034AC2E9021000201146086140
:103730007047000078010020A0868100006AE84000
:1037400010B5012202490348FEF7BCFE10BD00007F
:103750004A000020DC00002010B5FDF7CBFD10BDB5
:1037600000B58FB0282105A8FCF7F5FC14216846A8
:10377000FCF7F1FC01200590000406900020079062
:103780000120099002200C90C1030D91C1040E91FB
:1037900005A8FDF7A7FF08B1FDF749FA0F20009033
:1037A00002200190002002904FF4806003900020DE
:1037B000049002216846FDF76FFE08B1FDF737FA65
:1037C0000FB000BD704770B505466C6A0020E085FB
:1037D000E0842046FEF77AFC70BD00BF00BF02689F
:1037E0000C3252E8002F22F4907102680C3242E849
:1037F0000013002BF3D100BF00BF00BF02681432DA
:1038000052E8002F22F001010268143242E800134E
:10381000002BF3D100BF016B01290ED100BF00BF07
:1038200002680C3252E8002F22F0100102680C32BC
:1038300042E80013002BF3D100BF202180F8421092
:1038400000210163704710B504462068C06820F06D
:1038500040002168C860202084F841002046FEF71F
:10386000DCFE002010BDF8B5044694F84200222882
:1038700075D1A068B0F5805F0CD1206950B90025E2
:10388000A66A20684068C0F308003080A06A801CE7
:10389000A06215E0A56A0026A068B0F5805F03D09D
:1038A000A06828B9206918B920684068287004E029
:1038B0002068406800F07F002870A06A401CA06269
:1038C000E08D401E80B2E085002846D12068C068A7
:1038D00020F020002168C8602068C06820F4807053
:1038E0002168C8602068406920F0010021684861B3
:1038F000202084F8420000206063206B012826D13C
:103900000020206300BF00BF21680C3151E8001F78
:1039100021F0100021680C3141E80002002AF3D1A7
:1039200000BF2068006800F0100010280AD100BF16
:103930000020009020680068009020684068009097
:1039400000BF00BFA18D2046FEF7BFFB02E020466E
:10395000FEF7CEFD0020F8BD01E00020FBE70220CD
:10396000F9E7000070B504462168096921F4405167
:10397000E2681143226811612269A16811436269FA
:1039800041EA02052168C96841F20C62914329436A
:103990002268D1602168496921F44071A26911430C
:1039A000226851612D4A2168914202D1FDF750FEF3
:1039B00001E0FDF73DFE00EBC00101EB0011626884
:1039C0009200B1FBF2F100EBC00202EB001263685F
:1039D0009B00B2FBF3F26423B2FBF3F202EBC203EF
:1039E00003EB0212A1EB8201322202EB01116422ED
:1039F000B1FBF2F101F0F00100EBC00202EB0012AA
:103A000063689B00B2FBF3F26423B2FBF3F201EBB9
:103A1000021200EBC00101EB001163689B00B1FBD7
:103A2000F3F100EBC00303EB00136668B600B3FBD1
:103A3000F6F36426B3FBF6F303EBC30606EB0313BE
:103A4000A1EB8301322303EB01116423B1FBF3F1FA
:103A500001F00F0111442268916070BD00380140EF
:103A600010B5034699629A85DA85002058642220B1
:103A700083F84200186928B11868C06840F4807063
:103A80001C68E0601868406940F001001C686061D3
:103A90001868C06840F020001C68E060002010BD7D
:103AA000014691F84100212828D18868B0F5805F4F
:103AB0000BD1086948B90A6A1088C0F308000B687E
:103AC0005860086A801C086205E00B6A581C08628E
:103AD00018780B685860C88C401E80B2C88458B9EA
:103AE0000868C06820F080000B68D8600868C0686B
:103AF00040F040000B68D860002070470220FCE7CF
:103B00002DE9F84304460D4617469846089E31E0D5
:103B1000701C70B3FDF7E8FBA0EB0800B04200D8C2
:103B200016B90320BDE8F8832068C06800F00400DF
:103B3000F8B1802D1ED0402D1CD020680068C0F345
:103B4000C000B0B100BF0020009020680068009065
:103B500020684068009000BF00BF2046FFF73DFE90
:103B60000820606400BF002084F8400000BF0120EE
:103B7000D8E7FFE7206800682840A84201D101206B
:103B800000E00020B842C3D00020CBE710B50248C7
:103B9000FEF79EFA10BD0000DC00002000BFFEE72B
:103BA0000FB4054B10B503A9044A029800F00AF9B6
:103BB00010BC5DF814FB0000D5440008580000203C
:103BC0000FB4084B10B504A902AA039800F0FAF844
:103BD000044602A9002000F078FC204610BC5DF8E5
:103BE00014FB0000CB44000802480068C0F3022028
:103BF000704700000CED00E010B5002804DB0A0758
:103C0000130E054A135406E00A07140E034A00F087
:103C10000F031B1FD45410BD00E400E018ED00E0BA
:103C200002E008C8121F08C1002AFAD17047704785
:103C3000002001E001C1121F002AFBD170470000E3
:103C40002DE9FF5F82B00021DDE90430020DDDF8CF
:103C500040B0034318D044F61050A2F2FF32424362
:103C60001514119801281FD0A5EB0B00401C5FEA2A
:103C7000000A4FF000064E4FDFF83891B04650462C
:103C800015D5CAF1000413E0119801244AA30128B4
:103C900001D16FEA0B010298119AC0E90031C0E925
:103CA000024206B0BDE8F09FCBF10000DFE704461A
:103CB0000021404A491842EB0450CDE9001012E0BF
:103CC000E00707D032463B4640464946FCF74EFAED
:103CD0008046894632463B4610461946FCF746FA6E
:103CE00006460F466410002CEAD1DDE90401DDE947
:103CF0000023BAF1000F06DAFCF738FA42464B46C9
:103D0000FCF734FA05E0FCF7A3FA42464B46FCF711
:103D10009FFA04460E460022284BFCF71BFB03D8F3
:103D20004FF0FF30014607E00022254B2046314688
:103D3000FCF7D6FBFCF77BFC102409E0002C0ADB27
:103D40000A220023FCF73EFB039B30321A55641E07
:103D500050EA0102F2D1641C039AC4F11103144425
:103D6000119A012A03D0012208430DD10AE0084329
:103D700004D000204FF0110B119072E7A3EB0B055C
:103D80006D1E0DE05B4504DD4FF0000205F10105FD
:103D900004E003DA4FF00002A5F10105002AECD09F
:103DA00002981199C0E90231C0E9004579E70000A5
:103DB000000014400000F03F300000000000F0431D
:103DC0000000E03F2DE9FF4F95B09A468846064631
:103DD0000025EEE1252877D100242746F94A012164
:103DE000039400E0044316F8013F203B01FA03F07E
:103DF0001042F7D130782A2811D06FF02F03307895
:103E0000A0F13002092A16D8039A44F0020402EB0A
:103E1000820203EB42021044761C0390EFE758F84D
:103E2000042B0392002A03DA504244F40054039016
:103E300044F00204761C30782E2816D116F8010FB3
:103E400044F004042A280DD06FF02F023078A0F13E
:103E50003003092B09D807EB870302EB4303C7188C
:103E6000761CF3E758F8047B761C30786C280FD06A
:103E700006DC4C2817D068280DD06A2814D104E03D
:103E8000742810D07A280FD10DE044F400140AE011
:103E900044F4801401E044F440147278824202D168
:103EA00004F58014761C761C307866280BD013DC61
:103EB000582877D009DC002875D04528F6D0462848
:103EC000F4D047281AD193E118E0632835D064284C
:103ED00079D0652812D18BE1702873D008DC67286F
:103EE000F1D069286FD06E280DD06F2806D1ACE0D4
:103EF00073282CD0752874D0782853D0524617993F
:103F000090476D1C54E1C4F30250022809D00328E5
:103F10000DD0D8F8001004280DD00D6008F1040869
:103F200046E1D8F80010EA17C1E90052F6E7D8F8E0
:103F300000100D80F2E70D70F0E718F8041B8DF803
:103F4000001000208DF80100EB46012003E058F836
:103F500004BB4FF0FF3061074FF0000102D40DE0C9
:103F600009F101018946B9420FDA8145F8DB1BF8F6
:103F700009100029F4D108E009F1010189468142C4
:103F8000FADB1BF809100029F6D103985346A0EB81
:103F9000090721463846179A00F080FA284400EBBA
:103FA000090507E044E008E10DE01BF8010B52466B
:103FB00017999047B9F10109F7D25346214638467F
:103FC000179AF2E039E00A21C4F302524FF0000BD5
:103FD0000091022A06D058F8040BC117032A09D011
:103FE0000AE023E008F1070020F00702F2E80201EE
:103FF000904605E000B2C117042A01D140B2C117B2
:10400000002906DA0A460021404261EB02012D2216
:1040100002E0220504D52B228DF80420012203E0C2
:10402000E20701D02022F7E7914657E00A2100E09D
:1040300010214FF0000B00910BE010214FF0000B0E
:1040400044F004040827009103E008204FF0000B1F
:104050000090C4F30252022A05D058F8040B002144
:10406000032A08D008E008F1070020F00702F2E870
:104070000201904603E080B2042A00D1C0B24FF0A2
:10408000000922072AD53278702A07D0DDF800C04F
:104090008CF0100C5CEA0B0C05D00EE040228DF881
:1040A0000420012208E050EA010306D030238DF8F5
:1040B00004308DF8052002229146009B83F008030E
:1040C00053EA0B030AD150EA010201D1620705D578
:1040D00030228DF804204FF001097F1E3278582AD3
:1040E00004D039A20C920CAA02920BE03BA2F9E791
:1040F0005B46009AFCF766F90C9B9B5C029A521E89
:104100000292137050EA0102F2D1029804A9081A2F
:1041100000F1200B600702D524F4803400E0012771
:104120005F4502DDA7EB0B0000E0002000EB0B0178
:10413000009003984944401A0390E00306D4534684
:104140002146179A039800F0A9F90544002706E0D4
:1041500001A85246C05D179990476D1C7F1C4F45C2
:10416000F6DBE0030CD553462146179A039800F07E
:1041700095F9054404E030205246179990476D1C8C
:104180000099481E00900029F5DC08E00298029989
:1041900052460078491C0291179990476D1CBBF15B
:1041A0000001ABF1010BF1DC5BE100F065F90544C6
:1041B000761C307800287FF40DAE19B02846BDE893
:1041C000F08F0000092801003031323334353637A2
:1041D0003839616263646566000000003031323353
:1041E00034353637383941424344454600000000F3
:1041F000600700D4062708F1070020F00700F0E868
:104200000223804603F0004C5FEA0C0001D097A027
:1042100009E0200501D596A005E0E00701D095A0B2
:1042200001E0AFF24C001390307823F00043652892
:104230000CD006DC452809D046281DD047287FD160
:104240003BE0662818D067287AD136E00021112F8C
:1042500001DB112000E0781CCDE9000104A90CA8C5
:10426000FFF7EEFCDDE90D010C9A4FF0000B07F1B2
:104270000109109200914EE04FF000400097CDE907
:10428000011004A90CA8FFF7DBFCDDE90D020C9B73
:104290000F994FF0000B91461093009211B9791CC1
:1042A00000EB0109B7EB090003D4C0F1FF3B07F1B4
:1042B0000109A9EB0700019042E0012F00DA012774
:1042C0000021112F01DD112000E03846CDE9000169
:1042D00004A90CA8FFF7B4FCDDE90D010C9A0091CC
:1042E0004FF0000BB946109221070FD4009A4A45AF
:1042F00003DA914601E0A9F10109B9F1010F05DDE9
:10430000109AA9F10101515C3029F4D0B84202DAC7
:1043100010F1040F03DA0121CDE9011010E00028AB
:1043200003DC8344A9EB000102E0411C494500DDA8
:104330008946A0EB0B00401C01904FF0004002901A
:10434000200705D40198484502DB4FF0FF3001906B
:1043500000208DF84B0002980DF14B07B0F1004F93
:1043600025D002200C902B200D90029800280CDA0A
:10437000404202902D200D9007E00A210298FCF7A0
:104380000BF83031029007F8011D0C99481E0C9073
:104390000029F2DC02980028EFD1791E0D980870F0
:1043A000307800F0200040F0450007F8020D11A819
:1043B000C01BC01D02901398007800B1012000EBD3
:1043C0000901019801EBE071029801440398401A39
:1043D000401E0390E00306D453462146179A0398E3
:1043E00000F05CF805441398007818B1524617990C
:1043F00090476D1CE00323D553462146179A039836
:1044000000F04CF805441BE0BBF1000F07DB0098FF
:10441000584504DD1098179910F80B0001E0179922
:1044200030205246904701980BF1010B401E05F1D8
:104430000105019004D12E205246179990476D1C1A
:10444000B9F10001A9F10109DEDC05E017F8010B63
:104450005246179990476D1C0299481E02900029F8
:10446000F4DC53462146179A03989EE62D0000007F
:104470002B000000200000002DE9F041044600253B
:104480001E461746880404D405E039462020B0476C
:104490006D1C641EF9D52846BDE8F0812DE9F04178
:1044A000044600251E469046C80301D5302700E08B
:1044B0002027880404D505E041463846B0476D1CE6
:1044C000641EF9D52846BDE8F0810A68531C0B60CC
:1044D0001070704713B50C464FF0FF330122694648
:1044E0000248FEF73BF800981CBD0000DC000020ED
:1044F00008B5FCF70BFFFFF733F9FEF7BBF8FEF743
:104500009DF8FEF74BF9FEF76DF9002040239A0065
:1045100001460090FEF786F90020102318A21C2106
:1045200000903820FEF7C0FD4FF4FA70FCF774FBE2
:10453000FFF706F917A0FFF733FBFEF7ABF9FEF71D
:104540006FF8FCF705FAFCF74FFBFCF761F9FFF792
:10455000E1F8002010231CA21C2100906820FEF727
:10456000A3FD4FF4FA70FCF757FB002040239A009C
:1045700001460090FEF756F901E0FEF7B3FDFCE7B7
:10458000506F776572204F6E2053656C66205465BE
:104590007374000053797374656D20426F6F7420DB
:1045A0004F4B2120486967682050726563697369C1
:1045B0006F6E205363616C65205374617274696E11
:1045C000672E2E2E0D0A000046696E697368000082
:1045D00002030405060708090A0B0C0D0E0F101044
:1045E00001020000000000000000010203040607B1
:1045F00008090000000001020304000000000000A0
:104600000000000000000000040404040400000492
:10461000000014140A000000000000000000000068
:104620000A0A1F0A0A1F0A0A000000040E150506DE
:104630000C14150E0400000012150D152E2C2A1254
:1046400000000000040A0A361515291600000202AF
:10465000010000000000000000001008080404042D
:1046600004040808100002040408080808080404E8
:10467000020000000004150E0E15040000000000EA
:104680000008083E080800000000000000000000CC
:1046900000000202010000000000003F00000000D6
:1046A00000000000000000000000000200000020E8
:1046B0001010080804040202010000000E1111117C
:1046C0001111110E00000000040604040404040E7D
:1046D000000000000E1111080402011F000000007C
:1046E0000E11100C1010110E00000000080C0C0A26
:1046F000091F081C000000001F01010F1110110EFE
:10470000000000000C12010D1311110E000000003A
:104710001E10080804040404000000000E11110E0D
:104720001111110E000000000E11111916100906CA
:104730000000000000000400000000040000000071
:10474000000000040000000404000000100804023F
:10475000020408100000000000003F003F000000BD
:10476000000000000204081010080402000000000D
:104770000E11110804040004000000001C22292D61
:104780002D1D221C0000000004040C0A0A1E123316
:10479000000000000F12120E1212120F0000000093
:1047A0001E1101010101110E000000000F12121272
:1047B0001212120F000000001F120A0E0A02121F2E
:1047C000000000001F120A0E0A020207000000008B
:1047D0001C1201013911120C000000003312121ECC
:1047E00012121233000000001F0404040404041F0A
:1047F000000000003E080808080808080907000033
:1048000037120A060A1212370000000007020202DD
:104810000202223F000000003B1B1B1B1515153533
:10482000000000003B1216161A1A121700000000B2
:104830000E1111111111110E000000000F12120EB5
:1048400002020207000000000E1111111117190ECB
:10485000180000000F12120E0A121237000000009A
:104860001E1101060810110F000000001F1504049E
:104870000404040E00000000331212121212120C73
:10488000000000003312120A0A0C040400000000A9
:10489000151515150E0A0A0A000000001B0A0A0465
:1048A000040A0A1B000000001B0A0A0A0404040E82
:1048B000000000001F0908040402121F00001C046D
:1048C00004040404040404041C000002020404049C
:1048D0000808081010000E0808080808080808084A
:1048E0000E00040A000000000000000000000000AC
:1048F0000000000000000000003F02040000000073
:1049000000000000000000000000000C121C123C1F
:10491000000000030202020E1212120E000000003C
:104920000000001C1202120C000000181010101CD5
:104930001212123C000000000000000C121E021CAB
:10494000000000182404041E0404041E00000000DB
:104950000000003C120C021C221C00030202020E8A
:104960001212123700000004040000060404040EB2
:10497000000000080800000C0808080808070003E9
:104980000202021A0A060A130000000704040404C3
:104990000404041F000000000000000F1515151589
:1049A000000000000000000F12121237000000008B
:1049B0000000000C1212120C000000000000000F9A
:1049C0001212120E020700000000001C1212121C2C
:1049D000103800000000001B060202070000000063
:1049E0000000001E020C101E000000000004041E47
:1049F0000404041C000000000000001B1212123C02
:104A0000000000000000001B0A0A0404000000006F
:104A100000000015150E0A0A000000000000001B2F
:104A20000A040A1B000000000000003312120C08E8
:104A3000040300000000001E0804041E0000180803
:104A40000808080C080808081800080808080808DA
:104A500008080808080806040404040804040404F8
:104A60000600160900000000000000000000000021
:104A70000000000000000000000000000000000036
:104A80000008080808080808000018180000004876
:104A90006C24120000000000000000000000000074
:104AA000002424247F1212127F1212120000000030
:104AB000081C2A2A0A0C1828282A2A1C0808000080
:104AC0000022251515152A585454542200000000C0
:104AD000000C1212120A76252911916E00000006B0
:104AE0000604030000000000000000000000004079
:104AF00020101008080808080810102040000002C4
:104B0000040808101010101010080804020000001B
:104B1000000008086B1C1C6B080800000000000067
:104B20000000080808087F080808080000000000C6
:104B30000000000000000000000006060403000062
:104B4000000000000000FE00000000000000000067
:104B50000000000000000000000006060000000049
:104B600080404020201010080804040202000000C9
:104B700000182442424242424242241800000000EF
:104B800000080E08080808080808083E0000000091
:104B9000003C4242422020100804427E00000000F7
:104BA000003C4242201820404042221C00000000ED
:104BB00000203028242422227E20207800000000BB
:104BC000007E0202021A26404042221C0000000021
:104BD00000382402021A2642424224180000000033
:104BE000007E2222101008080808080800000000B3
:104BF000003C4242422418244242423C0000000051
:104C000000182442424264584040241C0000000026
:104C10000000000018180000000018180000000034
:104C20000000000000080000000000080804000068
:104C3000004020100804020408102040000000007A
:104C4000000000007F0000007F0000000000000066
:104C50000002040810204020100804020000000098
:104C6000003C42424640201010001818000000008E
:104C7000001C225A555555552D42221C000000009B
:104C8000000808181414243C224242E700000000E7
:104C9000001F2222221E22424242221F0000000048
:104CA000007C4242010101010142221C000000007F
:104CB000001F2242424242424242221F00000000A4
:104CC000003F4212121E12120242423F0000000038
:104CD000003F4212121E12120202020700000000E0
:104CE000003C2222010101712122221C000000004F
:104CF00000E7424242427E42424242E70000000058
:104D0000003E0808080808080808083E00000000DF
:104D1000007C10101010101010101010110F000057
:104D2000007722120A0E0A121222227700000000D7
:104D300000070202020202020202427F000000009B
:104D40000077363636362A2A2A2A2A6B00000000D7
:104D500000E346464A4A525252626247000000004F
:104D6000001C2241414141414141221C0000000000
:104D7000003F424242423E0202020207000000009F
:104D8000001C2241414141414D53321C6000000052
:104D9000003F4242423E1212222242C7000000005F
:104DA000007C4242020418204042423E00000000C3
:104DB000007F4908080808080808081C00000000CF
:104DC00000E74242424242424242423C000000006E
:104DD00000E74242222424141418080800000000AE
:104DE000006B4949494955553622222200000000EE
:104DF00000E7422424181818242442E70000000089
:104E000000772222141408080808081C000000007B
:104E1000007E2120101008040442423F0000007868
:104E200008080808080808080808080878000000AA
:104E30000202040408080810102020204040001E30
:104E40001010101010101010101010101E0000384C
:104E5000440000000000000000000000000000000E
:104E600000000000000000000000000000FF00063D
:104E7000080000000000000000000000000000002A
:104E800000000000003C4278444242FC0000000068
:104E900000030202021A26424242261A00000000C3
:104EA0000000000000384402020244380000000004
:104EB0000060404040784442424264D80000000014
:104EC00000000000003C427E0202423C0000000064
:104ED00000F08808087E08080808083E0000000066
:104EE00000000000007C22221C023C42423C0000E8
:104EF00000030202023A4642424242E7000000003A
:104F0000000C0C00000E08080808083E0000000015
:104F1000003030000038202020202020221E0000F9
:104F2000000302020272120A161222770000000029
:104F3000000E0808080808080808083E00000000DD
:104F400000000000007F9292929292B70000000051
:104F500000000000003B4642424242E700000000E1
:104F600000000000003C42424242423C000000007F
:104F700000000000001B26424242221E02070000E1
:104F800000000000007844424242447840E00000C3
:104F90000000000000774C040404041F000000001F
:104FA00000000000007C42023C40423E0000000045
:104FB00000000008083E080808080830000000004B
:104FC0000000000000634242424262DC0000000038
:104FD0000000000000E7422424140808000000003C
:104FE0000000000000EB4949555522220000000056
:104FF00000000000007624181818246E000000003D
:105000000000000000E742242414180808070000EC
:1050100000000000007E22100808447E000000C04E
:10502000202020202010202020202020C000101030
:10503000101010101010101010101010101000068A
:1050400008080808081008080808080806000C32B4
:10505000C20000000000000000000000000000008E
:105060000000000000000000000000000000000040
:105070000000000000000000000000000000000030
:105080000000000000000000000000000000000020
:105090000000000000006000600060006000600030
:1050A00060006000400020002000200000000000A0
:1050B00000006000600060000000000000000000D0
:1050C000000060066006300398018800440000007C
:1050D00000000000000000000000000000000000D0
:1050E00000000000000000000000000000000000C0
:1050F0000000000000001002100210021002FE0763
:10510000FE0708020801080108010801FE07FE0762
:10511000040104010401040100000000000000007B
:105120000000000040004000F00158034C03CC0395
:105130004C0058007000E000C001C00140034C0367
:105140005C034C034801F0004000400000000000F8
:105150000000000000000E010A0191009100910082
:10516000510051003A00AE03A0025004500448041C
:10517000480448048402840300000000000000008A
:1051800000000000000038006C006C006C006C0037
:105190006C002C0098071C011A01330133016301D4
:1051A000E300C308C6093C0700000000000000003F
:1051B00000000C001C00100010000800040000009B
:1051C00000000000000000000000000000000000DF
:1051D00000000000000000000000000000000000CF
:1051E0000000000400020001800080004000400038
:1051F000200020002000200020002000200040008F
:105200004000800080000001000200040000000057
:105210000000020004000800100010002000200020
:10522000400040004000400040004000400020009E
:105230002000100010000800040002000000000020
:10524000000000000000000000004000C00040001E
:10525000460C4E0FD001F0015E0F460C400040009E
:1052600040000000000000000000000000000000FE
:1052700000000000000000000000000040004000AE
:10528000400040004000FE0F400040004000400051
:1052900040000000000000000000000000000000CE
:1052A00000000000000000000000000000000000FE
:1052B00000000000000000000000000000000000EE
:1052C00000000C001C00100010000800040000008A
:1052D00000000000000000000000000000000000CE
:1052E000000000000000FE070000000000000000B9
:1052F00000000000000000000000000000000000AE
:10530000000000000000000000000000000000009D
:10531000000000000000000000000000000000008D
:1053200000001C001C001C00000000000000000029
:1053300000000004000600020003000100018000DC
:10534000800040004000600020002000100010009D
:10535000080008000C000400060002000000000025
:105360000000000000000000F00098010C030C0396
:1053700006060606060606060606060606060606CD
:105380000C030C039801F000000000000000000076
:10539000000000000000000040007C006000600091
:1053A00060006000600060006000600060006000FD
:1053B000600060006000FC030000000000000000CE
:1053C0000000000000000000F80084010203060352
:1053D0000603000300018001C000600020001000EF
:1053E000080204020602FE030000000000000000A4
:1053F00000000000000000007800C6008601860161
:1054000080018001C00070008001000100030003E2
:10541000060306038601F8000000000000000000FB
:10542000000000000000000080018001C001A00118
:10543000A00190018801880184018201FE0F800192
:10544000800180018001E0070000000000000000F2
:105450000000000000000000FC0304000400040041
:1054600004000400F4008C0104030003000306039D
:10547000060382018401F800000000000000000023
:105480000000000000000000E00118030C030C0005
:1054900004000600E60116030E06060606060606CA
:1054A00004060C021803F0000000000000000000D9
:1054B0000000000000000000F8070C0604020401D0
:1054C00000010001800080004000400040006000BA
:1054D000600060006000600000000000000000004C
:1054E0000000000000000000F8010C03060606069C
:1054F00006060C021C03F000C8010C030606060693
:10550000060606060C03F001000000000000000083
:105510000000000000000000F0000C010C03060277
:1055200006060606060606078C0678060006000331
:1055300000030C018C017800000000000000000056
:10554000000000000000000000000000000000005B
:105550000000E000E000E0000000000000000000AB
:105560000000E000E000E00000000000000000009B
:10557000000000000000000000000000000000002B
:10558000000060006000000000000000000000005B
:1055900000000000600060004000200020000000CB
:1055A0000000000000000004000200018000400034
:1055B0002000100008000400080010002000400037
:1055C0008000000100020004000000000000000054
:1055D00000000000000000000000000000000000CB
:1055E0000000FE07000000000000FE0700000000B1
:1055F00000000000000000000000000000000000AB
:10560000000000000000040008001000200040001E
:105610008000000100020004000200018000400040
:10562000200010000800040000000000000000003E
:105630000000000000000000E0031806040C040C49
:105640000C0C0C0C000780014000400040000000E2
:105650000000E000E000E0000000000000000000AA
:10566000000000000000E00018030C02CC056405F7
:105670006605A605B604B604B604B604B602E4018F
:105680000C040C021803F0000000000000000000F1
:105690000000000000000000600060005000D0002A
:1056A00090009000880088010801F80104030403B9
:1056B0000402020202060F0F0000000000000000BA
:1056C0000000000000000000FE008C030C030C032F
:1056D0000C030C038C01FC000C030C020C060C06E2
:1056E0000C060C060C03FE01000000000000000088
:1056F0000000000000000000E00318030C060C048A
:105700000404060006000600060006000600060463
:105710000C040C021803F000000000000000000060
:1057200000000000000000007F008C010C030C034F
:105730000C060C060C060C060C060C060C060C06D9
:105740000C030C038C017F0000000000000000002F
:105750000000000000000000FF030603060406042A
:10576000060086008600FE00860086008600060091
:10577000060406040602FF0300000000000000000B
:105780000000000000000000FF03060306040604FA
:10579000060086008600FE00860086008600060061
:1057A0000600060006001F000000000000000000C8
:1057B0000000000000000000F00018010C020C02C4
:1057C00004020600060006000600C60F06030603D4
:1057D0000C030C031803F0000000000000000000A0
:1057E00000000000000000000F0F06060606060677
:1057F000060606060606FE07060606060606060650
:105800000606060606060F0F000000000000000056
:105810000000000000000000FC0360006000600069
:105820006000600060006000600060006000600078
:10583000600060006000FC03000000000000000049
:105840000000000000000000F807C000C000C00019
:10585000C000C000C000C000C000C000C000C00048
:10586000C000C000C000C000C60066003C000000D0
:105870000000000000000000CF038601C6004600C3
:105880002600160036002E006E004600C600860078
:105890008601060106038F070000000000000000DB
:1058A00000000000000000001F00060006000600C7
:1058B00006000600060006000600060006000600B8
:1058C000060406040602FF030000000000000000BA
:1058D00000000000000000000707860386038E0317
:1058E0008E034E034E034A035A035A033A0332030C
:1058F000320332031203870700000000000000009B
:1059000000000000000000008E0F0C021C021C02B0
:1059100034023402640264024402C4028402840336
:105920008403040304031F020000000000000000C1
:105930000000000000000000F00098010C030C02C1
:1059400006060606060606060606060606060606F7
:105950000C020C039801F0000000000000000000A1
:105960000000000000000000FF0006030606060617
:105970000606060606068603FE000600060006006A
:105980000600060006001F000000000000000000E6
:105990000000000000000000F00098010C030C0261
:1059A0000606060606060606060606060606760627
:1059B0004C02CC039801F0008007000300000000B7
:1059C0000000000000000000FF01060306060606B6
:1059D000060606060603FE004600C600860086018F
:1059E0000603060306060F0E00000000000000007C
:1059F0000000000000000000F8020C03060206028E
:105A000006000E003C00F800E003800300070206D9
:105A1000020606060C03F001000000000000000072
:105A20000000000000000000FE0762046108610839
:105A30006000600060006000600060006000600066
:105A4000600060006000F80100000000000000003D
:105A500000000000000000001E070C020C020C02F7
:105A60000C020C020C020C020C020C020C020C02C6
:105A70000C020C021801F000000000000000000001
:105A800000000000000000000F07060204010401EE
:105A90000C010C018800880098009800500050000C
:105AA0007000300020002000000000000000000016
:105AB0000000000000000000F70E620442044604EB
:105AC000460464026402E402E4029C029C01980120
:105AD0009801880188008800000000000000000094
