:020000040800F2
:10000000E805002005010008913200088D30000845
:100010008D320008551600086D4A000800000000E7
:10002000000000000000000000000000794100080E
:100030007B16000800000000114000082946000857
:100040001F0100081F0100081F0100081F01000810
:100050001F0100081F0100081F0100081F01000800
:100060001F0100081F0100081F0100081F010008F0
:100070001F0100081F0100081F0100081F010008E0
:100080001F0100081F0100081F0100081F010008D0
:100090001F0100081F0100081F0100088916000841
:1000A0001F0100081F0100081F0100081F010008B0
:1000B0001F0100081F0100081F0100081F010008A0
:1000C0001F0100081F0100081F0100081F01000890
:1000D0001F0100085D4A00081F0100081F010008F9
:1000E0001F0100081F0100081F010008DFF810D0E1
:1000F00000F0DEFC004800471D540008AFF300800C
:10010000E80500200648804706480047FEE7FEE76E
:10011000FEE7FEE7FEE7FEE7FEE7FEE7FEE7FEE7B7
:1001200095460008ED0000082DE9F0410024061B6B
:10013000254671F1000605DA01240027D0EB0700FF
:1001400067EB0101161E73F1000605DA0027D2EBFA
:100150000702012567EB030300F09EFA86460E4670
:1001600017469C46AC4204D00025D0EB050E65EB4B
:10017000010624B10020D2EB000760EB030C7046AF
:1001800031463A466346BDE8F081202A04DB203A36
:1001900021FA02F00021704721FA02F3D040C2F1A7
:1001A00020029140084319467047D2B201E000F89E
:1001B000012B491EFBD270470022F6E710B513460B
:1001C0000A4604461946FFF7F0FF204610BD10B559
:1001D000002200E0521C835C8C5CA34201D1002B06
:1001E000F8D1D8B2E1B2401A10BD30B505460020B2
:1001F000034600E05B1C934205D2EC5CC85C201A0D
:1002000001D1002CF6D130BD70B5064604F070FC6B
:10021000046805460A220021304600F0BDFA2C6031
:1002200070BDF0B480EA0102D40F4200B2EB410F7E
:1002300002D20246084611464A0042D0C30DDDB242
:10024000C1F3C752AD1A202D35DAC1F3160141F4BE
:10025000000204B15242C5F1200602FA06F12A4119
:100260001044B3EBD05F23D0C4B1012DA0EBC35039
:1002700009DCF0BC4FF0004202EAC352DBB200F5E9
:10028000000000F0CABA400000F1807000EBC350DB
:10029000A0F1807040EAD170490009E0490841EAC4
:1002A000C071A0EBC35000F50000400800EBC35044
:1002B000F0BC00F0A9BA6142012202EB4101001B2F
:1002C000F6E7F0BC704781F00041AAE780F00040FB
:1002D000A7E780EA010210B502F00043400022D0F7
:1002E0004A001FD0010E01EB1261C0F35600C2F3A9
:1002F000560240F4000042F40002A0FB0220000479
:100300007F39140400D0401C50EA124001D4400050
:10031000491EC2B20C0604EBD010401C4008802AD3
:1003200002D003E0002010BD20F00100002900DA17
:100330000020184310BD30B480EA010202F00045ED
:1003400030F0004221F0004013D090B1C30DD40D25
:10035000C2F31601C0F31600E41A41F4000140F4A0
:1003600000027D34914201D3641C00E04900002C5E
:1003700002DA30BC002070474FF4000000239142A5
:1003800001D3891A034340084FEA4101F7D151B123
:10039000914202D14FF0004105E002D24FF001013D
:1003A00001E06FF0010103EBC450284430BC00F0C1
:1003B0002BBA2DE9FE4F81EA030404F0004421F03A
:1003C000004100944FF0000B23F0004350EA010479
:1003D0005ED052EA03045BD0C3F30A54C1F30A555A
:1003E0002C44A4F2F3340194A0FB0254C1F3130192
:1003F00041F48011C3F3130343F4801301FB02445F
:1004000000FB034E840A970A44EA815447EA835763
:10041000A4FB076802958D0A05FB07854FEA932C1C
:1004200004FB0C542705029D4FEA065847EA16378D
:10043000B5EB08056EEB070C870E920E47EA8117A5
:1004400042EA8312A7FB0201B6EB0B0164EB000446
:100450002B0D43EA0C335E1844EB1C50DA46514630
:10046000E7FB0201C5F313044FEA0B3343EA1453CD
:100470004FEA0432019C43EA0603A4F10C040294FF
:10048000009CCDE900B400F005FA03B0BDE8F08FA0
:1004900000200146F9E72DE9F04D81EA030404F05C
:1004A000004B21F0004514464FF0000A23F00041B4
:1004B00050EA050220D054EA01021DD0C5F30A57C4
:1004C0000246C5F31303C1F31300C1F30A5640F407
:1004D000801543F48013A7EB0608101BD64608F2DC
:1004E000FD3873EB050002D308F1010801E0921812
:1004F0005B41B8F1000F03DA00200146BDE8F08D42
:1005000000204FF48011064684460EE0171B73EB63
:10051000050705D3121B63EB050306434CEA010CE8
:1005200049084FEA300092185B4150EA0107EDD1CB
:1005300052EA030012D082EA040083EA050108436C
:1005400005D0101BAB4106D20122002306E0002299
:100550004FF0004302E06FF0010253101AEB060067
:100560004CEB085110EB0A0041EB0B01BDE8F04DDC
:1005700000F081B9C10F80EAE0700844CA079623F1
:10058000002100F04AB900F0004230F000400AD0EB
:10059000C10D01F56071C0F3160042EA0151C208B5
:1005A00040071143704700200146704730B5041ED4
:1005B00071F1000404DB4FF00044404264EB0101A0
:1005C000141E73F1000405DB1C464FF00043524239
:1005D00063EB04038B4208BF824230BD30B5041E7A
:1005E00071F1000404DB4FF00044404264EB010170
:1005F000141E73F1000405DB1C464FF00043524209
:1006000063EB0403994208BF904230BD01F0004300
:1006100030B421F0004150EA010206D00A0DA2F5E3
:100620006072C1F31301002A02DC30BC0020704765
:10063000440F44EAC104C100E01830BC00EBC250D2
:1006400000F0E2B8002801DBC0F10040002901DB26
:10065000C1F1004181427047002801DBC0F1004038
:10066000002901DBC1F100418842704730B50B46DB
:10067000014600202022012409E021FA02F59D42D2
:1006800005D303FA02F5491B04FA02F52844151EA6
:10069000A2F10102F1DC30BD2DE9F05F054600203A
:1006A00092469B4688460646814640241BE02846E3
:1006B000414647462246FFF768FD53465A46C01A50
:1006C000914110D311461846224600F003FA2D1A24
:1006D00067EB01084F4622460120002100F0FAF99D
:1006E00017EB00094E41201EA4F10104DFDC48464F
:1006F00031462A464346BDE8F09F00000FB4002370
:1007000000B589B00CA900910B996FF00042CB6045
:100710001E4B06931E4B07930423CDE901321D4A5D
:10072000089202466B46002000F098FA09B05DF886
:1007300014FB70B586B006464FF0FF300091CDE94E
:100740000101002015460C4604903246694604A873
:10075000FFF7D4FF02460498211825B108B10846D6
:1007600000E020462860049800280DD0002A02DD11
:100770000098884208D0081B0094CDE90104324655
:10078000694604A8FFF7BAFF06B070BD950E0008D1
:10079000B30E0008210B00082DE9F04791460F46E3
:1007A00080460446002614F8015B2DB100F0B4F930
:1007B0000068405DC007F6D12B2D02D02D2D18D03A
:1007C000641E4A463946204600F084FB27B139684A
:1007D000A14201D1C7F8008071054FF002040BD58A
:1007E0004042002803DD04F083F90460A007BDE85F
:1007F000F08746F48066E4E70028F8DA04F078F938
:1008000004606FF00040F2E70029A8BF7047401C69
:10081000490008BF20F00100704710B4B0FA80FC16
:1008200000FA0CF050EA010404BF10BC704749B153
:10083000CCF1200421FA04F411FA0CF118BF0121C3
:1008400021430843A3EB0C01CB1D4FEA00614FEAA3
:10085000102042BF002010BC704700EBC350104472
:100860000029A4BF10BC7047401C490008BF20F0FD
:10087000010010BC704710B5141E73F1000408DAB3
:10088000401C41F1000192185B411A4301D120F054
:10089000010010BD2DE9F04D92469B4611B1B1FA11
:1008A00081F202E0B0FA80F22032904600F012F9B4
:1008B00004460F4640EA0A0041EA0B0153465A46F5
:1008C000084313D0114653EA010019D0C8F1400281
:1008D0005046FFF75AFC05460E46504659464246DA
:1008E00000F0F8F8084305D0012004E0204639461E
:1008F000BDE8F08D0020054346EAE0762C433743FF
:100900000A986305E40AA0EB08000022FD0A44EA05
:1009100047540A3002D500200146E9E701051019C5
:100920006941DDE9084500196941BDE8F04DA2E7DC
:100930002DE9FE4F804681EA0300C00F0C4600906F
:1009400021F0004123F00045B8EB0200A94105D297
:100950004046214690461C460B46024623F0004086
:10096000104347D0270DC7F30A00C3F30A51029082
:10097000401A019040286BDAC3F3130040F4801B47
:100980000098924620B10023D2EB030A63EB0B0BD5
:1009900001985946C0F14002504600F09BF80646C7
:1009A0000D4650465946019A00F0A3F810EB080096
:1009B0006141002487EA115284EAE7731A4340D068
:1009C000009A62B3019A012A4FEA075215DC001B14
:1009D00061EB02014FF0004202EA0752CDE900420A
:1009E000001C41F5801132462B46FFF753FF03B040
:1009F000BDE8F08F40462146F9E7001B61EB02019C
:100A0000001C41F5801300185B412018A2F5001767
:100A100047EB030140EAD570B6196D4111E06D084E
:100A20004FEA360645EAC0754FEA0752001B61EBF4
:100A30000201001C41F5801149084FEA30000019FD
:100A4000514132462B4603B0BDE8F04FFFF713BFCC
:100A50000098012240000023D0EB020263EBE07318
:100A6000009821464FEAE074B8EB000061EB040106
:100A7000E9E783F000435BE781F0004158E7C1F309
:100A80000A52C1F3130140F2FF3341F480119A423C
:100A900002DA00200146704740F233439A42A2F244
:100AA000334202DC5242FFF770BB00F013B8000083
:100AB000064C074D06E0E06840F0010394E80700AB
:100AC00098471034AC42F6D3FFF714FBB88F0008F8
:100AD000D88F0008202A04DB203A00FA02F1002017
:100AE00070479140C2F1200320FA03F3194390406C
:100AF0007047202A06DBCB17203A41FA02F043EA7E
:100B0000E07306E041FA02F3D040C2F120029140C6
:100B1000084319467047000000487047A48F00083A
:100B200010B50446FFF7F8FF0068005D00F0010013
:100B300010BD00002DE9FF4F087883B09946FF28CB
:100B400005D0491C2D2804D00024002008E00020F6
:100B50000BE00124F9E700EB800003EB4000491CA7
:100B60000B78FF2BF7D104B1404200230293147895
:100B700019461D462D2C01D02B2C04D1521C2D2C96
:100B800013D000240294AA461478FF2C0FD00A2513
:100B9000A3FB057801FB05814FF0000C03FB0C1152
:100BA000521CE3194AEB0101EEE70124EAE7814414
:100BB00053EA010002D019F5C87F06DA0398002134
:100BC000C0E9001107B0BDE8F08F0025AE4E2F46FA
:100BD000DFF8B882184600F0DAF9CDE90001B9F182
:100BE000000002DAC9F1000400E004460023A74A2D
:100BF0001AEB030B42EB045A12E0E00707D02A4637
:100C0000334638464146FFF7D4FB074688462A4616
:100C1000334610461946FFF7CCFB05460E466410D6
:100C2000002CEAD1DDE90001B9F1000F5A46534624
:100C300006DAFFF730FC3A464346FFF72CFC05E0A6
:100C4000FFF7B7FB3A464346FFF7B3FB029A0AB1F8
:100C500081F00041039AC2E90001B3E72DE9FF4F9B
:100C60001F468DB0D7E901464FF0FF382E2045468C
:100C70004FF000090B90B9696D1C0E988847396ACE
:100C8000824688470028F6D1BAF1FF3F0AD024F403
:100C9000D064002E11DDBAF12B0F08D0BAF12D0F60
:100CA0000BD102E0404611B08DE744F48064B9698D
:100CB0006D1C0E9888478246761E6946600501D5F0
:100CC0002D2000E02B208DF8000001F1010B0DF12B
:100CD000200809E0B9696D1C0E98884782460F9874
:100CE00044F40074761E0560002E02DDBAF1300F68
:100CF000F0D00B998A453ED144F0800406E00F996C
:100D0000681CA9F1010944F400740860B9696D1CFC
:100D1000761E0E98884782463028F0D02BE00B993B
:100D20008A4505D1200603D444F08004761E18E0DD
:100D3000504603F0BFFF08B30DF11301761E44F4D3
:100D400000748B4508D2AAF130000BF8010B200685
:100D500007D5A9F1010003E0200602D409F1010042
:100D60008146A00502D50F99681C0860B9696D1C01
:100D70000E9888478246002ED1DC53E0002E51DDCC
:100D8000BAF1650F02D0BAF1450F4BD1A00549D594
:100D9000B9696D1C24F44074761E0E98884782460B
:100DA000002E0CDD2B2804D0BAF12D0F07D144F40E
:100DB0008074B9696D1C0E9888478246761EE005DE
:100DC00001D52D2100E02B2108F8011BCDF82C8046
:100DD00021E00DF12901761E44F4007488450CD2FF
:100DE000AAF1300010F0FF0088F8000002D10B9942
:100DF000884509D908F1010806E0E00501D5244835
:100E000001E042F20F708146B9696D1C0E98884767
:100E100082460F980560002E04DD504603F04AFF1D
:100E20000028D6D1F9690E988847FF208BF800007A
:100E300088F800000020069007904B466A4608A9F3
:100E400006A8FFF777FEA00502D46FF001002AE79D
:100E500014F0240F0AD0E00714D1DDE90612386837
:100E6000031D3B600068C0E900120BE0DDE90601EC
:100E7000FFF7CCFB0146E00704D13868021D3A6059
:100E80000068016028460EE7000014400000F03FB3
:100E9000F1D8FFFF426842B1016811F8013B23B16C
:100EA000521EC0E90012184670470121C160881E19
:100EB000704742685AB1C368016843B983688B427E
:100EC00005D0491E521CC0E90012002070474FF0A7
:100ED000FF3070472DE9F05F824600780027154605
:100EE0008B460AF10104B946302801D09DB113E0C8
:100EF00014F8010B0127782803D0582801D045B1F8
:100F00000AE00DB1102D07D10027102514F8010BB0
:100F100002E0082500E00A250026B0460EE005FBA9
:100F2000080005FB06F1012701EB10461FFA80F8C7
:100F3000B6F5803F00D3B94614F8010B294600F0FE
:100F400018F80028EBDABBF1000F05D00FB1641ED2
:100F500000E05446CBF80040B9F1000F06D003F092
:100F6000C7FD02210160C81EBDE8F09F48EA0640A7
:100F7000FAE73A2800D2303820F02002412A01D383
:100F8000A2F13700884201D34FF0FF3070470EB511
:100F900040F2334202920022CDE900221346FFF7CD
:100FA00079FC03B000BD00002DE9F04104460D4678
:100FB00000260027284600F023F8012203211046CE
:100FC00000F042F9064626F4600604F0070046EAFF
:100FD000405700224FF48051084800F0B1FE002332
:100FE00003223946012000F0EBF900F011FA01224A
:100FF0001103024800F0A4FEBDE8F081000C01409E
:1010000070B504460025002601220321022000F0CD
:101010001BF9054625F47F45E0B245EA0026012389
:1010200003223146022000F0CBF970BD70B50024D8
:101030000026002501220321022000F005F90446C4
:1010400025461048054045F050060123032231464D
:10105000022000F0B5F901221146002000F0F4F85A
:10106000054605F0200018B907A003F001FD02E0D5
:101070000CA003F0FDFC012303222146022000F016
:101080009FF970BDAFFF7FFF4144373139352052A2
:10109000656620566F6C74616765204F4B2E0D0A94
:1010A000000000004552524F523A20414437313936
:1010B00035204E4F2052656620566F6C746167650F
:1010C000210D0A0070B500240025074C01230322DE
:1010D0002146022000F074F9044D01230322294621
:1010E000184600F06DF970BD4702800060044800AA
:1010F0002DE9F041054600260024002701220321A6
:10110000104600F0A1F8044604F4600040B124F455
:10111000600400BF012303222146184600F050F965
:1011200000224FF480510D4800F00AFE002709E02C
:1011300000F06EF900220321084600F085F806440D
:10114000781CC7B2AF42F3DB01221103034800F061
:10115000F7FDB6FBF5F0BDE8F0810000000C0140A2
:1011600070B512A003F084FC01221146002000F0AB
:101170006BF80446214616A003F07AFC01220321F5
:10118000104600F061F80546294618A003F070FCEF
:1011900001220321022000F057F8064631461AA02A
:1011A00003F066FC1FA003F063FC70BD0D0A2D2D3B
:1011B0002D20414437313935205265676973746594
:1011C000722044756D70202D2D2D0D0A0000000039
:1011D0005354415420526567202830783030293AE2
:1011E0002030782530326C580D0A00004D4F4445B0
:1011F00020526567202830783031293A2030782510
:1012000030366C580D0A0000434F4E462052656739
:10121000202830783032293A2030782530366C5802
:101220000D0A00002D2D2D2D2D2D2D2D2D2D2D2D8B
:101230002D2D2D2D2D2D2D2D2D2D2D2D2D2D2D2DDE
:101240000D0A0D0A000000002DE9FC4107460C467E
:10125000154611A103C9CDE900014FF00008002691
:1012600007F00700402141EAC0008DF80000611C32
:10127000CAB2E8B2694600F0A1F9012605E01DF8FE
:10128000060000EB0828701CC6B2601C8642F6DB24
:101290004046BDE8FC810000FFFFFFFFFF000000AB
:1012A00010B5002401221102194800F049FD052063
:1012B00000F074FB00F078F90A2000F06FFB00F0FA
:1012C0006DF8052000F06AFB012211460420FFF7AB
:1012D000BBFFC4B221460FA003F0CAFBA62C04D06A
:1012E00013A003F0C5FB002010BDFFF7EBFE0A20A2
:1012F00000F054FBFFF79AFE15A003F0B9FB0221A2
:101300000420FFF751FE1EA003F0B2FB0120EBE723
:1013100000080140414437313935204944205265A5
:1013200061643A203078253032580D0A0000000000
:101330004552524F523A2041443731393520496E97
:101340006974204661696C6564210D0A0000000023
:1013500041443731393520457865637574696E6766
:1013600020496E7465726E616C205A65726F2043FD
:10137000616C6962726174696F6E2E2E2E0D0A00A7
:101380004144373139352043616C69627261746957
:101390006F6E20446F6E65210D0A00001CB506A11A
:1013A00003C9CDE9000107226946012000F02AF9AE
:1013B000022000F0F3FA1CBDFFFFFFFFFFFFFF005C
:1013C0002DE9FF4182B0074614461D4600200090DB
:1013D00001900DF10C08264607F00700002141EAB4
:1013E000C0008DF8000007E098F800000DF8060036
:1013F00008F10108701EC6B2002EF5DC611CCAB2ED
:10140000E8B2694600F0FEF806B0BDE8F0810000E1
:1014100010B5094C00BF4FF48041084800F088FC2B
:10142000012803D1201EA4F10104F4D114B904A0B1
:1014300003F01EFB10BD0000FFFF1F00000C014069
:10144000414437313935205761697420524459205D
:1014500054696D656F7574210D0A000070B50446FE
:101460000026002539480078012807D114220023DE
:10147000374903C9FEF758FE06460DE035480078A7
:10148000002808DD334802780023314903C9FEF7FC
:101490004BFE064600E02646A51B002D00DA6D42F5
:1014A000B5F57A7F15DD002003E02B4941F8204097
:1014B000401C1428F9DB04EB84008000C117244A87
:1014C00003C20020234908700120204908702046EB
:1014D00070BD21481F49097850F82100C3171C49E5
:1014E000D1E90021101A61EB0301194A03C21A481D
:1014F0001849097840F821401548D0E90020121910
:1015000040EBE4701249C1E900201248007800F174
:1015100001001049087008460078142804DB0020F8
:1015200008700120094908700848007838B909484E
:1015300002780023064903C9FEF7F6FDC8E7142226
:101540000023034903C9FEF7EFFDC1E7580000205F
:1015500050000020480000203C010020002004E052
:101560000021084A42F82010401C1428F8DB002112
:10157000054A116051600020044908700449087050
:10158000704700003C01002050000020480000206F
:101590005800002010B50120FFF7AAFD04462046A0
:1015A000FFF75CFF10BD000010B5012211030248D7
:1015B00000F0C6FB10BD0000000C0140F8B5044669
:1015C0000F461546012C04D1002201030B4800F000
:1015D000B7FB64202B463A4639460090084801F094
:1015E00068F90646012C04D101221103034800F0DA
:1015F000A7FB0EB10020F8BD2846FCE7000C014017
:101600009C0000202DE9F04104460F461646012CAF
:1016100004D1002201030B4800F092FB6423324600
:101620003946094801F066F80546012C04D101222B
:101630001103044800F084FB15B10020BDE8F081DF
:101640003046FBE7000C01409C00002000B5FFF78E
:1016500085FF00BD00BFFEE770B504460D461520AE
:1016600002F0C4FC04F11C01C8B202F0B9FC05F19F
:101670001C01C8B202F0B4FC70BD704710B504463E
:10168000204600F08BF910BD10B5402000F0B2F9F3
:1016900010BD72B600BFFEE770B504460CB901205C
:1016A00070BD94F8200010B9204600F0AFF8206813
:1016B000006840F001002168086000F047FB054623
:1016C0000DE000F043FB401B0A2808D9606A40F493
:1016D00000306062052084F820000120E0E72068E7
:1016E000406800F001000028EBD02068006820F07E
:1016F00002002168086000F029FB05460DE000F0BB
:1017000025FB401B0A2808D9606A40F4003060625B
:10171000052084F820000120C2E72068406800F01E
:1017200002000028EBD1207E012806D12068006845
:1017300040F080002168086005E02068006820F023
:10174000800021680860607E012806D1206800685A
:1017500040F040002168086005E02068006820F043
:10176000400021680860A07E012806D1206800683A
:1017700040F020002168086005E02068006820F043
:10178000200021680860E07E012806D120680068FA
:1017900020F010002168086005E02068006840F033
:1017A000100021680860207F012806D120680068A9
:1017B00040F008002168086005E02068006820F01B
:1017C000080021680860607F012806D12068006851
:1017D00040F004002168086005E02068006820F0FF
:1017E000040021680860D4E9020108432169084324
:1017F000616908436168491E08432168C861002087
:101800006062012084F82000002049E710B586B00E
:101810000446002002900390049005901A49206825
:1018200088422ED100BF1948C06940F000701749A6
:10183000C8610846C06900F00070019000BF00BF99
:1018400000BF0846806940F004008861084680694E
:1018500000F00400019000BF00BFC81402900020F7
:101860000390049002A90A4800F0D2F84FF4805087
:101870000290022003900320059002A9044800F082
:10188000C7F806B010BD0000006400400010024020
:10189000000801400146002291F82100022808D0EA
:1018A0000420886300BF002081F8200000BF0120D1
:1018B00070470868006820F00E000B681860086820
:1018C000006820F001000B68186091F8403001209A
:1018D0009840CB6B5860012081F8210000BF0020A8
:1018E00081F8200000BF1046E2E7000070B5044612
:1018F000002594F82100022803D00420A0630125CC
:1019000048E02068006820F00E0021680860206828
:10191000006820F00100216808601F4920688842A3
:1019200001D1012026E01C4914312068884201D1F0
:1019300010201FE0184928312068884201D1801505
:1019400018E015493C312068884201D1801411E02B
:10195000114950312068884202D14FF4803009E0AB
:101960000D4964312068884202D14FF4801001E0B3
:101970004FF08070084908394860012084F8210040
:1019800000BF002084F8200000BF606B10B120462B
:10199000616B8847284670BD0800024070B5044658
:1019A00000F0D4F906462546681C10B104480078BA
:1019B000054400BF00F0CAF9801BA842FAD370BDED
:1019C0000800002070B50446402C0DD100F0BEF98F
:1019D000054606480068281A142802D9012004493F
:1019E00008700248056000BF70BD0000680000205C
:1019F0006400002010B5044604480068204020B16F
:101A0000024804602046FFF7DDFF10BD14040140CA
:101A10002DE9F8470346002294466EE14FF0010895
:101A200008FA02F4D1F8008008EA0400A0427DD14F
:101A3000DFF8DCA2D1F80480A8EB0A09D0453AD03F
:101A400014DCB8F1030F50D009DCB8F1000F31D02D
:101A5000B8F1010F1CD0B8F1020F49D120E0B8F164
:101A6000110F18D0B8F1120F42D11EE0B9F5881F3E
:101A700025D006DCB9F5803F20D0B9F5801F37D1DD
:101A80001AE0B9F5001F18D0B9F5041F30D117E0DE
:101A9000D1F80CC02DE0D1F80C8008F1040C28E03E
:101AA000D1F80C8008F1080C23E0D1F80C8008F183
:101AB0000C0C1EE000BF00BF00BF00BF00BF00BF96
:101AC000D1F80880B8F1000F02D14FF0040C0BE000
:101AD000D1F80880B8F1010F03D14FF0080C1C6158
:101AE00002E04FF0080C5C6103E04FF0000C00E0F6
:101AF00000BF00BFFF2801D8984601E003F10408A9
:101B00004646FF2802D84FEA820803E0A2F10808FF
:101B10004FEA88084746D6F800804FF00F0909FAC7
:101B200007F928EA09080CFA07F900E088E048EA12
:101B30000908C6F80080D1F8048008F08058B8F190
:101B4000805F7DD100BFDFF8CC81D8F8188048F0E5
:101B50000108DFF8C091C9F81880C846D8F8188085
:101B600008F00108CDF8008000BF00BF4FEAB93887
:101B70004FEA920958F829504FEA82784FEA1879CB
:101B80004FF00F0808FA09F825EA0805DFF8888100
:101B9000434502D14FF0000816E0DFF8808143454D
:101BA00002D14FF001080FE0DFF87481434502D104
:101BB0004FF0020808E0DFF86C81434502D14FF096
:101BC000030801E04FF004084FEA82794FEA1979DF
:101BD00008FA09F848EA0505DFF84C814FEA92094E
:101BE00048F82950D1F8048008F48018B8F5801F0F
:101BF0000AD1DFF83881D8F8008048EA0008DFF819
:101C00002C91C9F8008009E0DFF82081D8F8008025
:101C100028EA0008DFF81491C9F80080D1F80480A0
:101C200008F40018B8F5001F10D1DFF8008108F1A2
:101C30000408D8F8008048EA0008DFF8F09000E0D7
:101C40005AE009F10409C9F800800DE0DFF8DC80F2
:101C500008F10408D8F8008028EA0008DFF8CC90E2
:101C600009F10409C9F80080D1F8048008F40038AB
:101C7000B8F5003F0ED1DFF8B480A8F10408D8F819
:101C8000008048EA0008DFF8A490A9F10409C9F827
:101C900000800DE0DFF89480A8F10408D8F80080F7
:101CA00028EA0008DFF88490A9F10409C9F8008047
:101CB000D1F8048008F48038B8F5803F0ED1DFF801
:101CC0006C80A8F10808D8F8008048EA0008DFF81E
:101CD0005C90A9F10809C9F800800DE0DFF84C809C
:101CE000A8F10808D8F8008028EA0008DFF83C903E
:101CF000A9F10809C9F80080521CD1F8008028FA1F
:101D000002F8B8F1000F7FF489AEBDE8F887000053
:101D1000000011100010024000080140000C0140BA
:101D20000010014000140140080001400804014077
:101D3000024693680B400BB1012000E00020704781
:101D40000AB1016101E00B040361704701480068BA
:101D5000704700000000002003480068034909782C
:101D60000844014908607047000000200800002076
:101D700010B50848006840F01000064908600320CC
:101D800000F0A8F80F2000F007F800F02BF8002072
:101D900010BD00000020024070B504460E480078D7
:101DA0004FF47A71B1FBF0F00C490968B1FBF0F522
:101DB000284600F0A2FE08B1012070BD102C07D209
:101DC00000222146501E00F047F80548046001E05B
:101DD0000120F2E70020F0E7080000200C000020BE
:101DE0000400002008B500BF1148806940F00100E0
:101DF0000F4988610846806900F00100009000BF2B
:101E000000BF00BF0846C06940F08050C861084666
:101E1000C06900F08050009000BF00BF00BF0549BE
:101E2000486820F0E06040F00070486000BF08BDE6
:101E3000001002400000014001460846002809DB6E
:101E400000F01F0301229A4043099B0003F1E023A5
:101E5000C3F8002100BF70472DE9F05F80460D46B2
:101E60001646002702F028FE074639462A46334622
:101E700001F00700C0F1070ABAF1040F02D94FF0D0
:101E8000040A01E0C0F1070AD14600F1040ABAF1E0
:101E9000070F02D24FF0000A01E0A0F1030AD44676
:101EA0004FF0010A0AFA09FAAAF1010A0AEA020A3B
:101EB0000AFA0CFA4FF0010B0BFA0CFBABF1010B19
:101EC0000BEA030B4AEA0B042146404602F0FCFDF4
:101ED000BDE8F09F00BF00F00702064B19684FF6FF
:101EE000FF031940044B0B4343EA0221014B1960E5
:101EF00000BF70470CED00E00000FA0570B5044625
:101F00000D460CB9012070BD5A48006800F007006A
:101F1000A8420ED25748006820F0070028435549D0
:101F200008600846006800F00700A84201D00120C0
:101F3000E9E7207800F0020002281DD1207800F0A7
:101F40000400042805D14C48406840F4E0604A4948
:101F50004860207800F00800082805D1464840680D
:101F600040F46050444948604348406820F0F00025
:101F7000A168084340494860207800F0010078B328
:101F80006068012806D13C48006800F4003090B930
:101F90000120B8E76068022806D13748006800F0E1
:101FA000007040B90120AEE73348006800F002003D
:101FB00008B90120A7E73048406820F003006168B5
:101FC00008432D494860FFF7C1FE064609E0FFF7C8
:101FD000BDFE801B41F28831884202D9032092E77E
:101FE00007E02548406800F00C006168B0EB810F05
:101FF000EDD12048006800F00700A8420ED91D4826
:10200000006820F0070028431A4908600846006865
:1020100000F00700A84201D0012074E7207800F00A
:102020000400042807D11448406820F4E060E16807
:10203000084311494860207800F00800082808D1BA
:102040000D48406820F46050216940EAC1000A4907
:10205000486000F03FF808494968C1F30311074A96
:10206000515CC8400649086006480068FFF794FEC6
:10207000002048E700200240001002403E550008C2
:102080000C00002004000020014800687047000098
:102090000C00002000B5FFF7F7FF04494968C1F3C1
:1020A0000221034A515CC84000BD000000100240FC
:1020B0004E55000800B5FFF7E7FF04494968C1F332
:1020C000C221034A515CC84000BD0000001002401C
:1020D0004E55000870B50021002200240023002086
:1020E000134D696801F00C05F5B1042D02D0082DDF
:1020F00019D101E00F4819E00F4DC1F38346AB5DE4
:1021000001F4803555B10A4D6D68C5F340450B4E5D
:10211000725D084D5D43B5FBF2F402E0084D03FB30
:1021200005F4204602E000BF064800BF00BF70BDB6
:1021300000100240001BB7002C5500083C55000859
:1021400000093D0000127A00F8B504460CB90120E0
:10215000F8BD207800F00100002878D0F8484068E9
:1021600000F00C0004280CD0F548406800F00C008A
:10217000082811D1F248406800F48030B0F5803F63
:102180000AD1EF48006800F4003000285FD0606892
:1021900000285CD10120DBE700BF6068B0F5803F1C
:1021A00006D1E748006840F48030E549086028E03F
:1021B000606858B9E248006820F48030E04908605F
:1021C0000846006820F4802008601AE06068B0F5D6
:1021D000A02F0BD1DA48006840F48020D84908606D
:1021E0000846006840F4803008600AE0D44800687F
:1021F00020F48030D24908600846006820F480202E
:10220000086000BF606888B1FFF7A0FD054606E0E2
:10221000FFF79CFD401B642801D9032098E7C848BC
:10222000006800F400300028F2D010E0FFF78EFDC7
:10223000054606E0FFF78AFD401B642801D903200C
:1022400086E7BF48006800F400300028F2D120780B
:1022500000F00200022857D1B948406800F00C0095
:1022600050B1B748406800F00C00082818D1B448B5
:10227000406800F4803098B9B148006800F002006E
:1022800020B12069012801D0012061E7AC48006835
:1022900020F0F800616940EAC100A949086033E014
:1022A0002069E8B10120A7490860FFF74FFD054606
:1022B00006E0FFF74BFD401B022801D9032047E74A
:1022C0009F48006800F002000028F2D09C48006897
:1022D00020F0F800616940EAC1009949086013E004
:1022E000002098490860FFF731FD054606E0FFF73A
:1022F0002DFD401B022801D9032029E790480068E2
:1023000000F002000028F2D1207800F00800082830
:102310002DD1A069B8B101208B490860FFF716FDE7
:10232000054606E0FFF712FD401B022801D90320F5
:102330000EE78348406A00F002000028F2D0012036
:1023400001F068FE13E000207F490860FFF7FEFC03
:10235000054606E0FFF7FAFC401B022801D90320DE
:10236000F6E67748406A00F002000028F2D12078B3
:1023700000F00400042873D100277148C06900F000
:10238000805070B900BF6E48C06940F080506C4901
:10239000C8610846C06900F08050009000BF00BFCF
:1023A00001276A48006800F48070B0B96748006887
:1023B00040F4807065490860FFF7C8FC054606E0F8
:1023C000FFF7C4FC401B642801D90320C0E65F4826
:1023D000006800F480700028F2D000BFE068012897
:1023E00006D15748006A40F001005549086227E0CD
:1023F000E06858B95248006A20F00100504908626C
:102400000846006A20F00400086219E0E068052828
:102410000BD14B48006A40F0040049490862084665
:10242000006A40F0010008620AE04548006A20F0B6
:102430000100434908620846006A20F0040008626F
:1024400000BFE068A0B1FFF781FC054609E0FFF797
:102450007DFC401B41F28831884202D9032077E697
:1024600022E03748006A00F002000028EFD012E0B6
:10247000FFF76CFC054608E0FFF768FC401B41F2E3
:102480008831884201D9032062E62D48006A00F0B5
:1024900002000028F0D1012F05D12948C06920F0A1
:1024A00080502749C86100BFE069C8B3244840682C
:1024B00000F00C00082860D0E069022848D1002014
:1024C00020490866FFF742FC054606E0FFF73EFCA0
:1024D000401B022801D903203AE61948006800F0A1
:1024E00000700028F2D1206AB0F5803F07D114486F
:1024F000406820F40030A168084311494860D4E9DD
:10250000080108430E49496821F4741108430C4935
:10251000486001200B490866FFF718FC054607E0F4
:102520003DE0FFF713FC401B022801D903200FE612
:102530000348006800F000700028F2D02FE000008F
:1025400000100240000042428004424200700040FD
:10255000002014490866FFF7F9FB054606E0FFF77F
:10256000F5FB401B022801D90320F1E50E48006865
:1025700000F000700028F2D111E0E069012800D1DC
:10258000E6E50948466806F48031206A814204D1B4
:1025900006F47011606A814201D00120D8E5002064
:1025A000D6E50000000042420010024010B504468B
:1025B0000CB9012010BD606A38B96068B0F5827F3F
:1025C00000D105E00021E16102E0002121616161AB
:1025D0000021A16294F8510028B9002084F850002D
:1025E000204600F043F8022084F85100206800687B
:1025F00020F0400021680860A08800F482702189E2
:1026000001F404410843A18901F400610843217CDD
:1026100001F002010843217D01F001010843218BF3
:1026200001F400710843217F01F0380108432021A3
:10263000095D01F080010843218D01F40051084338
:10264000216808600421A06901EA104021684860FF
:102650002068C06920F400602168C86100206065BE
:10266000012084F851000020A4E7000010B586B0D6
:102670000446002002900390049005901A492068B7
:1026800088422FD100BF1948C06940F480401749E3
:10269000C8610846C06900F48040019000BF00BFD7
:1026A00000BF0846806940F00800886108468069DC
:1026B00000F00800019000BF00BF4FF420400290DE
:1026C000022003900320059002A90948FFF7A0F912
:1026D0004FF48040029000200390049002A9044827
:1026E000FFF796F906B010BD003800400010024018
:1026F000000C01402DE9F84304460F4616461D46DE
:10270000FFF724FB8046B14694F85100012802D01F
:102710000220BDE8F88307B10EB90120F9E700BF38
:1027200094F85000012801D10220F2E7012084F83A
:10273000500000BF032084F851000020606527632B
:10274000A686E686A063A087E08760642064A06810
:10275000B0F5004F0BD12068006820F040002168E0
:1027600008602068006840F48040216808602068A4
:10277000006800F04000402805D02068006840F064
:10278000400021680860E068B0F5006F37D16068EC
:1027900010B1B9F1010F09D1206B00882168C86020
:1027A000206B801C2063E08E401EE08623E02068C2
:1027B000806800F0020002280AD1206B008821689E
:1027C000C860206B801C2063E08E401EE08612E013
:1027D000FFF7BCFAA0EB0800A84201D3681C00B9BF
:1027E0004DB9012084F8510000BF002084F850004A
:1027F00000BF03208DE7E08E0028D8D136E0606866
:1028000010B1B9F1010F09D1206B0078216808736C
:10281000206B401C2063E08E401EE08623E0206891
:10282000806800F0020002280AD1206B007821683D
:102830000873206B401C2063E08E401EE08612E08F
:10284000FFF784FAA0EB0800A84201D3681C00B986
:102850004DB9012084F8510000BF002084F85000D9
:1028600000BF032055E7E08E0028D8D14246294614
:10287000204601F0F3FB08B120206065A06850B944
:1028800000BF002000902068C06800902068806829
:10289000009000BF00BF012084F8510000BF00205D
:1028A00084F8500000BF606D08B1012031E70020BE
:1028B0002FE72DE9FE4F04460F4690461D460C9E1D
:1028C00001200190FFF742FA814694F851B0606808
:1028D0000290AA46BBF1010F0BD00298B0F5827F9F
:1028E00004D1A06810B9BBF1040F02D00220BDE8EA
:1028F000FE8F1FB1B8F1000F00D00DB90120F6E72F
:1029000000BF94F85000012801D10220EFE7012018
:1029100084F8500000BF94F85100042802D005202C
:1029200084F8510000206065C4F83880E587A587E9
:102930002763E586A586206460642068006800F04F
:102940004000402805D02068006840F04000216821
:102950000860E068B0F5006F52D1606810B1BAF15C
:10296000010F09D1206B00882168C860206B801C92
:102970002063E08E401EE0863BE02068806800F027
:102980000200022810D1E08E70B1019801280BD10D
:10299000206B00882168C860206B801C2063E08E5B
:1029A000401EE086002001902068806800F0010051
:1029B00068B1E08F58B12068C068A16B0880A06B37
:1029C000801CA063E08F401EE08701200190FFF78C
:1029D000BDF9A0EB0900B0420BD3701C48B1012037
:1029E00084F8510000BF002084F8500000BF03208D
:1029F0007DE7E08E0028C0D1E08F0028BDD152E0F5
:102A0000606810B1BAF1010F09D1206B007821681C
:102A10000873206B401C2063E08E401EE0863CE083
:102A20002068806800F00200022810D1E08E70B1AA
:102A3000019801280BD1206B007821680873206B66
:102A4000401C2063E08E401EE0860020019020683C
:102A5000806800F0010068B1E08F58B12068C0685C
:102A6000A16B0870A06B401CA063E08F401EE08744
:102A700001200190FFF76AF9A0EB0900B04201D3F1
:102A8000701C00B94EB9012084F8510000BF00202D
:102A900084F8500000BF032029E7E08E0028BFD152
:102AA000E08F0028BCD14A463146204601F0D6FAD4
:102AB00040B12020606500BF002084F8500000BFB6
:102AC000012014E7A06850B900BF002000902068E2
:102AD000C068009020688068009000BF00BF01209F
:102AE00084F8510000BF002084F8500000BF606DE2
:102AF00008B10120FBE60020F9E670B50446254642
:102B0000681EB0F1807F01D301200FE0681E4FF0F6
:102B1000E02148610F214FF0FF3001F0D5FF002088
:102B20004FF0E021886107200861002070BD7047E8
:102B3000704700002DE9F84F0446206805682068BA
:102B4000C668206847694FF00009CA4605F00F09BA
:102B5000B9F1000F0AD105F0200038B106F02000CD
:102B600020B1204601F0E7FDBDE8F88FB9F1000F74
:102B70007BD007F0010018B906F49070002874D0DB
:102B800005F0010030B106F4807018B1606C40F0BF
:102B90000100606405F0040030B107F0010018B1D5
:102BA000606C40F00200606405F0020030B107F094
:102BB000010018B1606C40F00400606405F008008A
:102BC00048B106F0200010B907F0010018B1606CA0
:102BD00040F008006064606C002845D005F02000DB
:102BE00028B106F0200010B1204601F0A4FD2068B5
:102BF0004069C0F3801A606C00F0080010B9BAF1A7
:102C0000000F2CD0204601F050FD2068406900F0F4
:102C1000400000B300BF00BF2168143151E8001F1D
:102C200021F040002168143141E80002002AF3D16C
:102C300000BFE06B50B17748E16B4863E06BFEF793
:102C400055FE88B1E06B416B88470DE02046FFF7E9
:102C50006FFF09E009E02046FFF76AFF04E0204625
:102C6000FFF766FF002060647EE7206B012877D1C4
:102C700005F01000002873D006F010000028FAD0EC
:102C800000BF002000902068006800902068406825
:102C9000009000BF00BF2068406900F0400000289D
:102CA0005FD0E06B006840681FFA80F8B8F1000F51
:102CB00055D0A08D404552DDA4F82E80E06B806990
:102CC000202843D000BF00BF21680C3151E8001F0D
:102CD00021F4807021680C3141E80002002AF3D110
:102CE00000BF00BF00BF2168143151E8001F21F070
:102CF00001002168143141E80002002AF3D100BF2D
:102D000000BF00BF2168143151E8001F21F04000CE
:102D10002168143141E80002002AF3D100BF2020CD
:102D200084F842000020206300BF00BF21680C31FE
:102D300051E8001F21F0100021680C3141E8000229
:102D4000002AF3D100BFE06BFEF7A4FD0220606310
:102D5000A08DE28D801A81B22046FFF7E8FE03E7DE
:102D600042E0A08DE18D401A1FFA80F8E08DD0B3CB
:102D7000B8F1000F37D000BF00BF21680C3151E817
:102D8000001F21F4907021680C3141E80002002AF4
:102D9000F3D100BF00BF00BF2168143151E8001F0C
:102DA00021F001002168143141E80002002AF3D12A
:102DB00000BF202084F842000020206300BF00BF35
:102DC00021680C3151E8001F21F0100021680C31FE
:102DD00041E80002002AF3D100BF022060634146AF
:102DE0002046FFF7A4FEBFE605F0800030B106F0F4
:102DF000800018B1204601F0BBFDB5E605F04000AB
:102E000030B106F0400018B1204601F084FCABE67A
:102E100000BFA9E69746000810B504460CB901208A
:102E200010BDA06900B100E000BF94F8410028B9CE
:102E3000002084F84000204600F02AF8242084F87E
:102E400041002068C06820F400502168C860204616
:102E500001F0F0FC2068006920F4904021680861CE
:102E60002068406920F02A00216848612068C06815
:102E700040F400502168C86000206064202084F87D
:102E8000410084F842000020606300BFC8E70000F2
:102E900010B586B00446002002900390049005907F
:102EA0001E492068884236D100BF1D48806940F421
:102EB00080401B4988610846806900F48040019089
:102EC00000BF00BF00BF0846806940F00400886171
:102ED0000846806900F00400019000BF00BF48155B
:102EE0000290022003900320059002A90D48FEF7EE
:102EF0008FFD4FF48060029000200390049002A99F
:102F00000848FEF785FD002211462520FEF7A4FFA4
:102F10002520FEF791FF06B010BD000000380140EB
:102F2000001002400008014070B504460D461646E8
:102F300094F8420020280BD105B10EB9012070BDD4
:102F40000020206332462946204601F0F1FCF6E7D6
:102F50000220F4E710B5044616492068884227D1BC
:102F6000154800780A2803D0134800780D280CD1A2
:102F700012480078002816DD002111480F4A127807
:102F8000815401200F4908700DE00C4800783F285B
:102F900009DA09480178094802780078401C074B93
:102FA000187007488154012203490748FFF7BCFF06
:102FB00010BD0000003801406000002061000020CA
:102FC000A801002062000020F40000202DE9F84F45
:102FD00004460E46174699464FF0000A94F8410001
:102FE000202850D106B117B90120BDE8F88F002084
:102FF0006064212084F84100FEF7A8FE8246A78481
:10300000E784A068B0F5805F04D1206910B900257D
:10301000B04602E035464FF000081EE0534600225D
:1030200080212046CDF8009001F0D2FC20B1202074
:1030300084F841000320D8E745B9B8F80000C0F390
:1030400008002168486008F1020803E02878216838
:1030500048606D1CE08C401EE084E08C0028DDD1CF
:103060005346002240212046CDF8009001F0B0FCEC
:1030700020B1202084F841000320B6E7202084F806
:1030800041000020B1E70220AFE7704700BFFEE734
:1030900010B50120034908700022C1030248FEF761
:1030A0004FFE10BD630000200008014010B50B4822
:1030B0000B49086010204860002109488160C16008
:1030C00001614161017641768176C1760177417770
:1030D000FEF7E2FA08B1FEF7DCFA10BD006400402A
:1030E0007400002000B585B000200190029003908C
:1030F000049000BF4148806940F020003F4988614A
:103100000846806900F02000009000BF00BF00BFAB
:103110000846806940F0040088610846806900F034
:103120000400009000BF00BF00BF0846806940F067
:10313000080088610846806900F00800009000BF20
:1031400000BF012248F280012D48FEF7F9FD01225F
:1031500041F603412B48FEF7F3FD002204212948E4
:10316000FEF7EEFD00224FF480712548FEF7E8FDE2
:1031700040200190244802900120039001A920489A
:10318000FEF746FC80200190012002900020039071
:103190000320049001A91A48FEF73AFC41F60340C7
:1031A000019001200290002003900320049001A9C7
:1031B0001448FEF72DFC042001900120029000200D
:1031C00003900220049001A90E48FEF721FC4FF461
:1031D0000140019001200290002003900220049001
:1031E00001A90748FEF714FC002211461720FEF73C
:1031F00033FE1720FEF720FE05B000BD0010024090
:1032000000080140000C01400000211010B50F48DB
:103210000F4908604FF48270486000210C488160BB
:10322000C1600221016101214161490281611821CE
:10323000C16100210162416281620A21C162FFF71E
:10324000B5F908B1FEF725FA10BD000000380040BE
:103250009C00002010B50B480B4908604FF4E1308A
:103260004860002108488160C16001610C21416112
:1032700000218161C161FFF7CFFD08B1FEF709FAB6
:1032800010BD000000380140F400002000BFFEE740
:1032900000BFFEE72DE9F04704460E4615461F46DF
:1032A000DDF820A02046E11704EB9171C1F38F04F3
:1032B0002846E91705EB9171C1F38F056A1ED1B25B
:1032C000E0B2FEF7C9F9781EC1B2304600F0B6FE92
:1032D00004F0FF0811E0B14609E0504600F080FE1E
:1032E000504600F07DFE09F1010000F0FF09B945EC
:1032F000F3DB08F1010000F0FF08A845EBDBBDE8B7
:10330000F087000008B5002280214248FEF718FD32
:103310000A20FEF7B3F9012280213E48FEF710FD96
:10332000FD2000F063FE122000F05AFEAE2000F0F7
:103330005DFEB32000F05AFE912000F051FECA203D
:1033400000F054FE3F2000F04BFEA22000F04EFEA5
:10335000002000F045FEA12000F048FE002000F013
:103360003FFEA02000F042FE062000F039FEB5200E
:1033700000F03CFE002000F033FEAB2000F036FEF3
:10338000012000F02DFEB42000F030FEA02000F05F
:1033900027FEFD2000F024FEC12000F027FEFF20C4
:1033A00000F01EFEC72000F021FE0F2000F018FEE6
:1033B000B92000F01BFEB12000F018FEE22000F062
:1033C0000FFED12000F012FE822000F009FE202026
:1033D00000F006FEBB2000F009FE1F2000F000FEFA
:1033E000B62000F003FE082000F0FAFDBE2000F039
:1033F000FDFD072000F0F4FDA62000F0F7FD002001
:1034000040239A0001460090FFF744FFAF2000F0F0
:10341000EDFD08BD000801402DE9FF4F87B00646CD
:1034200089461C46042005904FF0000A2046E2170A
:1034300004EB127212112146E31704EB13731B11F4
:10344000A4EB03130BB1012300E000231A446243F1
:10345000D2B204920998203800F0FF08B346F21760
:1034600006EB92729210E31704EB537302EBE30244
:10347000521ED1B2F21706EB9272C2F38700CDE969
:103480000164FEF7E9F809EB0400401EC1B24846AA
:1034900000F0D4FD002565E0102C05D1344800EB88
:1034A0000810405D03901AE0182C07D108EB480083
:1034B000304901EB0010405D039010E0202C05D155
:1034C0002D4800EB8810405D039008E00C2C06D1DD
:1034D00008EB4800294901EB8000405D0390E117AB
:1034E00004EB11710911A4EB011191B12046E11710
:1034F00004EB11710911491CC9B20691069995FB9B
:10350000F1F001FB105010B10220059001E0042001
:103510000590002721E0002000EB470101208840B2
:103520000399084008B14FF0F00A012000EB470171
:1035300088400399084008B14AF00F0A149828B14E
:103540006FEA0A01C8B200F04BFD02E0504600F0FD
:1035500047FD4FF0000A781CC7B205988742DADBB6
:10356000681CC5B20498854296DB0BB0BDE8F08FAD
:10357000CA590008BA5F00088A7100085655000849
:103580002DE9F8430746884616461C46089D2CE060
:10359000102C07D12346324641463846009500F0AC
:1035A000DFF81FE00C2C07D123463246414638464F
:1035B000009500F01FF815E0182C07D1234632467D
:1035C00041463846009500F067F90BE0202C07D102
:1035D0002346324641463846009500F001FA01E0A4
:1035E000BDE8F883B61C3819C7B230780028CFD1AF
:1035F00000BFF5E72DE9FF4F83B005468B4699469E
:10360000002716200290AA46EA1705EB9272921044
:103610004FEAE97309EB937302EBA302521ED1B296
:10362000EA1705EB9272C2F38700CDE90059FEF765
:1036300013F80BEB0900401EC1B2584600F0FEFC27
:10364000B84682E008EB880000EBC800434911F857
:10365000101005980078814273D108EB880000EBC8
:10366000C8003E4901EB400041780598407881420E
:1036700067D1002661E008EB880000EBC8003749FD
:1036800001EB4000801C10F81600019000241FE0A0
:103690000027002000EB44010120884001990840E8
:1036A00008B147F0F007012000EB44018840019980
:1036B000084008B147F00F07109820B1F943C8B28D
:1036C00000F08EFC02E0384600F08AFC601CC4B2B8
:1036D000042CDDDB08EB880000EBC8001F4901EB80
:1036E0004000801C012101EB460110F801A00024DC
:1036F0001FE00027002000EB44010120884000EA81
:103700000A0008B147F0F007012000EB44018840AF
:1037100000EA0A0008B147F00F07109820B1F943FA
:10372000C8B200F05DFC02E0384600F059FC601CB5
:10373000C4B2022CDDDB701CC6B20C2E9BDB08E091
:10374000FFE708F1010000F0FF0802988045FFF64E
:1037500079AF00BF07B0BDE8F08F00004A890008CC
:103760002DE9F04F85B00546894692461C4600205B
:1037700004902046E21704EB5272D2102146E31760
:1037800004EB5373DB10A4EBC3030BB1012300E084
:1037900000231A44624392B2029202200390AB4685
:1037A000EA1705EB92729210E31704EB937302EBA6
:1037B000A302521ED1B2EA1705EB9272C2F3870040
:1037C000CDE90054FDF748FF09EB0400401EC1B2EB
:1037D000484600F033FC002655E006EB06102D4964
:1037E00011F810009AF80010884249D106EB061033
:1037F000284901EB400040789AF8011088423FD1F7
:103800004FF0000839E0002731E006EB06102149AF
:1038100001EB4000801C10F80800002101EB47027A
:1038200001219140084008B1F020049006EB0610F9
:10383000184901EB4000801C10F80800012101EB41
:1038400047029140084018B1049840F00F000490DE
:103850000E9828B10499C943C8B200F0C1FB02E038
:10386000049800F0BDFB00200490781CC7B2042F20
:10387000CBDB08F1010000F0FF0802988045C2DBB5
:1038800000BF701CC6B203988642A6DB05B0BDE837
:10389000F08F0000868B00082DE9F04F85B00546BB
:1038A000894692461C46002004902046E21704EB0D
:1038B0005272D2102146E31704EB5373DB10A4EBD2
:1038C000C3030BB1012300E000231A44624392B208
:1038D000029201200390AB46EA1705EB9272921018
:1038E000E31704EB937302EBA302521ED1B2EA1763
:1038F00005EB9272C2F38700CDE90054FDF7ACFEF0
:1039000009EB0400401EC1B2484600F097FB0026B8
:103910005DE006EB860000EB4610304911F8100020
:103920009AF8001088424FD106EB860000EB461053
:103930002A4901EB400040789AF80110884243D1AF
:103940004FF000083DE0002735E006EB860000EB75
:103950004610224901EB4000801C10F808000021AD
:1039600001EB470201219140084008B1F02004908A
:1039700006EB860000EB4610184901EB4000801C66
:1039800010F80800012101EB47029140084018B1EE
:10399000049840F00F0004900E9828B10499C94390
:1039A000C8B200F01DFB02E0049800F019FB0020F3
:1039B0000490781CC7B2042FC7DB08F1010000F0A7
:1039C000FF0802988045BEDB00BF701CC6B203989A
:1039D00086429EDB05B0BDE8F08F0000CA8B000870
:1039E0002DE9F04F85B00546894692461C460020D9
:1039F00004902046E21704EB5272D2102146E317DE
:103A000004EB5373DB10A4EBC3030BB1012300E001
:103A100000231A44624392B2029206200390AB46FE
:103A2000EA1705EB92729210E31704EB937302EB23
:103A3000A302521ED1B2EA1705EB9272C2F38700BD
:103A4000CDE90054FDF708FE09EB0400401EC1B2A9
:103A5000484600F0F3FA002655E006EB86102D49A3
:103A600011F810009AF80010884249D106EB861030
:103A7000284901EB400040789AF8011088423FD174
:103A80004FF0000839E0002731E006EB86102149AD
:103A900001EB4000801C10F80800002101EB4702F8
:103AA00001219140084008B1F020049006EB8610F7
:103AB000184901EB4000801C10F80800012101EBBF
:103AC00047029140084018B1049840F00F0004905C
:103AD0000E9828B10499C943C8B200F081FA02E0F7
:103AE000049800F07DFA00200490781CC7B2042FDF
:103AF000CBDB08F1010000F0FF0802988045C2DB33
:103B000000BF701CC6B203988642A6DB05B0BDE8B4
:103B1000F08F0000148C00082DE9F84306460F468C
:103B200014461D46DDF820800EE0CDF80080227896
:103B30002B4639463046FFF76FFC641C284605EBE0
:103B4000D07106EB6101CEB220780028EDD1BDE83E
:103B5000F88300002DE9F04F8FB0C948807C03281E
:103B600002DCC748807C00E000208246C54850F84F
:103B70002A50C348C07C032802DCC148C07C00E056
:103B800000208346BF4850F82B90BD49C868BE4905
:103B9000FCF758FD01D2032410E0B949C868BB49BD
:103BA000FCF750FD01D2022408E0B549C868B849C5
:103BB000FCF748FD01D2012400E00024B048007A5F
:103BC00008B12A2600E07E26032C0BD1AC490868F8
:103BD000FCF7D9FC32468DE82300AEA107A800F01F
:103BE00057FF26E0022C0BD1A5490868FCF7CBFC57
:103BF00032468DE82300ABA107A800F049FF18E08A
:103C0000012C0BD19E490868FCF7BDFC32468DE8BB
:103C10002300A8A107A800F03BFF0AE09849086824
:103C2000FCF7B1FC32468DE82300A6A107A800F0FE
:103C30002FFF0020182307AA01460090FFF76CFF12
:103C4000032C0CD18E494868FCF79DFC07463A4688
:103C50000B46A0A107A8009500F01AFF29E0022C4E
:103C60000CD187494868FCF78EFC07463A460B465C
:103C70009CA107A8009500F00BFF1AE0012C0CD1C5
:103C80007F494868FCF77FFC07463A460B4699A1F6
:103C900007A8009500F0FCFE0BE079494868FCF7A6
:103CA00072FC07463A460B4696A107A8009500F01D
:103CB000EFFE0020182307AA194600901846FFF7C8
:103CC0002BFF6F48007D40B101200C2391A21821E9
:103CD00000900020FFF754FC06E000202423182267
:103CE00011460090FFF7D6FA00200C238BA2322158
:103CF0000090FFF745FC624842894B4689A107A81E
:103D000000F0C6FE0020102307AA302100901820E2
:103D1000FFF702FF00200C2384A2322100904C20E8
:103D2000FFF72EFC032C0BD15549C868FCF72BFC80
:103D300007463A460B467FA107A800F0A9FE26E0F9
:103D4000022C0BD14E49C868FCF71DFC07463A46C9
:103D50000B467AA107A800F09BFE18E0012C0BD1BE
:103D60004749C868FCF70FFC07463A460B4675A161
:103D700007A800F08DFE0AE04149C868FCF703FC83
:103D800007463A460B4671A107A800F081FE0020C5
:103D9000102307AA302100907020FFF7BDFE0020FD
:103DA0000C236CA232210090A020FFF7E9FB3448DD
:103DB000407A40B100200C2368A232210090B82044
:103DC000FFF7DEFB07E001200C2365A23221009003
:103DD000B820FFF7D5FB002010237C22014600907D
:103DE000C820FFF719FB002010237C221946009001
:103DF000C820FFF711FB002010237C222021009017
:103E0000C820FFF709FB002010237C2230210090FE
:103E1000C820FFF701FB00200C2352A204210090D0
:103E2000D820FFF7ADFB1648027C50A103A800F094
:103E30002FFE0020102303AA12210090D820FFF7A4
:103E40006BFE00200C234BA224210090D820FFF70A
:103E500097FB0B48407C40B100200C233FA232214D
:103E60000090E020FFF78CFB07E001200C233CA230
:103E700032210090E020FFF783FB0FB0BDE8F08F08
:103E80002000002010000020BC74133CEC51B83D11
:103E90006666663F256320422F473A25372E3366F4
:103EA00020257300256320422F473A25372E32669E
:103EB00020257300256320422F473A25372E31668F
:103EC00020257300256320422F473A25372E306680
:103ED000202573004E65743A25372E3366202573EE
:103EE000000000004E65743A25372E326620257397
:103EF000000000004E65743A25372E316620257388
:103F0000000000004E65743A25372E306620257378
:103F100000000000B1A8BEAF00000000C1BFB3CCDC
:103F2000000000003A25642573200000B7D6B6C80B
:103F3000D6B500003A252E33662000003A252E32F1
:103F4000662000003A252E31662000003A252E30EA
:103F500066200000C1E3B5E300000000A1CC000032
:103F6000A1C10000C9E8B1B8BAC50000253033646A
:103F700000000000CDA8D0C50000000070B50446C8
:103F8000002201211548FDF7DBFE00251DE000227F
:103F90004FF480611148FDF7D3FE04F0800028B192
:103FA0000122D1020D48FDF7CBFE05E000224FF4BF
:103FB00000610A48FDF7C4FE012291020748FDF79F
:103FC000BFFE6006040E681CC5B2082DDFDB0122AF
:103FD00011460248FDF7B4FE70BD0000000C014020
:103FE00010B504462046FFF7C9FF10BD10B50446C2
:103FF000002202210548FDF7A3FE2046FFF7BEFF81
:10400000012202210148FDF79BFE10BD000C01407A
:104010007047000008B508490968C9084FF47A726A
:10402000B1FBF2F14143009100BF00BF00994A1E6D
:1040300000920029F9D108BD0C00002070B505469A
:104040000C467520FFF7D2FF2846FFF7C9FF204630
:10405000FFF7C6FF5C20FFF7C9FF70BDF8B5044647
:104060000E4615463346012202212046009500F0F7
:1040700017F828B1606D40F0200060650320F8BD9E
:104080003346002280212046009500F009F828B12F
:10409000606D40F0200060650320F0E70020EEE74F
:1040A0002DE9F84F04460D4690461E46DDF828904F
:1040B000FDF74CFEA0EB0900371AFDF747FE8246DC
:1040C0002C480068C0F3CB307843009045E0701C6A
:1040D000002842D0FDF73AFEA0EB0A00B84200D219
:1040E000A7BB2068406820F0E00021684860606855
:1040F000B0F5827F0DD1A068B0F5004F03D0A06865
:10410000B0F5806F05D12068006820F0400021687C
:104110000860A06AB0F5005F0DD100BF206800689C
:1041200020F40050216808602068006840F40050C6
:104130002168086000BF012084F8510000BF002002
:1041400084F8500000BF0320BDE8F88FFFE7009817
:1041500000B900270098401E009020688068284021
:10416000A84201D1012000E000204045AFD100204D
:10417000EAE700000C000020704700004FF4000048
:10418000064908600648486000210648034AC2E91B
:1041900002100020114608617047000090010020C5
:1041A000A0868100006AE8402DE9F047FDF7F2F9AA
:1041B0002349C861C969224A126A881AFCF7DAF9E8
:1041C00005461F48416A2846FCF783F804461C4907
:1041D000C8684FF08041FCF77CF88146FCF7D3F9C2
:1041E00005460E462046FCF7CEF921F00041074671
:1041F0002A463346FCF7DAF900D20024104804605E
:10420000024691691068FCF75EF80D494860C9697B
:104210000C4A1268881A002801DB014600E041427E
:10422000502903DA01200649087202E000200449FF
:1042300008720348C06903490860BDE8F0870000C0
:10424000200000205C00002010B501220249034834
:10425000FEF76AFE10BD000060000020F4000020A0
:104260002DE9F0417148007800286ED070A17248A5
:10427000FBF7ADFF68B971480068704988618869CB
:10428000FCF781F9044622460B466DA000F0F0FBD6
:10429000C5E072A16848FBF79AFF30B90020674972
:1042A000886171A000F0E4FBB9E075A16248FBF7FA
:1042B0008EFF78B9FDF752F96048C0695F4908621E
:1042C00000208861012048720846016A6FA000F052
:1042D000CFFBA4E076A15848FBF779FF30B9002066
:1042E0005649487275A000F0C3FB98E009227AA1F4
:1042F0005148FBF77AFF00282CD14F48093001F0D4
:1043000069F80646FCF782F905464C48C0694B49F6
:10431000096A441A00212846FCF79EF914D29CB180
:104320002046FCF727F9064631462846FCF703F8F5
:1043300042494862486AFCF726F9064632460B466F
:1043400068A000F095FB04E000E06DE06EA000F0D6
:104350008FFB64E0052278A13748FBF746FF58B988
:104360003548401DFBF750FF344988740846817C6E
:1043700073A000F07DFB52E004227BA12E48FBF7E6
:1043800034FF58B92C48001DFBF73EFF2B494881EC
:104390000846418976A000F06BFB40E008227BA133
:1043A0002548FBF722FF58B923480830FBF72CFFBC
:1043B0002249C8740846C17C77A000F059FB2EE062
:1043C000042280A11C48FBF710FF90B91A48001D79
:1043D00001F000F80446FCF719F91849C860C868EC
:1043E000FCF7D1F8044622460B4678A000F040FBCB
:1043F00015E005227DA11048FBF7F7FE58B90E48DD
:10440000401DFBF701FF0D4908750846017D79A0A5
:1044100000F02EFB03E008497BA000F029FB002000
:104420008049087001490870BDE8F08162000020F1
:104430005441524500000000A80100202000002047
:104440003E3E204F4B3A2054617265642E205461E9
:104450007265203D20252E33660D0A00434C4541F0
:1044600052544152450000003E3E204F4B3A2054EA
:1044700061726520436C65617265642E0D0A0000EF
:1044800043414C5F5A45524F000000003E3E204FD2
:104490004B3A205A65726F2043616C696221204259
:1044A00061736520414443203D2025640D0A0000CE
:1044B00052455345545F5A45524F00003E3E204FEF
:1044C0004B3A205A65726F20537461747573205291
:1044D000657365742E0D0A0043414C5F46554C4C84
:1044E0003A0000003E3E204F4B3A2043616C696227
:1044F00072617465642120466163746F72203D208F
:10450000252E38660D0A00003E3E204552523A20C4
:1045100043616C6962204661696C65642028436868
:1045200065636B20414443206F722057656967685B
:1045300074290D0A00000000554E49543A0000004D
:104540003E3E204F4B3A204C69766520556E69748B
:10455000204368616E67656420746F20496E6465EE
:10456000782025640D0A00004341503A0000000005
:104570003E3E204F4B3A204361706163697479205D
:1045800053657420746F2025640D0A004341505513
:104590004E49543A000000003E3E204F4B3A204323
:1045A0006170616369747920556E69742043686134
:1045B0006E67656420746F20496E64657820256499
:1045C0000D0A00004449563A000000003E3E204FCC
:1045D0004B3A204469766973696F6E205365742085
:1045E000746F20252E33660D0A0000005741524E8D
:1045F0003A0000003E3E204F4B3A20416C61726D04
:10460000203D2025640D0A003E3E204552523A20AE
:10461000556E6B6E6F776E20436D643A2025730D77
:104620000A0000006100002010B5FDF795FB10BDE9
:1046300000B58FB0282105A8FBF7BEFD1421684600
:10464000FBF7BAFD012005900004069000200790BA
:104650000120099002200C90C1030D91C1040E911C
:1046600005A8FDF771FD08B1FDF713F80F200090C4
:1046700002200190002002904FF4806003900020FF
:10468000049002216846FDF739FC08B1FDF701F8F6
:104690000FB000BD704770B505466C6A0020E0851C
:1046A000E0842046FEF744FA70BD00BF00BF0268F8
:1046B0000C3252E8002F22F4907102680C3242E86A
:1046C0000013002BF3D100BF00BF00BF02681432FB
:1046D00052E8002F22F001010268143242E8001370
:1046E000002BF3D100BF016B01290ED100BF00BF29
:1046F00002680C3252E8002F22F0100102680C32DE
:1047000042E80013002BF3D100BF202180F84210B3
:1047100000210163704710B504462068C06820F08E
:1047200040002168C860202084F841002046FEF740
:10473000ACFC002010BDF8B5044694F842002228D5
:1047400075D1A068B0F5805F0CD1206950B9002503
:10475000A66A20684068C0F308003080A06A801C08
:10476000A06215E0A56A0026A068B0F5805F03D0BE
:10477000A06828B9206918B920684068287004E04A
:104780002068406800F07F002870A06A401CA0628A
:10479000E08D401E80B2E085002846D12068C068C8
:1047A00020F020002168C8602068C06820F4807074
:1047B0002168C8602068406920F0010021684861D4
:1047C000202084F8420000206063206B012826D15D
:1047D0000020206300BF00BF21680C3151E8001F9A
:1047E00021F0100021680C3141E80002002AF3D1C9
:1047F00000BF2068006800F0100010280AD100BF38
:1048000000200090206800680090206840680090B8
:1048100000BF00BFA18D2046FEF789F902E02046C7
:10482000FEF798FB0020F8BD01E00020FBE7022026
:10483000F9E7000070B504462168096921F4405188
:10484000E2681143226811612269A168114362691B
:1048500041EA02052168C96841F20C62914329438B
:104860002268D1602168496921F44071A26911432D
:10487000226851612D4A2168914202D1FDF71AFC4C
:1048800001E0FDF707FC00EBC00101EB00116268DD
:104890009200B1FBF2F100EBC00202EB0012636880
:1048A0009B00B2FBF3F26423B2FBF3F202EBC20310
:1048B00003EB0212A1EB8201322202EB011164220E
:1048C000B1FBF2F101F0F00100EBC00202EB0012CB
:1048D00063689B00B2FBF3F26423B2FBF3F201EBDB
:1048E000021200EBC00101EB001163689B00B1FBF9
:1048F000F3F100EBC00303EB00136668B600B3FBF3
:10490000F6F36426B3FBF6F303EBC30606EB0313DF
:10491000A1EB8301322303EB01116423B1FBF3F11B
:1049200001F00F0111442268916070BD0038014010
:1049300010B5034699629A85DA85002058642220D2
:1049400083F84200186928B11868C06840F4807084
:104950001C68E0601868406940F001001C686061F4
:104960001868C06840F020001C68E060002010BD9E
:10497000014691F84100212828D18868B0F5805F70
:104980000BD1086948B90A6A1088C0F308000B689F
:104990005860086A801C086205E00B6A581C0862AF
:1049A00018780B685860C88C401E80B2C88458B90B
:1049B0000868C06820F080000B68D8600868C0688C
:1049C00040F040000B68D860002070470220FCE7F0
:1049D0002DE9F84304460D4617469846089E31E0F7
:1049E000701C70B3FDF7B2F9A0EB0800B04200D81C
:1049F00016B90320BDE8F8832068C06800F0040001
:104A0000F8B1802D1ED0402D1CD020680068C0F366
:104A1000C000B0B100BF0020009020680068009086
:104A200020684068009000BF00BF2046FFF73DFEB1
:104A30000820606400BF002084F8400000BF01200F
:104A4000D8E7FFE7206800682840A84201D101208C
:104A500000E00020B842C3D00020CBE710B50248E8
:104A6000FEF768F810BD0000F400002000BFFEE76C
:104A70000FB4054B10B503A9044A029800F022F9BF
:104A800010BC5DF814FB0000015400086C0000200D
:104A90000FB4084B10B504A902AA039800F012F94C
:104AA000044602A9002000F090FC204610BC5DF8EE
:104AB00014FB0000CB53000802480068C0F302203A
:104AC000704700000CED00E010B5002804DB0A0779
:104AD000130E054A135406E00A07140E034A00F0A9
:104AE0000F031B1FD45410BD00E400E018ED00E0DC
:104AF00000487047700000200148006870470000BF
:104B00007000002002E008C8121F08C1002AFAD174
:104B100070477047002001E001C1121F002AFBD13D
:104B200070470000014908607047000070000020D5
:104B30002DE9FF5F82B00021DDE90430020DDDF8D0
:104B400040B0034318D044F61050A2F2FF32424363
:104B50001514119801281FD0A5EB0B00401C5FEA2B
:104B6000000A4FF000064E4FDFF83891B04650462D
:104B700015D5CAF1000413E0119801244AA30128B5
:104B800001D16FEA0B010298119AC0E90031C0E926
:104B9000024206B0BDE8F09FCBF10000DFE704461B
:104BA0000021404A491842EB0450CDE9001012E0C0
:104BB000E00707D032463B4640464946FBF7F9FB43
:104BC0008046894632463B4610461946FBF7F1FBC4
:104BD00006460F466410002CEAD1DDE90401DDE948
:104BE0000023BAF1000F06DAFBF7E3FB42464B461F
:104BF000FBF7DFFB05E0FBF74EFC42464B46FBF7BD
:104C00004AFC04460E460022284BFBF7E7FC03D87B
:104C10004FF0FF30014607E00022254B2046314689
:104C2000FBF786FEFBF72BFF102409E0002C0ADBC4
:104C30000A220023FBF730FD039B30321A55641E15
:104C400050EA0102F2D1641C039AC4F11103144426
:104C5000119A012A03D0012208430DD10AE008432A
:104C600004D000204FF0110B119072E7A3EB0B055D
:104C70006D1E0DE05B4504DD4FF0000205F10105FE
:104C800004E003DA4FF00002A5F10105002AECD0A0
:104C900002981199C0E90231C0E9004579E70000A6
:104CA000000014400000F03F300000000000F0431E
:104CB0000000E03F30380A2801D201207047002070
:104CC000704700002DE9FF4F95B09A46884606468A
:104CD0000025EEE1252877D100242746F94A012155
:104CE000039400E0044316F8013F203B01FA03F06F
:104CF0001042F7D130782A2811D06FF02F03307886
:104D0000A0F13002092A16D8039A44F0020402EBFB
:104D1000820203EB42021044761C0390EFE758F83E
:104D2000042B0392002A03DA504244F40054039007
:104D300044F00204761C30782E2816D116F8010FA4
:104D400044F004042A280DD06FF02F023078A0F12F
:104D50003003092B09D807EB870302EB4303C7187D
:104D6000761CF3E758F8047B761C30786C280FD05B
:104D700006DC4C2817D068280DD06A2814D104E02E
:104D8000742810D07A280FD10DE044F400140AE002
:104D900044F4801401E044F440147278824202D159
:104DA00004F58014761C761C307866280BD013DC52
:104DB000582877D009DC002875D04528F6D0462839
:104DC000F4D047281AD193E118E0632835D064283D
:104DD00079D0652812D18BE1702873D008DC672860
:104DE000F1D069286FD06E280DD06F2806D1ACE0C5
:104DF00073282CD0752874D0782853D05246179930
:104E000090476D1C54E1C4F30250022809D00328D6
:104E10000DD0D8F8001004280DD00D6008F104085A
:104E200046E1D8F80010EA17C1E90052F6E7D8F8D1
:104E300000100D80F2E70D70F0E718F8041B8DF8F4
:104E4000001000208DF80100EB46012003E058F827
:104E500004BB4FF0FF3061074FF0000102D40DE0BA
:104E600009F101018946B9420FDA8145F8DB1BF8E7
:104E700009100029F4D108E009F1010189468142B5
:104E8000FADB1BF809100029F6D103985346A0EB72
:104E9000090721463846179A00F080FA284400EBAB
:104EA000090507E044E008E10DE01BF8010B52465C
:104EB00017999047B9F10109F7D253462146384670
:104EC000179AF2E039E00A21C4F302524FF0000BC6
:104ED0000091022A06D058F8040BC117032A09D002
:104EE0000AE023E008F1070020F00702F2E80201DF
:104EF000904605E000B2C117042A01D140B2C117A3
:104F0000002906DA0A460021404261EB02012D2207
:104F100002E0220504D52B228DF80420012203E0B3
:104F2000E20701D02022F7E7914657E00A2100E08E
:104F300010214FF0000B00910BE010214FF0000BFF
:104F400044F004040827009103E008204FF0000B10
:104F50000090C4F30252022A05D058F8040B002135
:104F6000032A08D008E008F1070020F00702F2E861
:104F70000201904603E080B2042A00D1C0B24FF093
:104F8000000922072AD53278702A07D0DDF800C040
:104F90008CF0100C5CEA0B0C05D00EE040228DF872
:104FA0000420012208E050EA010306D030238DF8E6
:104FB00004308DF8052002229146009B83F00803FF
:104FC00053EA0B030AD150EA010201D1620705D569
:104FD00030228DF804204FF001097F1E3278582AC4
:104FE00004D039A20C920CAA02920BE03BA2F9E782
:104FF0005B46009AFBF750FB0C9B9B5C029A521E8F
:105000000292137050EA0102F2D1029804A9081A20
:1050100000F1200B600702D524F4803400E0012762
:105020005F4502DDA7EB0B0000E0002000EB0B0169
:10503000009003984944401A0390E00306D4534675
:105040002146179A039800F0A9F90544002706E0C5
:1050500001A85246C05D179990476D1C7F1C4F45B3
:10506000F6DBE0030CD553462146179A039800F06F
:1050700095F9054404E030205246179990476D1C7D
:105080000099481E00900029F5DC08E0029802997A
:1050900052460078491C0291179990476D1CBBF14C
:1050A0000001ABF1010BF1DC5BE100F065F90544B7
:1050B000761C307800287FF40DAE19B02846BDE884
:1050C000F08F000009280100303132333435363793
:1050D0003839616263646566000000003031323344
:1050E00034353637383941424344454600000000E4
:1050F000600700D4062708F1070020F00700F0E859
:105100000223804603F0004C5FEA0C0001D097A018
:1051100009E0200501D596A005E0E00701D095A0A3
:1051200001E0AFF24C001390307823F00043652883
:105130000CD006DC452809D046281DD047287FD151
:105140003BE0662818D067287AD136E00021112F7D
:1051500001DB112000E0781CCDE9000104A90CA8B6
:10516000FFF7E6FCDDE90D010C9A4FF0000B07F1AB
:105170000109109200914EE04FF000400097CDE9F8
:10518000011004A90CA8FFF7D3FCDDE90D020C9B6C
:105190000F994FF0000B91461093009211B9791CB2
:1051A00000EB0109B7EB090003D4C0F1FF3B07F1A5
:1051B0000109A9EB0700019042E0012F00DA012765
:1051C0000021112F01DD112000E03846CDE900015A
:1051D00004A90CA8FFF7ACFCDDE90D010C9A0091C5
:1051E0004FF0000BB946109221070FD4009A4A45A0
:1051F00003DA914601E0A9F10109B9F1010F05DDDA
:10520000109AA9F10101515C3029F4D0B84202DAB8
:1052100010F1040F03DA0121CDE9011010E000289C
:1052200003DC8344A9EB000102E0411C494500DD99
:105230008946A0EB0B00401C01904FF0004002900B
:10524000200705D40198484502DB4FF0FF3001905C
:1052500000208DF84B0002980DF14B07B0F1004F84
:1052600025D002200C902B200D90029800280CDAFB
:10527000404202902D200D9007E00A210298FBF792
:10528000F5F93031029007F8011D0C99481E0C9079
:105290000029F2DC02980028EFD1791E0D980870E1
:1052A000307800F0200040F0450007F8020D11A80A
:1052B000C01BC01D02901398007800B1012000EBC4
:1052C0000901019801EBE071029801440398401A2A
:1052D000401E0390E00306D453462146179A0398D4
:1052E00000F05CF805441398007818B152461799FD
:1052F00090476D1CE00323D553462146179A039827
:1053000000F04CF805441BE0BBF1000F07DB0098F0
:10531000584504DD1098179910F80B0001E0179913
:1053200030205246904701980BF1010B401E05F1C9
:105330000105019004D12E205246179990476D1C0B
:10534000B9F10001A9F10109DEDC05E017F8010B54
:105350005246179990476D1C0299481E02900029E9
:10536000F4DC53462146179A03989EE62D00000070
:105370002B000000200000002DE9F041044600252C
:105380001E461746880404D405E039462020B0475D
:105390006D1C641EF9D52846BDE8F0812DE9F04169
:1053A000044600251E469046C80301D5302700E07C
:1053B0002027880404D505E041463846B0476D1CD7
:1053C000641EF9D52846BDE8F0810A68531C0B60BD
:1053D0001070704730B583B00446FFF78DFB05466B
:1053E0000020CDE90000024621466846FBF7A1F9FE
:1053F0002846FFF797FBDDE9000103B030BD000050
:1054000013B50C464FF0FF33012269460248FDF701
:10541000DDFD00981CBD0000F400002008B5FCF77D
:10542000A7FCFFF705F9FDF75DFEFDF73FFEFDF771
:10543000EDFEFDF70FFFFDF765FFFDF729FE0020EC
:1054400040239A0001460090FDF724FF002010231E
:1054500020A21C2100903820FEF75EFB4FF4FA706A
:10546000FCF70CF9FEF7F0FE1FA0FFF701FB01208F
:105470002A4948742A484862FBF712FFFCF7E6F80D
:10548000FBF76EFEFEF77AFE002040239A000146ED
:105490000090FDF7FFFE0020102322A21C210090A7
:1054A0006820FEF739FB4FF4FA70FCF7E7F80020AC
:1054B00040239A0001460090FDF7ECFE08E0FEF75D
:1054C00073FEFEF7CDFEFEF745FB3220FCF766FAD1
:1054D000F5E70000506F776572204F6E2053656CC2
:1054E000662054657374000053797374656D2042AF
:1054F0006F6F74204F4B2120486967682050726598
:10550000636973696F6E205363616C6520537461C6
:105510007274696E672E2E2E0D0A00002000002086
:1055200017B7D13846696E69736800000203040535
:10553000060708090A0B0C0D0E0F101001020000DF
:105540000000000000000102030406070809000033
:105550000000010203040000000000000000000041
:1055600000000000040404040400000400001414FB
:105570000A00000000000000000000000A0A1F0AE4
:105580000A1F0A0A000000040E1505060C14150E69
:105590000400000012150D152E2C2A120000000028
:1055A000040A0A361515291600000202010000003F
:1055B00000000000000010080804040404040808A7
:1055C000100002040408080808080404020000008F
:1055D0000004150E0E150400000000000008083E2F
:1055E00008080000000000000000000000000202A7
:1055F000010000000000003F00000000000000006B
:105600000000000000000002000000201010080848
:1056100004040202010000000E1111111111110EFB
:1056200000000000040604040404040E000000004E
:105630000E1111080402011F000000000E11100CD1
:105640001010110E00000000080C0C0A091F081CA5
:10565000000000001F01010F1110110E00000000DA
:105660000C12010D1311110E000000001E1008088D
:1056700004040404000000000E11110E1111110E9B
:10568000000000000E11111916100906000000009C
:1056900000000400000000040000000000000004FE
:1056A00000000004040000001008040202040810B6
:1056B0000000000000003F003F000000000000006C
:1056C0000204081010080402000000000E11110866
:1056D00004040004000000001C22292D2D1D221CA2
:1056E0000000000004040C0A0A1E1233000000002F
:1056F0000F12120E1212120F000000001E110101F3
:105700000101110E000000000F1212121212120FEE
:10571000000000001F120A0E0A02121F0000000003
:105720001F120A0E0A020207000000001C120101EB
:105730003911120C000000003312121E1212123323
:10574000000000001F0404040404041F0000000003
:105750003E080808080808080907000037120A066A
:105760000A12123700000000070202020202223F62
:10577000000000003B1B1B1B151515350000000029
:105780003B1216161A1A1217000000000E11111102
:105790001111110E000000000F12120E020202077A
:1057A000000000000E1111111117190E1800000051
:1057B0000F12120E0A121237000000001E1101060D
:1057C0000810110F000000001F1504040404040E4B
:1057D00000000000331212121212120C000000001E
:1057E0003312120A0A0C04040000000015151515E6
:1057F0000E0A0A0A000000001B0A0A04040A0A1B17
:10580000000000001B0A0A0A0404040E0000000045
:105810001F0908040402121F00001C0404040404ED
:10582000040404041C000002020404040808081014
:1058300010000E0808080808080808080E00040AE6
:105840000000000000000000000000000000000058
:1058500000000000003F0204000000000000000003
:10586000000000000000000C121C123C00000003AD
:105870000202020E1212120E000000000000001CB4
:105880001202120C000000181010101C1212123C10
:10589000000000000000000C121E021C0000001896
:1058A0002404041E0404041E000000000000003C48
:1058B000120C021C221C00030202020E12121237EA
:1058C00000000004040000060404040E00000008A8
:1058D0000800000C08080808080700030202021A62
:1058E0000A060A1300000007040404040404041F49
:1058F000000000000000000F151515150000000045
:105900000000000F12121237000000000000000C0F
:105910001212120C000000000000000F1212120EF2
:10592000020700000000001C1212121C10380000B8
:105930000000001B06020207000000000000001E1D
:10594000020C101E000000000004041E0404041CCD
:10595000000000000000001B1212123C00000000BA
:105960000000001B0A0A04040000000000000015EB
:10597000150E0A0A000000000000001B0A040A1BA2
:10598000000000000000003312120C0804030000A5
:105990000000001E0804041E000018080808080C77
:1059A000080808081800080808080808080808086F
:1059B0000808060404040408040404040600160984
:1059C00000000000000000000000000000000000D7
:1059D00000000000000000000000000000080808AF
:1059E0000808080800001818000000486C2412007D
:1059F000000000000000000000000000002424243B
:105A00007F1212127F12121200000000081C2A2AB4
:105A10000A0C1828282A2A1C08080000002225152C
:105A200015152A585454542200000000000C12127C
:105A3000120A76252911916E000000060604030063
:105A400000000000000000000000004020101008CE
:105A50000808080808101020400000020408081078
:105A600010101010100808040200000000000808C0
:105A70006B1C1C6B080800000000000000000808F8
:105A800008087F0808080800000000000000000067
:105A900000000000000006060403000000000000F3
:105AA0000000FE00000000000000000000000000F8
:105AB00000000000000006060000000080404020BA
:105AC00020101008080404020200000000182442FC
:105AD00042424242424224180000000000080E08E0
