:020000040800F2
:100000007005002005010008592600082D2400086D
:10001000552600083D0A0008052C000800000000D5
:10002000000000000000000000000000A5270008FC
:10003000410A0008000000005D260008C1270008F2
:100040001F0100081F0100081F0100081F01000810
:100050001F0100081F0100081F0100081F01000800
:100060001F0100081F0100081F0100081F010008F0
:100070001F0100081F0100081F0100081F010008E0
:100080001F0100081F0100081F0100081F010008D0
:100090001F0100081F0100081F010008430A000893
:1000A0001F0100081F0100081F0100081F010008B0
:1000B0001F0100081F0100081F0100081F010008A0
:1000C0001F0100081F0100081F0100081F01000890
:1000D0001F010008F52B00081F0100081F01000880
:1000E0001F0100081F0100081F010008DFF810D0E1
:1000F00000F04AFA0048004729350008AFF30080B5
:10010000700500200648804706480047FEE7FEE7E6
:10011000FEE7FEE7FEE7FEE7FEE7FEE7FEE7FEE7B7
:100120002D280008ED0000082DE9F05F05460020AD
:1001300092469B4688460646814640241BE0284658
:1001400041464746224600F020F853465A46C01A18
:10015000914110D311461846224600F04EF82D1A50
:1001600067EB01084F4622460120002100F045F8C8
:1001700017EB00094E41201EA4F10104DFDC4846C4
:1001800031462A464346BDE8F09F202A04DB203A48
:1001900021FA02F00021704721FA02F3D040C2F1A7
:1001A00020029140084319467047D2B201E000F89E
:1001B000012B491EFBD270470022F6E710B513460B
:1001C0000A4604461946FFF7F0FF204610BD30B539
:1001D0000B46014600202022012409E021FA02F505
:1001E0009D4205D303FA02F5491B04FA02F528449F
:1001F000151EA2F10102F1DC30BD202A04DB203AF9
:1002000000FA02F1002070479140C2F1200320FA69
:1002100003F31943904070472DE9FE4F804681EA71
:100220000300C00F0C46009021F0004123F0004570
:10023000B8EB0200A94105D24046214690461C4633
:100240000B46024623F00040104347D0270DC7F36A
:100250000A00C3F30A510290401A019040286BDA59
:10026000C3F3130040F4801B0098924620B1002392
:10027000D2EB030A63EB0B0B01985946C0F1400225
:100280005046FFF7BAFF06460D4650465946019ABA
:1002900000F08CF910EB08006141002487EA11524C
:1002A00084EAE7731A4340D0009A62B3019A012AA4
:1002B0004FEA075215DC001B61EB02014FF00042D0
:1002C00002EA0752CDE90042001C41F58011324696
:1002D0002B4600F08CF903B0BDE8F08F4046214674
:1002E000F9E7001B61EB0201001C41F580130018C7
:1002F0005B412018A2F5001747EB030140EAD570D7
:10030000B6196D4111E06D084FEA360645EAC07531
:100310004FEA0752001B61EB0201001C41F58011FE
:1003200049084FEA30000019514132462B4603B0CC
:10033000BDE8F04F00F04CB90098012240000023C6
:10034000D0EB020263EBE073009821464FEAE074C1
:10035000B8EB000061EB0401E9E783F000435BE7E1
:1003600081F0004158E72DE9FE4F81EA030404F0D3
:10037000004421F0004100944FF0000B23F00043B3
:1003800050EA01045ED052EA03045BD0C3F30A547E
:10039000C1F30A552C44A4F2F3340194A0FB025497
:1003A000C1F3130141F48011C3F3130343F4801329
:1003B00001FB024400FB034E840A970A44EA81547D
:1003C00047EA8357A4FB076802958D0A05FB07855A
:1003D0004FEA932C04FB0C542705029D4FEA065864
:1003E00047EA1637B5EB08056EEB070C870E920E41
:1003F00047EA811742EA8312A7FB0201B6EB0B0121
:1004000064EB00042B0D43EA0C335E1844EB1C50E4
:10041000DA465146E7FB0201C5F313044FEA0B33FA
:1004200043EA14534FEA0432019C43EA0603A4F161
:100430000C040294009CCDE900B400F0D8F803B09D
:10044000BDE8F08F00200146F9E72DE9F04D81EA83
:10045000030404F0004B21F0004514464FF0000A5D
:1004600023F0004150EA050220D054EA01021DD0D9
:10047000C5F30A570246C5F31303C1F31300C1F3D2
:100480000A5640F4801543F48013A7EB0608101BAE
:10049000D64608F2FD3873EB050002D308F10108D7
:1004A00001E092185B41B8F1000F03DA0020014629
:1004B000BDE8F08D00204FF48011064684460EE022
:1004C000171B73EB050705D3121B63EB05030643EC
:1004D0004CEA010C49084FEA300092185B4150EA9F
:1004E0000107EDD152EA030012D082EA040083EA48
:1004F0000501084305D0101BAB4106D201220023A1
:1005000006E000224FF0004302E06FF001025310BA
:100510001AEB06004CEB085110EB0A0041EB0B0103
:10052000BDE8F04D00F054B8C1F30A52C1F3130115
:1005300040F2FF3341F480119A4202DA0020014672
:10054000704740F233439A42A2F2334202DC5242F5
:10055000FFF71BBEFFF751BE30B5041E71F100045A
:1005600004DB4FF00044404264EB0101141E73F1C0
:10057000000405DB1C464FF00043524263EB0403CA
:10058000994208BF904230BD064C074D06E0E06836
:1005900040F0010394E8070098471034AC42F6D3CA
:1005A000FFF7A8FDBC360008DC360008202A06DB71
:1005B000CB17203A41FA02F043EAE07306E041FA31
:1005C00002F3D040C2F1200291400843194670471F
:1005D00010B5141E73F1000408DA401C41F100014B
:1005E00092185B411A4301D120F0010010BD2DE9A2
:1005F000F04D92469B4611B1B1FA81F202E0B0FA99
:1006000080F220329046FFF7F8FD04460F4640EA9C
:100610000A0041EA0B0153465A46084313D01146DB
:1006200053EA010019D0C8F140025046FFF7ADFD72
:1006300005460E46504659464246FFF7DEFD084342
:1006400005D0012004E020463946BDE8F08D0020A9
:10065000054346EAE0762C4337430A986305E40AEB
:10066000A0EB08000022FD0A44EA47540A3002D5F4
:1006700000200146E9E7010510196941DDE9084557
:1006800000196941BDE8F04DA2E770B504460025A8
:10069000002601220321022000F088F8054625F4F7
:1006A0007F45E0B245EA00260123032231460220BD
:1006B00000F022F970BD000070B50024002600256E
:1006C00001220321022000F071F80446254610485B
:1006D000054045F05006012303223146022000F078
:1006E0000BF901221146002000F060F8054605F0E4
:1006F000200018B907A002F087FA02E00CA002F06F
:1007000083FA012303222146022000F0F5F870BD90
:10071000AFFF7FFF4144373139352052656620569F
:100720006F6C74616765204F4B2E0D0A000000004E
:100730004552524F523A20414437313935204E4FBD
:100740002052656620566F6C74616765210D0A0042
:100750002DE9F0410446002500270026114F002214
:10076000F911114800F0C2FC002303223946012090
:1007700000F0C2F800BF09E000F0E6F80022032113
:10078000084600F013F80544701CC6B2A642F3DB1D
:1007900001221103044800F0A9FCB5FBF4F0BDE808
:1007A000F081000060000800000C01402DE9FC41D0
:1007B00007460C46154611A103C9CDE900014FF0CB
:1007C0000008002607F00700402141EAC0008DF82C
:1007D0000000611CCAB2E8B2694600F0E7F80126E1
:1007E00005E01DF8060000EB0828701CC6B2601C6E
:1007F0008642F6DB4046BDE8FC810000FFFFFFFFBC
:10080000FF00000070B50125002400F0C5F80A20A3
:1008100000F0A2FA00F05EF8052000F09DFA012237
:1008200011460420FFF7C2FFC4B221460AA002F01D
:10083000EBF9A62C04D00FA002F0E6F9002070BD61
:10084000FFF73AFF01220721002000F01FF80220E5
:10085000FFF71BFF2846F2E741443731393520497D
:100860004420526561643A203078253032580D0AB0
:100870000000000041443731393520496E69742049
:100880004661696C6564210D0A0000002DE9F041A4
:1008900004460D4616460027B846012203210220D1
:1008A000FFF784FF07460A48074006EB460047EA81
:1008B000805040EAC40005F0070140EA0108012326
:1008C00003224146022000F017F8BDE8F081000045
:1008D000F0FF3FFF1CB506A103C9CDE900010722C7
:1008E0006946012000F086F8022000F035FA1CBDB0
:1008F000FFFFFFFFFFFFFF002DE9FF4182B007462A
:1009000014461D460020009001900DF10C0826466B
:1009100007F00700002141EAC0008DF8000007E061
:1009200098F800000DF8060008F10108701EC6B224
:10093000002EF5DC611CCAB2E8B2694600F05AF834
:1009400006B0BDE8F081000070B50B4C0AE0002253
:1009500001211046FFF72AFF054605F0800000B987
:1009600004E000BF201EA4F10104F0D100BF14B9BF
:1009700002A002F049F970BDFFFF1F00414437316A
:1009800039352057616974205244592054696D6586
:100990006F7574210D0A000010B501221103024881
:1009A00000F0A4FB10BD0000000C0140F8B50446A7
:1009B0000F461546012C04D1002201030B4800F01C
:1009C00095FB64202B463A4639460090084801F0D2
:1009D00046F90646012C04D101221103034800F018
:1009E00085FB0EB10020F8BD2846FCE7000C014055
:1009F0004C0000202DE9F04104460F461646012C1C
:100A000004D1002201030B4800F070FB642332463E
:100A10003946094801F044F80546012C04D1012269
:100A20001103044800F062FB15B10020BDE8F0811D
:100A30003046FBE7000C01404C00002000BFFEE701
:100A4000704710B5402000F0B3F910BD72B600BF7A
:100A5000FEE770B504460CB9012070BD94F8200083
:100A600010B9204600F0B0F82068006840F001009E
:100A70002168086000F040FB05460DE000F03CFBFB
:100A8000401B0A2808D9606A40F4003060620520E3
:100A900084F820000120E0E72068406800F00100B1
:100AA0000028EBD02068006820F002002168086070
:100AB00000F022FB05460DE000F01EFB401B0A285B
:100AC00008D9606A40F400306062052084F8200094
:100AD0000120C2E72068406800F002000028EBD146
:100AE000207E012806D12068006840F0800021683F
:100AF000086005E02068006820F080002168086038
:100B0000607E012806D12068006840F0400021681E
:100B1000086005E02068006820F040002168086057
:100B2000A07E012806D12068006840F020002168DE
:100B3000086005E02068006820F020002168086057
:100B4000E07E012806D12068006820F010002168AE
:100B5000086005E02068006840F010002168086027
:100B6000207F012806D12068006840F00800216835
:100B7000086005E02068006820F00800216808602F
:100B8000607F012806D12068006840F004002168D9
:100B9000086005E02068006820F004002168086013
:100BA000D4E9020108432169084361690843616887
:100BB000491E08432168C86100206062012084F852
:100BC0002000002049E7000010B586B00446002050
:100BD00002900390049005901A49206888422ED113
:100BE00000BF1948C06940F000701749C861084645
:100BF000C06900F00070019000BF00BF00BF084650
:100C0000806940F0040088610846806900F00400B3
:100C1000019000BF00BFC814029000200390049010
:100C200002A90A4800F0D2F84FF480500290022046
:100C300003900320059002A9044800F0C7F806B00D
:100C400010BD000000640040001002400008014098
:100C50000146002291F82100022808D00420886370
:100C600000BF002081F8200000BF01207047086805
:100C7000006820F00E000B6818600868006820F01B
:100C800001000B68186091F8403001209840CB6B50
:100C90005860012081F8210000BF002081F8200069
:100CA00000BF1046E2E7000070B50446002594F846
:100CB0002100022803D00420A063012548E0206819
:100CC000006820F00E00216808602068006820F0AD
:100CD0000100216808601F492068884201D1012075
:100CE00026E01C4914312068884201D110201FE001
:100CF000184928312068884201D1801518E015492B
:100D00003C312068884201D1801411E011495031F2
:100D10002068884202D14FF4803009E00D496431E7
:100D20002068884202D14FF4801001E04FF08070BB
:100D3000084908394860012084F8210000BF0020DC
:100D400084F8200000BF606B10B12046616B8847BB
:100D5000284670BD0800024070B5044600F0CCF98A
:100D600006462546681C10B104480078054400BFBB
:100D700000F0C2F9801BA842FAD370BD0800002021
:100D800070B50446402C0DD100F0B6F90546064872
:100D90000068281A142802D9012004490870024862
:100DA000056000BF70BD00001C000020180000207E
:100DB00010B5044604480068204020B10248046091
:100DC0002046FFF7DDFF10BD140401402DE9F84770
:100DD0000346002294466EE14FF0010808FA02F43F
:100DE000D1F8008008EA0400A0427DD1DFF8DCA23F
:100DF000D1F80480A8EB0A09D0453AD014DCB8F148
:100E0000030F50D009DCB8F1000F31D0B8F1010F59
:100E10001CD0B8F1020F49D120E0B8F1110F18D061
:100E2000B8F1120F42D11EE0B9F5881F25D006DCBB
:100E3000B9F5803F20D0B9F5801F37D11AE0B9F558
:100E4000001F18D0B9F5041F30D117E0D1F80CC03D
:100E50002DE0D1F80C8008F1040C28E0D1F80C80CA
:100E600008F1080C23E0D1F80C8008F10C0C1EE00E
:100E700000BF00BF00BF00BF00BF00BFD1F80880A7
:100E8000B8F1000F02D14FF0040C0BE0D1F808804C
:100E9000B8F1010F03D14FF0080C1C6102E04FF0D4
:100EA000080C5C6103E04FF0000C00E000BF00BFE5
:100EB000FF2801D8984601E003F104084646FF28C0
:100EC00002D84FEA820803E0A2F108084FEA880836
:100ED0004746D6F800804FF00F0909FA07F928EACB
:100EE00009080CFA07F900E088E048EA0908C6F8A2
:100EF0000080D1F8048008F08058B8F1805F7DD17F
:100F000000BFDFF8CC81D8F8188048F00108DFF87E
:100F1000C091C9F81880C846D8F8188008F00108B0
:100F2000CDF8008000BF00BF4FEAB9384FEA920900
:100F300058F829504FEA82784FEA18794FF00F0895
:100F400008FA09F825EA0805DFF88881434502D147
:100F50004FF0000816E0DFF88081434502D14FF0E2
:100F600001080FE0DFF87481434502D14FF0020819
:100F700008E0DFF86C81434502D14FF0030801E03F
:100F80004FF004084FEA82794FEA197908FA09F814
:100F900048EA0505DFF84C814FEA920948F82950E4
:100FA000D1F8048008F48018B8F5801F0AD1DFF862
:100FB0003881D8F8008048EA0008DFF82C91C9F899
:100FC000008009E0DFF82081D8F8008028EA0008D6
:100FD000DFF81491C9F80080D1F8048008F40018F3
:100FE000B8F5001F10D1DFF8008108F10408D8F827
:100FF000008048EA0008DFF8F09000E05AE009F1CC
:101000000409C9F800800DE0DFF8DC8008F104086D
:10101000D8F8008028EA0008DFF8CC9009F104092C
:10102000C9F80080D1F8048008F40038B8F5003F12
:101030000ED1DFF8B480A8F10408D8F8008048EA9F
:101040000008DFF8A490A9F10409C9F800800DE0B8
:10105000DFF89480A8F10408D8F8008028EA000896
:10106000DFF88490A9F10409C9F80080D1F8048060
:1010700008F48038B8F5803F0ED1DFF86C80A8F115
:101080000808D8F8008048EA0008DFF85C90A9F169
:101090000809C9F800800DE0DFF84C80A8F10808C5
:1010A000D8F8008028EA0008DFF83C90A9F1080988
:1010B000C9F80080521CD1F8008028FA02F8B8F173
:1010C000000F7FF489AEBDE8F88700000000111022
:1010D0000010024000080140000C014000100140D7
:1010E0000014014008000140080401400AB10161F8
:1010F00001E00B040361704701480068704700007D
:1011000000000020034800680349097808440149A9
:1011100008607047000000200800002010B5084853
:10112000006840F0100006490860032000F0A8F8AD
:101130000F2000F007F800F02BF8002010BD000091
:101140000020024070B504460E4800784FF47A71D2
:10115000B1FBF0F00C490968B1FBF0F5284600F04E
:10116000A2FE08B1012070BD102C07D2002221463A
:10117000501E00F047F80548046001E00120F2E746
:101180000020F0E7080000200C00002004000020F0
:1011900008B500BF1148806940F001000F4988611F
:1011A0000846806900F00100009000BF00BF00BF4A
:1011B0000846C06940F08050C8610846C06900F028
:1011C0008050009000BF00BF00BF0549486820F074
:1011D000E06040F00070486000BF08BD00100240B1
:1011E0000000014001460846002809DB00F01F030B
:1011F00001229A4043099B0003F1E023C3F8002138
:1012000000BF70472DE9F05F80460D461646002767
:1012100001F00AFD074639462A46334601F0070029
:10122000C0F1070ABAF1040F02D94FF0040A01E035
:10123000C0F1070AD14600F1040ABAF1070F02D241
:101240004FF0000A01E0A0F1030AD4464FF0010A72
:101250000AFA09FAAAF1010A0AEA020A0AFA0CFAD7
:101260004FF0010B0BFA0CFBABF1010B0BEA030B7C
:101270004AEA0B042146404601F0DEFCBDE8F09F3F
:1012800000BF00F00702064B19684FF6FF03194034
:10129000044B0B4343EA0221014B196000BF704726
:1012A0000CED00E00000FA0570B504460D460CB9DF
:1012B000012070BD5A48006800F00700A8420ED215
:1012C0005748006820F00700284355490860084641
:1012D000006800F00700A84201D00120E9E720786B
:1012E00000F0020002281DD1207800F0040004283C
:1012F00005D14C48406840F4E0604A494860207895
:1013000000F00800082805D14648406840F46050C5
:10131000444948604348406820F0F000A168084311
:1013200040494860207800F0010078B360680128E7
:1013300006D13C48006800F4003090B90120B8E7BD
:101340006068022806D13748006800F0007040B994
:101350000120AEE73348006800F0020008B9012020
:10136000A7E73048406820F00300616808432D4932
:101370004860FFF7C1FE064609E0FFF7BDFE801B8F
:1013800041F28831884202D9032092E707E02548DC
:10139000406800F00C006168B0EB810FEDD120488F
:1013A000006800F00700A8420ED91D48006820F030
:1013B000070028431A4908600846006800F0070043
:1013C000A84201D0012074E7207800F0040004282E
:1013D00007D11448406820F4E060E16808431149EF
:1013E0004860207800F00800082808D10D484068BF
:1013F00020F46050216940EAC1000A49486000F0C9
:101400003FF808494968C1F30311074A515CC840D5
:101410000649086006480068FFF794FE002048E788
:101420000020024000100240A23600080C000020FC
:101430000400002001480068704700000C000020F4
:1014400000B5FFF7F7FF04494968C1F30221034AD9
:10145000515CC84000BD000000100240B2360008D8
:1014600000B5FFF7E7FF04494968C1F3C221034A09
:10147000515CC84000BD000000100240B2360008B8
:1014800070B500210022002400230020134D69685C
:1014900001F00C05F5B1042D02D0082D19D101E0A1
:1014A0000F4819E00F4DC1F38346AB5D01F4803561
:1014B00055B10A4D6D68C5F340450B4E725D084D40
:1014C0005D43B5FBF2F402E0084D03FB05F4204652
:1014D00002E000BF064800BF00BF70BD0010024020
:1014E000001BB70090360008A036000800093D0038
:1014F00000127A00F8B504460CB90120F8BD207836
:1015000000F00100002878D0F848406800F00C0096
:1015100004280CD0F548406800F00C00082811D1D0
:10152000F248406800F48030B0F5803F0AD1EF48BF
:10153000006800F4003000285FD0606800285CD1AB
:101540000120DBE700BF6068B0F5803F06D1E748C7
:10155000006840F48030E549086028E0606858B9C8
:10156000E248006820F48030E049086008460068DE
:1015700020F4802008601AE06068B0F5A02F0BD13D
:10158000DA48006840F48020D849086008460068BE
:1015900040F4803008600AE0D448006820F48030CD
:1015A000D24908600846006820F48020086000BF27
:1015B000606888B1FFF7A0FD054606E0FFF79CFDD7
:1015C000401B642801D9032098E7C848006800F44C
:1015D00000300028F2D010E0FFF78EFD054606E04F
:1015E000FFF78AFD401B642801D9032086E7BF4826
:1015F000006800F400300028F2D1207800F00200EA
:10160000022857D1B948406800F00C0050B1B748E3
:10161000406800F00C00082818D1B448406800F475
:10162000803098B9B148006800F0020020B120690C
:10163000012801D0012061E7AC48006820F0F800E3
:10164000616940EAC100A949086033E02069E8B156
:101650000120A7490860FFF74FFD054606E0FFF7A8
:101660004BFD401B022801D9032047E79F48006833
:1016700000F002000028F2D09C48006820F0F8003A
:10168000616940EAC1009949086013E00020984967
:101690000860FFF731FD054606E0FFF72DFD401B12
:1016A000022801D9032029E79048006800F00200D1
:1016B0000028F2D1207800F0080008282DD1A06978
:1016C000B8B101208B490860FFF716FD054606E01A
:1016D000FFF712FD401B022801D903200EE78348C3
:1016E000406A00F002000028F2D0012000F0B8FFAC
:1016F00013E000207F490860FFF7FEFC054606E086
:10170000FFF7FAFC401B022801D90320F6E67748D0
:10171000406A00F002000028F2D1207800F00400B6
:10172000042873D100277148C06900F0805070B957
:1017300000BF6E48C06940F080506C49C8610846DF
:10174000C06900F08050009000BF00BF01276A48C8
:10175000006800F48070B0B96748006840F4807099
:1017600065490860FFF7C8FC054606E0FFF7C4FCC2
:10177000401B642801D90320C0E65F48006800F4DC
:1017800080700028F2D000BFE068012806D15748D9
:10179000006A40F001005549086227E0E06858B946
:1017A0005248006A20F00100504908620846006A69
:1017B00020F00400086219E0E06805280BD14B48CE
:1017C000006A40F00400494908620846006A40F097
:1017D000010008620AE04548006A20F00100434920
:1017E00008620846006A20F00400086200BFE06852
:1017F000A0B1FFF781FC054609E0FFF77DFC401B27
:1018000041F28831884202D9032077E622E0374846
:10181000006A00F002000028EFD012E0FFF76CFC35
:10182000054608E0FFF768FC401B41F2883188421A
:1018300001D9032062E62D48006A00F0020000286A
:10184000F0D1012F05D12948C06920F080502749E7
:10185000C86100BFE069C8B32448406800F00C00CC
:10186000082860D0E069022848D100202049086695
:10187000FFF742FC054606E0FFF73EFC401B02284E
:1018800001D903203AE61948006800F000700028EA
:10189000F2D1206AB0F5803F07D11448406820F4A7
:1018A0000030A168084311494860D4E908010843A1
:1018B0000E49496821F4741108430C49486001201D
:1018C0000B490866FFF718FC054607E03DE0FFF707
:1018D00013FC401B022801D903200FE603480068CF
:1018E00000F000700028F2D02FE00000001002404D
:1018F000000042428004424200700040002014492F
:101900000866FFF7F9FB054606E0FFF7F5FB401B0D
:10191000022801D90320F1E50E48006800F00070AC
:101920000028F2D111E0E069012800D1E6E509487C
:10193000466806F48031206A814204D106F47011B1
:10194000606A814201D00120D8E50020D6E5000080
:10195000000042420010024010B504460CB90120BC
:1019600010BD606A38B96068B0F5827F00D105E0CB
:101970000021E16102E00021216161610021A16299
:1019800094F8510028B9002084F85000204600F057
:1019900043F8022084F851002068006820F04000DD
:1019A00021680860A08800F48270218901F4044154
:1019B0000843A18901F400610843217C01F0020180
:1019C0000843217D01F001010843218B01F40071DE
:1019D0000843217F01F0380108432021095D01F00F
:1019E00080010843218D01F40051084321680860FB
:1019F0000421A06901EA1040216848602068C0699C
:101A000020F400602168C86100206065012084F82E
:101A100051000020A4E7000010B586B00446002065
:101A200002900390049005901A49206888422FD1B3
:101A300000BF1948C06940F480401749C861084692
:101A4000C06900F48040019000BF00BF00BF08469D
:101A5000806940F0080088610846806900F008004D
:101A6000019000BF00BF4FF420400290022003907D
:101A70000320059002A90948FFF7A8F94FF4804018
:101A8000029000200390049002A90448FFF79EF9F9
:101A900006B010BD0038004000100240000C0140AC
:101AA0002DE9F84304460F4616461D46FFF724FB72
:101AB0008046B14694F85100012802D00220BDE8CA
:101AC000F88307B10EB90120F9E700BF94F8500080
:101AD000012801D10220F2E7012084F8500000BF64
:101AE000032084F85100002060652763A686E686FF
:101AF000A063A087E08760642064A068B0F5004F11
:101B00000BD12068006820F0400021680860206840
:101B1000006840F48040216808602068006800F098
:101B20004000402805D02068006840F0400021684F
:101B30000860E068B0F5006F37D1606810B1B9F1A6
:101B4000010F09D1206B00882168C860206B801CC0
:101B50002063E08E401EE08623E02068806800F06D
:101B6000020002280AD1206B00882168C860206B1F
:101B7000801C2063E08E401EE08612E0FFF7BCFA76
:101B8000A0EB0800A84201D3681C00B94DB90120A0
:101B900084F8510000BF002084F8500000BF0320EB
:101BA0008DE7E08E0028D8D136E0606810B1B9F139
:101BB000010F09D1206B007821680873206B401C4D
:101BC0002063E08E401EE08623E02068806800F0FD
:101BD000020002280AD1206B007821680873206B6C
:101BE000401C2063E08E401EE08612E0FFF784FA7E
:101BF000A0EB0800A84201D3681C00B94DB9012030
:101C000084F8510000BF002084F8500000BF03207A
:101C100055E7E08E0028D8D142462946204600F0FC
:101C200033FD08B120206065A06850B900BF0020D6
:101C300000902068C068009020688068009000BF15
:101C400000BF012084F8510000BF002084F850003C
:101C500000BF606D08B1012031E700202FE72DE9BA
:101C6000FE4F04460F4690461D460C9E01200190F3
:101C7000FFF742FA814694F851B060680290AA4694
:101C8000BBF1010F0BD00298B0F5827F04D1A068A0
:101C900010B9BBF1040F02D00220BDE8FE8F1FB1C6
:101CA000B8F1000F00D00DB90120F6E700BF94F89D
:101CB0005000012801D10220EFE7012084F85000F4
:101CC00000BF94F85100042802D0052084F8510088
:101CD00000206065C4F83880E587A5872763E5861E
:101CE000A586206460642068006800F040004028F9
:101CF00005D02068006840F0400021680860E06876
:101D0000B0F5006F52D1606810B1BAF1010F09D17E
:101D1000206B00882168C860206B801C2063E08EE7
:101D2000401EE0863BE02068806800F00200022848
:101D300010D1E08E70B1019801280BD1206B008882
:101D40002168C860206B801C2063E08E401EE08606
:101D5000002001902068806800F0010068B1E08FE9
:101D600058B12068C068A16B0880A06B801CA0637C
:101D7000E08F401EE08701200190FFF7BDF9A0EB46
:101D80000900B0420BD3701C48B1012084F8510007
:101D900000BF002084F8500000BF03207DE7E08EE4
:101DA0000028C0D1E08F0028BDD152E0606810B19A
:101DB000BAF1010F09D1206B007821680873206BFC
:101DC000401C2063E08E401EE0863CE02068806876
:101DD00000F00200022810D1E08E70B101980128B5
:101DE0000BD1206B007821680873206B401C2063A6
:101DF000E08E401EE086002001902068806800F0A0
:101E0000010068B1E08F58B12068C068A16B08700C
:101E1000A06B401CA063E08F401EE0870120019072
:101E2000FFF76AF9A0EB0900B04201D3701C00B9BA
:101E30004EB9012084F8510000BF002084F8500002
:101E400000BF032029E7E08E0028BFD1E08F0028E3
:101E5000BCD14A463146204600F016FC40B1202055
:101E6000606500BF002084F8500000BF012014E727
:101E7000A06850B900BF002000902068C0680090A2
:101E800020688068009000BF00BF012084F85100E6
:101E900000BF002084F8500000BF606D08B1012031
:101EA000FBE60020F9E670B504462546681EB0F151
:101EB000807F01D301200FE0681E4FF0E0214861D0
:101EC0000F214FF0FF3000F0B7FE00204FF0E0216F
:101ED000886107200861002070BD704770470000CE
:101EE0002DE9F84F0446206805682068C668206818
:101EF00047694FF00009CA4605F00F09B9F1000F14
:101F00000AD105F0200038B106F0200020B12046AB
:101F100000F0DDFCBDE8F88FB9F1000F7BD007F0D1
:101F2000010018B906F49070002874D005F0010083
:101F300030B106F4807018B1606C40F0010060644C
:101F400005F0040030B107F0010018B1606C40F0FA
:101F50000200606405F0020030B107F0010018B122
:101F6000606C40F00400606405F0080048B106F0C1
:101F7000200010B907F0010018B1606C40F00800B3
:101F80006064606C002845D005F0200028B106F0A0
:101F9000200010B1204600F09AFC20684069C0F390
:101FA000801A606C00F0080010B9BAF1000F2CD054
:101FB000204600F046FC2068406900F0400000B375
:101FC00000BF00BF2168143151E8001F21F040001C
:101FD0002168143141E80002002AF3D100BFE06B10
:101FE00050B17748E16B4863E06BFEF75DFE88B166
:101FF000E06B416B88470DE02046FFF76FFF09E07B
:1020000009E02046FFF76AFF04E02046FFF766FF7D
:10201000002060647EE7206B012877D105F0100076
:10202000002873D006F010000028FAD000BF00206E
:10203000009020680068009020684068009000BF11
:1020400000BF2068406900F0400000285FD0E06BCE
:10205000006840681FFA80F8B8F1000F55D0A08DD5
:10206000404552DDA4F82E80E06B8069202843D0E3
:1020700000BF00BF21680C3151E8001F21F48070BF
:1020800021680C3141E80002002AF3D100BF00BFF3
:1020900000BF2168143151E8001F21F001002168C0
:1020A000143141E80002002AF3D100BF00BF00BF95
:1020B0002168143151E8001F21F0400021681431DB
:1020C00041E80002002AF3D100BF202084F842003A
:1020D0000020206300BF00BF21680C3151E8001FC1
:1020E00021F0100021680C3141E80002002AF3D1F0
:1020F00000BFE06BFEF7ACFD02206063A08DE28DB7
:10210000801A81B22046FFF7E8FE03E742E0A08D87
:10211000E18D401A1FFA80F8E08DD0B3B8F1000FBE
:1021200037D000BF00BF21680C3151E8001F21F4F7
:10213000907021680C3141E80002002AF3D100BF01
:1021400000BF00BF2168143151E8001F21F00100D9
:102150002168143141E80002002AF3D100BF202099
:1021600084F842000020206300BF00BF21680C31CA
:1021700051E8001F21F0100021680C3141E80002F5
:10218000002AF3D100BF0220606341462046FFF7DA
:10219000A4FEBFE605F0800030B106F0800018B163
:1021A000204600F0B1FCB5E605F0400030B106F085
:1021B000400018B1204600F07AFBABE600BFA9E66C
:1021C0002F28000810B504460CB9012010BDA069E5
:1021D00000B100E000BF94F8410028B9002084F865
:1021E0004000204600F02AF8242084F841002068AE
:1021F000C06820F400502168C860204600F0E6FB6B
:102200002068006920F490402168086120684069D6
:1022100020F02A00216848612068C06840F400501E
:102220002168C86000206064202084F8410084F8A0
:1022300042000020606300BFC8E7000010B586B010
:102240000446002002900390049005901E492068E7
:10225000884236D100BF1D48806940F480401B4948
:1022600088610846806900F48040019000BF00BF8B
:1022700000BF0846806940F0040088610846806914
:1022800000F00400019000BF00BF4815029002203A
:1022900003900320059002A90D48FEF797FD4FF427
:1022A0008060029000200390049002A90848FEF785
:1022B0008DFD002211462520FEF7A4FF2520FEF704
:1022C00091FF06B010BD0000003801400010024030
:1022D0000008014070B504460D46164694F84200C9
:1022E00020280BD105B10EB9012070BD002020635C
:1022F00032462946204600F0E7FBF6E70220F4E7E5
:1023000010B5044613492068884222D1124800883B
:102310007F2809DA114801780F4802880088401C9C
:102320000D4B18800E4881540C4800780A2803D0C1
:102330000A4800780D2807D100200949064A12886A
:102340008854012007490870012204490648FFF714
:10235000C1FF10BD00380140120000201000002015
:10236000EC00002014000020A40000202DE9F84F0C
:1023700004460E46174699464FF0000A94F841006D
:10238000202850D106B117B90120BDE8F88F0020F0
:102390006064212084F84100FEF7AEFE8246A784E7
:1023A000E784A068B0F5805F04D1206910B90025EA
:1023B000B04602E035464FF000081EE053460022CA
:1023C00080212046CDF8009000F0CEFB20B12020E7
:1023D00084F841000320D8E745B9B8F80000C0F3FD
:1023E00008002168486008F1020803E028782168A5
:1023F00048606D1CE08C401EE084E08C0028DDD13C
:102400005346002240212046CDF8009000F0ACFB5E
:1024100020B1202084F841000320B6E7202084F872
:1024200041000020B1E70220AFE7704700BFFEE7A0
:1024300010B50020034908700122D1030248FEF7BD
:1024400055FE10BD150000200008014010B5012008
:10245000034908700022C1030248FEF747FE10BD81
:102460001500002000080140014800787047000076
:102470001500002010B50B480B490860102048607B
:10248000002109488160C1600161416101764176A6
:102490008176C17601774177FEF7DBFA08B1FEF766
:1024A000D5FA10BD006400402400002000B585B0BE
:1024B0000020019002900390049000BF4148806981
:1024C00040F020003F4988610846806900F0200004
:1024D000009000BF00BF00BF0846806940F00400C4
:1024E00088610846806900F00400009000BF00BFCA
:1024F00000BF0846806940F008008861084680698E
:1025000000F00800009000BF00BF012248F28001E7
:102510002D48FEF7EBFD012241F603412B48FEF763
:10252000E5FD002204212948FEF7E0FD00224FF4DA
:1025300080712548FEF7DAFD402001902448029082
:102540000120039001A92048FEF740FC8020019063
:1025500001200290002003900320049001A91A4852
:10256000FEF734FC41F60340019001200290002068
:1025700003900320049001A91448FEF727FC0420CF
:10258000019001200290002003900220049001A9F4
:102590000E48FEF71BFC4FF4014001900120029011
:1025A000002003900220049001A90748FEF70EFCCA
:1025B000002211461720FEF725FE1720FEF712FE17
:1025C00005B000BD0010024000080140000C0140B1
:1025D0000000211010B50F480F4908604FF48270B9
:1025E000486000210C488160C16002210161012125
:1025F0004161490281611821C1610021016241628A
:1026000081620A21C162FFF7A7F908B1FEF71EFA3D
:1026100010BD0000003800404C00002010B50B48F1
:102620000B4908604FF4E1304860002108488160A0
:10263000C16001610C21416100218161C161FFF72D
:10264000C1FD08B1FEF702FA10BD000000380140DC
:10265000A400002000BFFEE700BFFEE770470000B7
:1026600008B508490968C9084FF47A72B1FBF2F15C
:102670004143009100BF00BF00994A1E009200290B
:10268000F9D108BD0C000020F8B504460E461546E9
:102690003346012202212046009500F017F828B1A8
:1026A000606D40F0200060650320F8BD33460022D5
:1026B00080212046009500F009F828B1606D40F0B7
:1026C000200060650320F0E70020EEE72DE9F84FD9
:1026D00004460D4690461E46DDF82890FEF70CFD98
:1026E000A0EB0900371AFEF707FD82462C48006868
:1026F000C0F3CB307843009045E0701C002842D0F6
:10270000FEF7FAFCA0EB0A00B84200D2A7BB206893
:10271000406820F0E000216848606068B0F5827F82
:102720000DD1A068B0F5004F03D0A068B0F5806F60
:1027300005D12068006820F0400021680860A06A88
:10274000B0F5005F0DD100BF2068006820F4005094
:10275000216808602068006840F400502168086023
:1027600000BF012084F8510000BF002084F8500011
:1027700000BF0320BDE8F88FFFE7009800B90027ED
:102780000098401E0090206880682840A84201D12F
:10279000012000E000204045AFD10020EAE7000022
:1027A0000C0000207047000010B5012202490348C8
:1027B000FFF790FD10BD000010000020A4000020D5
:1027C00010B5FEF79FFC10BD00B58FB0282105A8FD
:1027D000FDF7F2FC14216846FDF7EEFC01200590A0
:1027E00000040690002007900120099002200C9020
:1027F000C1030D91C1040E9105A8FEF77BFE08B13F
:10280000FEF724F90F200090022001900020029092
:102810004FF4806003900020049002216846FEF788
:1028200043FD08B1FEF712F90FB000BD704770B557
:1028300005466C6A0020E085E0842046FFF74EFBE9
:1028400070BD00BF00BF02680C3252E8002F22F4B6
:10285000907102680C3242E80013002BF3D100BFE4
:1028600000BF00BF0268143252E8002F22F00101BD
:102870000268143242E80013002BF3D100BF016B51
:1028800001290ED100BF00BF02680C3252E8002FB0
:1028900022F0100102680C3242E80013002BF3D141
:1028A00000BF202180F8421000210163704710B55D
:1028B00004462068C06820F040002168C8602020DD
:1028C00084F841002046FFF7B0FD002010BDF8B5A8
:1028D000044694F84200222875D1A068B0F5805FC4
:1028E0000CD1206950B90025A66A20684068C0F361
:1028F00008003080A06A801CA06215E0A56A00264E
:10290000A068B0F5805F03D0A06828B9206918B925
:1029100020684068287004E02068406800F07F006C
:102920002870A06A401CA062E08D401E80B2E08545
:10293000002846D12068C06820F020002168C860C7
:102940002068C06820F480702168C86020684069F1
:1029500020F0010021684861202084F84200002016
:102960006063206B012826D10020206300BF00BFD8
:1029700021680C3151E8001F21F0100021680C3152
:1029800041E80002002AF3D100BF2068006800F08F
:10299000100010280AD100BF0020009020680068B5
:1029A000009020684068009000BF00BFA18D2046C5
:1029B000FFF793FA02E02046FFF7A2FC0020F8BDE3
:1029C00001E00020FBE70220F9E7000070B50446B3
:1029D0002168096921F44051E268114322681161BC
:1029E0002269A1681143626941EA02052168C96848
:1029F00041F20C62914329432268D1602168496900
:102A000021F44071A2691143226851612D4A216865
:102A1000914202D1FEF724FD01E0FEF711FD00EB2B
:102A2000C00101EB001162689200B1FBF2F100EB12
:102A3000C00202EB001263689B00B2FBF3F2642356
:102A4000B2FBF3F202EBC20303EB0212A1EB820131
:102A5000322202EB01116422B1FBF2F101F0F0012C
:102A600000EBC00202EB001263689B00B2FBF3F2C2
:102A70006423B2FBF3F201EB021200EBC00101EBA5
:102A8000001163689B00B1FBF3F100EBC00303EBA3
:102A900000136668B600B3FBF6F36426B3FBF6F3E7
:102AA00003EBC30606EB0313A1EB8301322303EB15
:102AB00001116423B1FBF3F101F00F01114422680D
:102AC000916070BD0038014010B5034699629A8547
:102AD000DA8500205864222083F84200186928B162
:102AE0001868C06840F480701C68E060186840692D
:102AF00040F001001C6860611868C06840F0200068
:102B00001C68E060002010BD014691F841002128BA
:102B100028D18868B0F5805F0BD1086948B90A6A86
:102B20001088C0F308000B685860086A801C0862AF
:102B300005E00B6A581C086218780B685860C88C4E
:102B4000401E80B2C88458B90868C06820F0800070
:102B50000B68D8600868C06840F040000B68D86017
:102B6000002070470220FCE72DE9F84304460D469B
:102B700017469846089E31E0701C70B3FEF7BCFA09
:102B8000A0EB0800B04200D816B90320BDE8F883D6
:102B90002068C06800F00400F8B1802D1ED0402DE0
:102BA0001CD020680068C0F3C000B0B100BF002096
:102BB000009020680068009020684068009000BF86
:102BC00000BF2046FFF73DFE0820606400BF0020E4
:102BD00084F8400000BF0120D8E7FFE720680068C4
:102BE0002840A84201D1012000E00020B842C3D013
:102BF0000020CBE710B50248FFF772F910BD0000C6
:102C0000A400002000BFFEE70FB4054B10B503A9D8
:102C1000044A029800F0F6F810BC5DF814FB0000BE
:102C20000D3500082000002002480068C0F3022093
:102C3000704700000CED00E010B5002804DB0A0727
:102C4000130E054A135406E00A07140E034A00F057
:102C50000F031B1FD45410BD00E400E018ED00E08A
:102C600002E008C8121F08C1002AFAD17047704755
:102C7000002001E001C1121F002AFBD170470000B3
:102C80002DE9FF5F82B00021DDE90430020DDDF89F
:102C900040B0034318D044F61050A2F2FF32424332
:102CA0001514119801281FD0A5EB0B00401C5FEAFA
:102CB000000A4FF000064E4FDFF83891B0465046FC
:102CC00015D5CAF1000413E0119801244AA3012884
:102CD00001D16FEA0B010298119AC0E90031C0E9F5
:102CE000024206B0BDE8F09FCBF10000DFE70446EA
:102CF0000021404A491842EB0450CDE9001012E08F
:102D0000E00707D032463B4640464946FDF72BFBDD
:102D10008046894632463B4610461946FDF723FB5E
:102D200006460F466410002CEAD1DDE90401DDE916
:102D30000023BAF1000F06DAFDF715FB42464B46B9
:102D4000FDF711FB05E0FDF780FB42464B46FDF722
:102D50007CFB04460E460022284BFDF7FDFB03D802
:102D60004FF0FF30014607E00022254B2046314658
:102D7000FDF752FAFDF7D8FB102409E0002C0ADB1E
:102D80000A220023FDF7D0F9039B30321A55641E46
:102D900050EA0102F2D1641C039AC4F111031444F5
:102DA000119A012A03D0012208430DD10AE00843F9
:102DB00004D000204FF0110B119072E7A3EB0B052C
:102DC0006D1E0DE05B4504DD4FF0000205F10105CD
:102DD00004E003DA4FF00002A5F10105002AECD06F
:102DE00002981199C0E90231C0E9004579E7000075
:102DF000000014400000F03F300000000000F043ED
:102E00000000E03F2DE9FF4F95B09A468846064600
:102E10000025EEE1252877D100242746F94A012133
:102E2000039400E0044316F8013F203B01FA03F04D
:102E30001042F7D130782A2811D06FF02F03307864
:102E4000A0F13002092A16D8039A44F0020402EBDA
:102E5000820203EB42021044761C0390EFE758F81D
:102E6000042B0392002A03DA504244F400540390E6
:102E700044F00204761C30782E2816D116F8010F83
:102E800044F004042A280DD06FF02F023078A0F10E
:102E90003003092B09D807EB870302EB4303C7185C
:102EA000761CF3E758F8047B761C30786C280FD03A
:102EB00006DC4C2817D068280DD06A2814D104E00D
:102EC000742810D07A280FD10DE044F400140AE0E1
:102ED00044F4801401E044F440147278824202D138
:102EE00004F58014761C761C307866280BD013DC31
:102EF000582877D009DC002875D04528F6D0462818
:102F0000F4D047281AD193E118E0632835D064281B
:102F100079D0652812D18BE1702873D008DC67283E
:102F2000F1D069286FD06E280DD06F2806D1ACE0A3
:102F300073282CD0752874D0782853D0524617990E
:102F400090476D1C54E1C4F30250022809D00328B5
:102F50000DD0D8F8001004280DD00D6008F1040839
:102F600046E1D8F80010EA17C1E90052F6E7D8F8B0
:102F700000100D80F2E70D70F0E718F8041B8DF8D3
:102F8000001000208DF80100EB46012003E058F806
:102F900004BB4FF0FF3061074FF0000102D40DE099
:102FA00009F101018946B9420FDA8145F8DB1BF8C6
:102FB00009100029F4D108E009F101018946814294
:102FC000FADB1BF809100029F6D103985346A0EB51
:102FD000090721463846179A00F080FA284400EB8A
:102FE000090507E044E008E10DE01BF8010B52463B
:102FF00017999047B9F10109F7D25346214638464F
:10300000179AF2E039E00A21C4F302524FF0000BA4
:103010000091022A06D058F8040BC117032A09D0E0
:103020000AE023E008F1070020F00702F2E80201BD
:10303000904605E000B2C117042A01D140B2C11781
:10304000002906DA0A460021404261EB02012D22E6
:1030500002E0220504D52B228DF80420012203E092
:10306000E20701D02022F7E7914657E00A2100E06D
:1030700010214FF0000B00910BE010214FF0000BDE
:1030800044F004040827009103E008204FF0000BEF
:103090000090C4F30252022A05D058F8040B002114
:1030A000032A08D008E008F1070020F00702F2E840
:1030B0000201904603E080B2042A00D1C0B24FF072
:1030C000000922072AD53278702A07D0DDF800C01F
:1030D0008CF0100C5CEA0B0C05D00EE040228DF851
:1030E0000420012208E050EA010306D030238DF8C5
:1030F00004308DF8052002229146009B83F00803DE
:1031000053EA0B030AD150EA010201D1620705D547
:1031100030228DF804204FF001097F1E3278582AA2
:1031200004D039A20C920CAA02920BE03BA2F9E760
:103130005B46009AFCF7F8FF0C9B9B5C029A521EC0
:103140000292137050EA0102F2D1029804A9081AFF
:1031500000F1200B600702D524F4803400E0012741
:103160005F4502DDA7EB0B0000E0002000EB0B0148
:10317000009003984944401A0390E00306D4534654
:103180002146179A039800F0A9F90544002706E0A4
:1031900001A85246C05D179990476D1C7F1C4F4592
:1031A000F6DBE0030CD553462146179A039800F04E
:1031B00095F9054404E030205246179990476D1C5C
:1031C0000099481E00900029F5DC08E00298029959
:1031D00052460078491C0291179990476D1CBBF12B
:1031E0000001ABF1010BF1DC5BE100F065F9054496
:1031F000761C307800287FF40DAE19B02846BDE863
:10320000F08F000009280100303132333435363771
:103210003839616263646566000000003031323322
:1032200034353637383941424344454600000000C2
:10323000600700D4062708F1070020F00700F0E837
:103240000223804603F0004C5FEA0C0001D097A0F7
:1032500009E0200501D596A005E0E00701D095A082
:1032600001E0AFF24C001390307823F00043652862
:103270000CD006DC452809D046281DD047287FD130
:103280003BE0662818D067287AD136E00021112F5C
:1032900001DB112000E0781CCDE9000104A90CA895
:1032A000FFF7EEFCDDE90D010C9A4FF0000B07F182
:1032B0000109109200914EE04FF000400097CDE9D7
:1032C000011004A90CA8FFF7DBFCDDE90D020C9B43
:1032D0000F994FF0000B91461093009211B9791C91
:1032E00000EB0109B7EB090003D4C0F1FF3B07F184
:1032F0000109A9EB0700019042E0012F00DA012744
:103300000021112F01DD112000E03846CDE9000138
:1033100004A90CA8FFF7B4FCDDE90D010C9A00919B
:103320004FF0000BB946109221070FD4009A4A457E
:1033300003DA914601E0A9F10109B9F1010F05DDB8
:10334000109AA9F10101515C3029F4D0B84202DA97
:1033500010F1040F03DA0121CDE9011010E000287B
:1033600003DC8344A9EB000102E0411C494500DD78
:103370008946A0EB0B00401C01904FF000400290EA
:10338000200705D40198484502DB4FF0FF3001903B
:1033900000208DF84B0002980DF14B07B0F1004F63
:1033A00025D002200C902B200D90029800280CDADA
:1033B000404202902D200D9007E00A210298FCF770
:1033C00006FF3031029007F8011D0C99481E0C9041
:1033D0000029F2DC02980028EFD1791E0D980870C0
:1033E000307800F0200040F0450007F8020D11A8E9
:1033F000C01BC01D02901398007800B1012000EBA3
:103400000901019801EBE071029801440398401A08
:10341000401E0390E00306D453462146179A0398B2
:1034200000F05CF805441398007818B152461799DB
:1034300090476D1CE00323D553462146179A039805
:1034400000F04CF805441BE0BBF1000F07DB0098CF
:10345000584504DD1098179910F80B0001E01799F2
:1034600030205246904701980BF1010B401E05F1A8
:103470000105019004D12E205246179990476D1CEA
:10348000B9F10001A9F10109DEDC05E017F8010B33
:103490005246179990476D1C0299481E02900029C8
:1034A000F4DC53462146179A03989EE62D0000004F
:1034B0002B000000200000002DE9F041044600250B
:1034C0001E461746880404D405E039462020B0473C
:1034D0006D1C641EF9D52846BDE8F0812DE9F04148
:1034E000044600251E469046C80301D5302700E05B
:1034F0002027880404D505E041463846B0476D1CB6
:10350000641EF9D52846BDE8F081000013B50C46CD
:103510004FF0FF33012269460248FEF727FF00986B
:103520001CBD0000A4000020FDF7F8FDFFF74CF9DA
:10353000FEF7BCFFFEF79EFFFFF74CF8FFF76EF8B3
:10354000FFF732F91BA0FFF75FFBFEF771FFFEF7F5
:103550008BFF0446214624A0FFF756FBFDF752F9E6
:103560002BA0FFF751FB23E00A20FDF7F1F80446FA
:103570002246214630A0FFF747FB3220FDF7ECFB47
:1035800035480078012812D1002033490870FEF731
:103590006BFF012802D1FEF74BFF01E0FEF756FF5B
:1035A000FEF762FF054629462CA0FFF72DFB00BF62
:1035B000DAE7000053797374656D20426F6F7420F1
:1035C0004F4B2120486967682050726563697369B1
:1035D0006F6E205363616C65205374617274696E01
:1035E000672E2E2E0D0A0000496E697469616C20E9
:1035F0004C4544205374617475733A202564202827
:10360000303A4F46462C20313A4F4E290D0A0000E1
:1036100053797374656D20496E6974204F4B212076
:103620005374617274696E6720746F20726561648F
:103630002E2E2E0D0A0000004144432052617720B7
:10364000446174613A2030782530366C5820282542
:103650006C75290D0A000000180000205B4861729B
:10366000647761726520455854495D2042757474D1
:103670006F6E20436C69636B656421204C45442068
:103680005374617475733A2025640D0A00000000BC
:1036900002030405060708090A0B0C0D0E0F101093
:1036A0000102000000000000000001020304060700
:1036B000080900000000010203040000DC360008D5
:1036C0000000002024000000602C000800370008E3
:1036D000240000204C050000702C000800000000B1
:1036E000100000000100000000127A00000000003D
:1036F00000000000000000000000000000000000CA
:04000005080000ED02
:00000001FF
